{
  "contractName": "Citadel",
  "abi": [
    {
      "constant": true,
      "inputs": [],
      "name": "getApprovedAuthorgReactions",
      "outputs": [
        {
          "name": "hashes",
          "type": "bytes32[]"
        }
      ],
      "payable": false,
      "stateMutability": "view",
      "type": "function"
    },
    {
      "constant": true,
      "inputs": [
        {
          "name": "authorg",
          "type": "address"
        },
        {
          "name": "submission",
          "type": "uint256"
        },
        {
          "name": "revision",
          "type": "bytes32"
        },
        {
          "name": "reaction",
          "type": "bytes32"
        }
      ],
      "name": "getReactorsCountForAuthorgRevisionReaction",
      "outputs": [
        {
          "name": "",
          "type": "uint256"
        }
      ],
      "payable": false,
      "stateMutability": "view",
      "type": "function"
    },
    {
      "constant": false,
      "inputs": [
        {
          "name": "authorgToFollow",
          "type": "address"
        }
      ],
      "name": "follow",
      "outputs": [],
      "payable": false,
      "stateMutability": "nonpayable",
      "type": "function"
    },
    {
      "constant": true,
      "inputs": [
        {
          "name": "",
          "type": "address"
        },
        {
          "name": "",
          "type": "uint256"
        }
      ],
      "name": "authorgToFollowers",
      "outputs": [
        {
          "name": "",
          "type": "address"
        }
      ],
      "payable": false,
      "stateMutability": "view",
      "type": "function"
    },
    {
      "constant": false,
      "inputs": [
        {
          "name": "reaction",
          "type": "bytes32"
        }
      ],
      "name": "addApprovedAuthorgReaction",
      "outputs": [],
      "payable": false,
      "stateMutability": "nonpayable",
      "type": "function"
    },
    {
      "constant": true,
      "inputs": [
        {
          "name": "",
          "type": "uint256"
        }
      ],
      "name": "approved_reactions",
      "outputs": [
        {
          "name": "",
          "type": "bytes32"
        }
      ],
      "payable": false,
      "stateMutability": "view",
      "type": "function"
    },
    {
      "constant": true,
      "inputs": [
        {
          "name": "authorg",
          "type": "address"
        },
        {
          "name": "bioRevision",
          "type": "bytes32"
        },
        {
          "name": "reaction",
          "type": "bytes32"
        }
      ],
      "name": "getReactorsForAuthorgBio",
      "outputs": [
        {
          "name": "",
          "type": "address[]"
        },
        {
          "name": "",
          "type": "uint256[]"
        }
      ],
      "payable": false,
      "stateMutability": "view",
      "type": "function"
    },
    {
      "constant": true,
      "inputs": [
        {
          "name": "authorg",
          "type": "address"
        }
      ],
      "name": "getFollowers",
      "outputs": [
        {
          "name": "followers",
          "type": "address[]"
        }
      ],
      "payable": false,
      "stateMutability": "view",
      "type": "function"
    },
    {
      "constant": false,
      "inputs": [
        {
          "name": "reaction",
          "type": "bytes32"
        }
      ],
      "name": "addApprovedReaction",
      "outputs": [],
      "payable": false,
      "stateMutability": "nonpayable",
      "type": "function"
    },
    {
      "constant": true,
      "inputs": [
        {
          "name": "authorg",
          "type": "address"
        }
      ],
      "name": "getFollowedUsers",
      "outputs": [
        {
          "name": "followedUsers",
          "type": "address[]"
        }
      ],
      "payable": false,
      "stateMutability": "view",
      "type": "function"
    },
    {
      "constant": false,
      "inputs": [
        {
          "name": "authorgAddress",
          "type": "address"
        },
        {
          "name": "subCitadelManifestHash",
          "type": "uint256"
        },
        {
          "name": "revCitadelManifestHash",
          "type": "bytes32"
        },
        {
          "name": "reaction",
          "type": "bytes32"
        }
      ],
      "name": "submitReaction",
      "outputs": [],
      "payable": false,
      "stateMutability": "nonpayable",
      "type": "function"
    },
    {
      "constant": false,
      "inputs": [
        {
          "name": "authorgAddress",
          "type": "address"
        },
        {
          "name": "bioRevision",
          "type": "bytes32"
        },
        {
          "name": "reaction",
          "type": "bytes32"
        }
      ],
      "name": "submitAuthorgReaction",
      "outputs": [],
      "payable": false,
      "stateMutability": "nonpayable",
      "type": "function"
    },
    {
      "constant": true,
      "inputs": [
        {
          "name": "authorg",
          "type": "address"
        },
        {
          "name": "submission",
          "type": "uint256"
        },
        {
          "name": "revision",
          "type": "bytes32"
        },
        {
          "name": "reaction",
          "type": "bytes32"
        }
      ],
      "name": "getReactorsForAuthorgRevisionReaction",
      "outputs": [
        {
          "name": "",
          "type": "address[]"
        },
        {
          "name": "",
          "type": "uint256[]"
        }
      ],
      "payable": false,
      "stateMutability": "view",
      "type": "function"
    },
    {
      "constant": true,
      "inputs": [],
      "name": "getApprovedReactions",
      "outputs": [
        {
          "name": "hashes",
          "type": "bytes32[]"
        }
      ],
      "payable": false,
      "stateMutability": "view",
      "type": "function"
    },
    {
      "constant": true,
      "inputs": [
        {
          "name": "",
          "type": "uint256"
        }
      ],
      "name": "approved_authorg_reactions",
      "outputs": [
        {
          "name": "",
          "type": "bytes32"
        }
      ],
      "payable": false,
      "stateMutability": "view",
      "type": "function"
    },
    {
      "constant": true,
      "inputs": [
        {
          "name": "authorg",
          "type": "address"
        },
        {
          "name": "bioRevision",
          "type": "bytes32"
        },
        {
          "name": "reaction",
          "type": "bytes32"
        }
      ],
      "name": "getReactorsCountForAuthorg",
      "outputs": [
        {
          "name": "",
          "type": "uint256"
        }
      ],
      "payable": false,
      "stateMutability": "view",
      "type": "function"
    },
    {
      "constant": true,
      "inputs": [
        {
          "name": "",
          "type": "address"
        },
        {
          "name": "",
          "type": "uint256"
        }
      ],
      "name": "authorgToFollowing",
      "outputs": [
        {
          "name": "",
          "type": "address"
        }
      ],
      "payable": false,
      "stateMutability": "view",
      "type": "function"
    },
    {
      "inputs": [],
      "payable": false,
      "stateMutability": "nonpayable",
      "type": "constructor"
    },
    {
      "anonymous": false,
      "inputs": [
        {
          "indexed": true,
          "name": "_postAuthorg",
          "type": "address"
        },
        {
          "indexed": true,
          "name": "_postSubmission",
          "type": "uint256"
        },
        {
          "indexed": true,
          "name": "_postRevision",
          "type": "bytes32"
        }
      ],
      "name": "ReactionRecorded",
      "type": "event"
    },
    {
      "anonymous": false,
      "inputs": [
        {
          "indexed": true,
          "name": "_authorg",
          "type": "address"
        }
      ],
      "name": "AuthorgReactionRecorded",
      "type": "event"
    },
    {
      "anonymous": false,
      "inputs": [
        {
          "indexed": true,
          "name": "_followedAuthorg",
          "type": "address"
        },
        {
          "indexed": true,
          "name": "_follower",
          "type": "address"
        }
      ],
      "name": "AuthorgFollowed",
      "type": "event"
    }
  ],
  "bytecode": "0x6060604052341561000f57600080fd5b611b408061001e6000396000f3006060604052600436106100f1576000357c0100000000000000000000000000000000000000000000000000000000900463ffffffff1680631a5241bf146100f65780632750dc98146101605780634dbf27cc146101d0578063531499a4146102095780635e5d17511461028b578063877136c5146102b25780639982e558146102f1578063c2fe2022146103e1578063cfda2da11461046f578063d23c470e14610496578063d8ab8a4d14610524578063d8c2441c14610580578063e2107442146105d3578063e4b4d874146106cc578063e544b41b14610736578063ed8c375a14610775578063f0ed775a146107dc575b600080fd5b341561010157600080fd5b61010961085e565b6040518080602001828103825283818151815260200191508051906020019060200280838360005b8381101561014c578082015181840152602081019050610131565b505050509050019250505060405180910390f35b341561016b57600080fd5b6101ba600480803573ffffffffffffffffffffffffffffffffffffffff1690602001909190803590602001909190803560001916906020019091908035600019169060200190919050506108c0565b6040518082815260200191505060405180910390f35b34156101db57600080fd5b610207600480803573ffffffffffffffffffffffffffffffffffffffff16906020019091905050610993565b005b341561021457600080fd5b610249600480803573ffffffffffffffffffffffffffffffffffffffff16906020019091908035906020019091905050610b2f565b604051808273ffffffffffffffffffffffffffffffffffffffff1673ffffffffffffffffffffffffffffffffffffffff16815260200191505060405180910390f35b341561029657600080fd5b6102b0600480803560001916906020019091905050610b7d565b005b34156102bd57600080fd5b6102d36004808035906020019091905050610be3565b60405180826000191660001916815260200191505060405180910390f35b34156102fc57600080fd5b610342600480803573ffffffffffffffffffffffffffffffffffffffff169060200190919080356000191690602001909190803560001916906020019091905050610c07565b604051808060200180602001838103835285818151815260200191508051906020019060200280838360005b8381101561038957808201518184015260208101905061036e565b50505050905001838103825284818151815260200191508051906020019060200280838360005b838110156103cb5780820151818401526020810190506103b0565b5050505090500194505050505060405180910390f35b34156103ec57600080fd5b610418600480803573ffffffffffffffffffffffffffffffffffffffff16906020019091905050610e69565b6040518080602001828103825283818151815260200191508051906020019060200280838360005b8381101561045b578082015181840152602081019050610440565b505050509050019250505060405180910390f35b341561047a57600080fd5b610494600480803560001916906020019091905050610f3c565b005b34156104a157600080fd5b6104cd600480803573ffffffffffffffffffffffffffffffffffffffff16906020019091905050610fa2565b6040518080602001828103825283818151815260200191508051906020019060200280838360005b838110156105105780820151818401526020810190506104f5565b505050509050019250505060405180910390f35b341561052f57600080fd5b61057e600480803573ffffffffffffffffffffffffffffffffffffffff169060200190919080359060200190919080356000191690602001909190803560001916906020019091905050611074565b005b341561058b57600080fd5b6105d1600480803573ffffffffffffffffffffffffffffffffffffffff169060200190919080356000191690602001909190803560001916906020019091905050611314565b005b34156105de57600080fd5b61062d600480803573ffffffffffffffffffffffffffffffffffffffff1690602001909190803590602001909190803560001916906020019091908035600019169060200190919050506115ed565b604051808060200180602001838103835285818151815260200191508051906020019060200280838360005b83811015610674578082015181840152602081019050610659565b50505050905001838103825284818151815260200191508051906020019060200280838360005b838110156106b657808201518184015260208101905061069b565b5050505090500194505050505060405180910390f35b34156106d757600080fd5b6106df611878565b6040518080602001828103825283818151815260200191508051906020019060200280838360005b83811015610722578082015181840152602081019050610707565b505050509050019250505060405180910390f35b341561074157600080fd5b61075760048080359060200190919050506118da565b60405180826000191660001916815260200191505060405180910390f35b341561078057600080fd5b6107c6600480803573ffffffffffffffffffffffffffffffffffffffff1690602001909190803560001916906020019091908035600019169060200190919050506118fe565b6040518082815260200191505060405180910390f35b34156107e757600080fd5b61081c600480803573ffffffffffffffffffffffffffffffffffffffff169060200190919080359060200190919050506119bc565b604051808273ffffffffffffffffffffffffffffffffffffffff1673ffffffffffffffffffffffffffffffffffffffff16815260200191505060405180910390f35b610866611a0a565b60058054806020026020016040519081016040528092919081815260200182805480156108b657602002820191906000526020600020905b8154600019168152602001906001019080831161089e575b5050505050905090565b600060046000836000191660001916815260200190815260200160002060009054906101000a900460ff161561098657600260008673ffffffffffffffffffffffffffffffffffffffff1673ffffffffffffffffffffffffffffffffffffffff1681526020019081526020016000206000016000858152602001908152602001600020600001600084600019166000191681526020019081526020016000206001016000836000191660001916815260200190815260200160002080549050905061098b565b600090505b949350505050565b6000803373ffffffffffffffffffffffffffffffffffffffff1673ffffffffffffffffffffffffffffffffffffffff16815260200190815260200160002080548060010182816109e39190611a1e565b9160005260206000209001600083909190916101000a81548173ffffffffffffffffffffffffffffffffffffffff021916908373ffffffffffffffffffffffffffffffffffffffff16021790555050600160008273ffffffffffffffffffffffffffffffffffffffff1673ffffffffffffffffffffffffffffffffffffffff1681526020019081526020016000208054806001018281610a839190611a1e565b9160005260206000209001600033909190916101000a81548173ffffffffffffffffffffffffffffffffffffffff021916908373ffffffffffffffffffffffffffffffffffffffff160217905550503373ffffffffffffffffffffffffffffffffffffffff168173ffffffffffffffffffffffffffffffffffffffff167f5314b747da9cd87a2fa6be01135307e94a283a3fcba51073963d981e1a571de160405160405180910390a350565b600160205281600052604060002081815481101515610b4a57fe5b90600052602060002090016000915091509054906101000a900473ffffffffffffffffffffffffffffffffffffffff1681565b600160066000836000191660001916815260200190815260200160002060006101000a81548160ff02191690831515021790555060058054806001018281610bc59190611a4a565b91600052602060002090016000839091909150906000191690555050565b600381815481101515610bf257fe5b90600052602060002090016000915090505481565b610c0f611a76565b610c17611a8a565b60066000846000191660001916815260200190815260200160002060009054906101000a900460ff1615610e1657600260008673ffffffffffffffffffffffffffffffffffffffff1673ffffffffffffffffffffffffffffffffffffffff1681526020019081526020016000206001016000856000191660001916815260200190815260200160002060010160008460001916600019168152602001908152602001600020600260008773ffffffffffffffffffffffffffffffffffffffff1673ffffffffffffffffffffffffffffffffffffffff168152602001908152602001600020600101600086600019166000191681526020019081526020016000206002016000856000191660001916815260200190815260200160002081805480602002602001604051908101604052809291908181526020018280548015610db457602002820191906000526020600020905b8160009054906101000a900473ffffffffffffffffffffffffffffffffffffffff1673ffffffffffffffffffffffffffffffffffffffff1681526020019060010190808311610d6a575b5050505050915080805480602002602001604051908101604052809291908181526020018280548015610e0657602002820191906000526020600020905b815481526020019060010190808311610df2575b5050505050905091509150610e61565b6000604051805910610e255750595b90808252806020026020018201604052506000604051805910610e455750595b9080825280602002602001820160405250819150809050915091505b935093915050565b610e71611a76565b600160008373ffffffffffffffffffffffffffffffffffffffff1673ffffffffffffffffffffffffffffffffffffffff168152602001908152602001600020805480602002602001604051908101604052809291908181526020018280548015610f3057602002820191906000526020600020905b8160009054906101000a900473ffffffffffffffffffffffffffffffffffffffff1673ffffffffffffffffffffffffffffffffffffffff1681526020019060010190808311610ee6575b50505050509050919050565b600160046000836000191660001916815260200190815260200160002060006101000a81548160ff02191690831515021790555060038054806001018281610f849190611a4a565b91600052602060002090016000839091909150906000191690555050565b610faa611a76565b6000808373ffffffffffffffffffffffffffffffffffffffff1673ffffffffffffffffffffffffffffffffffffffff16815260200190815260200160002080548060200260200160405190810160405280929190818152602001828054801561106857602002820191906000526020600020905b8160009054906101000a900473ffffffffffffffffffffffffffffffffffffffff1673ffffffffffffffffffffffffffffffffffffffff168152602001906001019080831161101e575b50505050509050919050565b600060046000836000191660001916815260200190815260200160002060009054906101000a900460ff1615156110aa57600080fd5b600260008673ffffffffffffffffffffffffffffffffffffffff1673ffffffffffffffffffffffffffffffffffffffff1681526020019081526020016000206000016000858152602001908152602001600020600001600084600019166000191681526020019081526020016000209050806000016000836000191660001916815260200190815260200160002060003373ffffffffffffffffffffffffffffffffffffffff1673ffffffffffffffffffffffffffffffffffffffff16815260200190815260200160002060009054906101000a900460ff1615151561118f57600080fd5b806001016000836000191660001916815260200190815260200160002080548060010182816111be9190611a1e565b9160005260206000209001600033909190916101000a81548173ffffffffffffffffffffffffffffffffffffffff021916908373ffffffffffffffffffffffffffffffffffffffff160217905550508060020160008360001916600019168152602001908152602001600020805480600101828161123c9190611a9e565b9160005260206000209001600042909190915055506001816000016000846000191660001916815260200190815260200160002060003373ffffffffffffffffffffffffffffffffffffffff1673ffffffffffffffffffffffffffffffffffffffff16815260200190815260200160002060006101000a81548160ff0219169083151502179055508260001916848673ffffffffffffffffffffffffffffffffffffffff167fff6ce3b5c954a34ec3d3edfdc855ad1f0f0ea6a56cccab592f848b8e04a89bc760405160405180910390a45050505050565b600060066000836000191660001916815260200190815260200160002060009054906101000a900460ff16151561134a57600080fd5b600260008573ffffffffffffffffffffffffffffffffffffffff1673ffffffffffffffffffffffffffffffffffffffff168152602001908152602001600020905080600101600084600019166000191681526020019081526020016000206000016000836000191660001916815260200190815260200160002060003373ffffffffffffffffffffffffffffffffffffffff1673ffffffffffffffffffffffffffffffffffffffff16815260200190815260200160002060009054906101000a900460ff1615151561141b57600080fd5b80600101600084600019166000191681526020019081526020016000206001016000836000191660001916815260200190815260200160002080548060010182816114669190611a1e565b9160005260206000209001600033909190916101000a81548173ffffffffffffffffffffffffffffffffffffffff021916908373ffffffffffffffffffffffffffffffffffffffff1602179055505080600101600084600019166000191681526020019081526020016000206002016000836000191660001916815260200190815260200160002080548060010182816115009190611a9e565b916000526020600020900160004290919091505550600181600101600085600019166000191681526020019081526020016000206000016000846000191660001916815260200190815260200160002060003373ffffffffffffffffffffffffffffffffffffffff1673ffffffffffffffffffffffffffffffffffffffff16815260200190815260200160002060006101000a81548160ff0219169083151502179055508373ffffffffffffffffffffffffffffffffffffffff167f1081d5534d7a744bc1ce887d944592e53474419705b20ac41c1d3942b62fe7ff60405160405180910390a250505050565b6115f5611a76565b6115fd611a8a565b60046000846000191660001916815260200190815260200160002060009054906101000a900460ff161561182457600260008773ffffffffffffffffffffffffffffffffffffffff1673ffffffffffffffffffffffffffffffffffffffff16815260200190815260200160002060000160008681526020019081526020016000206000016000856000191660001916815260200190815260200160002060010160008460001916600019168152602001908152602001600020600260008873ffffffffffffffffffffffffffffffffffffffff1673ffffffffffffffffffffffffffffffffffffffff16815260200190815260200160002060000160008781526020019081526020016000206000016000866000191660001916815260200190815260200160002060020160008560001916600019168152602001908152602001600020818054806020026020016040519081016040528092919081815260200182805480156117c257602002820191906000526020600020905b8160009054906101000a900473ffffffffffffffffffffffffffffffffffffffff1673ffffffffffffffffffffffffffffffffffffffff1681526020019060010190808311611778575b505050505091508080548060200260200160405190810160405280929190818152602001828054801561181457602002820191906000526020600020905b815481526020019060010190808311611800575b505050505090509150915061186f565b60006040518059106118335750595b908082528060200260200182016040525060006040518059106118535750595b9080825280602002602001820160405250819150809050915091505b94509492505050565b611880611a0a565b60038054806020026020016040519081016040528092919081815260200182805480156118d057602002820191906000526020600020905b815460001916815260200190600101908083116118b8575b5050505050905090565b6005818154811015156118e957fe5b90600052602060002090016000915090505481565b600060066000836000191660001916815260200190815260200160002060009054906101000a900460ff16156119b057600260008573ffffffffffffffffffffffffffffffffffffffff1673ffffffffffffffffffffffffffffffffffffffff16815260200190815260200160002060010160008460001916600019168152602001908152602001600020600101600083600019166000191681526020019081526020016000208054905090506119b5565b600090505b9392505050565b6000602052816000526040600020818154811015156119d757fe5b90600052602060002090016000915091509054906101000a900473ffffffffffffffffffffffffffffffffffffffff1681565b602060405190810160405280600081525090565b815481835581811511611a4557818360005260206000209182019101611a449190611aca565b5b505050565b815481835581811511611a7157818360005260206000209182019101611a709190611aef565b5b505050565b602060405190810160405280600081525090565b602060405190810160405280600081525090565b815481835581811511611ac557818360005260206000209182019101611ac49190611aca565b5b505050565b611aec91905b80821115611ae8576000816000905550600101611ad0565b5090565b90565b611b1191905b80821115611b0d576000816000905550600101611af5565b5090565b905600a165627a7a72305820f00273a7bcb97f6f1acbf986287b5a07af56f82af0419b8d2908a5ddea0d39680029",
  "source": "pragma solidity ^0.4.13;\n\ncontract Citadel {\n\n    event ReactionRecorded(address indexed _postAuthorg, uint indexed _postSubmission, bytes32 indexed _postRevision);\n    event AuthorgReactionRecorded(address indexed _authorg);\n    event AuthorgFollowed(address indexed _followedAuthorg, address indexed _follower);\n\n    function Citadel() {\n    }\n\n    // citadel has some follower stuff\n    mapping(address => address[]) public authorgToFollowing; \n    mapping(address => address[]) public authorgToFollowers;\n\n    function follow(address authorgToFollow) {\n        authorgToFollowing[msg.sender].push(authorgToFollow);\n        authorgToFollowers[authorgToFollow].push(msg.sender);\n        AuthorgFollowed(authorgToFollow, msg.sender);\n    }\n\n    // and some reaction stuff  \n    struct InkAuthorgExtension {\n        mapping(uint => InkSubmissionExtension) submissions;\n        mapping(bytes32 => InkBioRevisionExtension) bioRevisions;\n    } \n\n    struct InkBioRevisionExtension {\n        mapping(bytes32 => mapping(address => bool)) hasReactorReacted;\n        mapping(bytes32 => address[]) reactionToReactors;\n        mapping(bytes32 => uint[]) reactionToReactorsTimestamps;\n    }\n\n    struct InkSubmissionExtension {\n        mapping(bytes32 => InkRevisionExtension) revisions;\n    }\n\n    struct InkRevisionExtension {\n        mapping(bytes32 => mapping(address => bool)) hasReactorReacted;\n        mapping(bytes32 => address[]) reactionToReactors;\n        mapping(bytes32 => uint[]) reactionToReactorsTimestamps;\n    }           \n\n    mapping(address => InkAuthorgExtension) authorgExtensionMap;\n    bytes32[] public approved_reactions;\n    mapping(bytes32 => bool) reaction_approved;\n    bytes32[] public approved_authorg_reactions;\n    mapping(bytes32 => bool) authorg_reaction_approved;\n    \n    function getApprovedReactions() constant returns (bytes32[] hashes) {\n        return approved_reactions;\n    }\n\n    function getApprovedAuthorgReactions() constant returns (bytes32[] hashes) {\n        return approved_authorg_reactions;\n    }\n\n    function addApprovedReaction(bytes32 reaction) {\n        reaction_approved[reaction] = true;\n        approved_reactions.push(reaction);\n    }\n\n    function addApprovedAuthorgReaction(bytes32 reaction) {\n        authorg_reaction_approved[reaction] = true;\n        approved_authorg_reactions.push(reaction);\n    }\n\n    function getFollowedUsers(address authorg) constant returns (address[] followedUsers) {\n        return authorgToFollowing[authorg];\n    }\n\n    function getFollowers(address authorg) constant returns (address[] followers) {\n        return authorgToFollowers[authorg];\n    }\n     \n\n    function getReactorsForAuthorgRevisionReaction(address authorg, uint submission, bytes32 revision, bytes32 reaction) constant returns (address[], uint[]) {\n        if (reaction_approved[reaction]) {\n            return (authorgExtensionMap[authorg].submissions[submission].revisions[revision].reactionToReactors[reaction],\n                    authorgExtensionMap[authorg].submissions[submission].revisions[revision].reactionToReactorsTimestamps[reaction]\n            );\n        } else {\n            return (new address[](0), new uint[](0));\n        }\n    }\n\n    function getReactorsCountForAuthorgRevisionReaction(address authorg, uint submission, bytes32 revision, bytes32 reaction) constant returns (uint) {\n        if (reaction_approved[reaction]) {\n            return authorgExtensionMap[authorg].submissions[submission].revisions[revision].reactionToReactors[reaction].length;\n        } else {\n            return 0;\n        }\n    }    \n    \n    function submitReaction(address authorgAddress, uint subCitadelManifestHash, bytes32 revCitadelManifestHash, bytes32 reaction) {\n        require(reaction_approved[reaction]);\n        InkRevisionExtension rev = authorgExtensionMap[authorgAddress].submissions[subCitadelManifestHash].revisions[revCitadelManifestHash];\n        \n        require(!rev.hasReactorReacted[reaction][msg.sender]);\n        \n        \n        rev.reactionToReactors[reaction].push(msg.sender);\n        rev.reactionToReactorsTimestamps[reaction].push(block.timestamp);\n        rev.hasReactorReacted[reaction][msg.sender] = true;\n\n        ReactionRecorded(authorgAddress, subCitadelManifestHash, revCitadelManifestHash); \n    \n    }  \n\n    function getReactorsForAuthorgBio(address authorg, bytes32 bioRevision, bytes32 reaction) constant returns (address[], uint[]) {\n        if (authorg_reaction_approved[reaction]) {\n            return (authorgExtensionMap[authorg].bioRevisions[bioRevision].reactionToReactors[reaction],\n                    authorgExtensionMap[authorg].bioRevisions[bioRevision].reactionToReactorsTimestamps[reaction]\n            );\n        } else {\n            return (new address[](0), new uint[](0));\n        }\n    }\n\n    function getReactorsCountForAuthorg(address authorg, bytes32 bioRevision, bytes32 reaction) constant returns (uint) {\n        if (authorg_reaction_approved[reaction]) {\n            return authorgExtensionMap[authorg].bioRevisions[bioRevision].reactionToReactors[reaction].length;\n        } else {\n            return 0;\n        }\n    }\n\n    function submitAuthorgReaction(address authorgAddress, bytes32 bioRevision, bytes32 reaction) {\n        require(authorg_reaction_approved[reaction]);\n        InkAuthorgExtension auth = authorgExtensionMap[authorgAddress];\n        \n        require(!auth.bioRevisions[bioRevision].hasReactorReacted[reaction][msg.sender]);\n        \n        auth.bioRevisions[bioRevision].reactionToReactors[reaction].push(msg.sender);\n        auth.bioRevisions[bioRevision].reactionToReactorsTimestamps[reaction].push(block.timestamp);\n\n        auth.bioRevisions[bioRevision].hasReactorReacted[reaction][msg.sender] = true;\n        AuthorgReactionRecorded(authorgAddress);         \n    }\n}",
  "sourcePath": "/home/nort7/Ethereum/citadao/src/app-contracts/contracts/Citadel.sol",
  "compiler": {
    "name": "solc",
    "version": "0.4.18+commit.9cf6e910.Emscripten.clang"
  },
  "schemaVersion": "1.0.1",
  "updatedAt": "2017-12-07T23:41:45.235Z"
}