{
  "contractName": "Citadel",
  "abi": [
    {
      "constant": true,
      "inputs": [],
      "name": "getApprovedAuthorgReactions",
      "outputs": [
        {
          "name": "hashes",
          "type": "bytes32[]"
        }
      ],
      "payable": false,
      "stateMutability": "view",
      "type": "function"
    },
    {
      "constant": false,
      "inputs": [
        {
          "name": "authorgToFollow",
          "type": "address"
        }
      ],
      "name": "follow",
      "outputs": [],
      "payable": false,
      "stateMutability": "nonpayable",
      "type": "function"
    },
    {
      "constant": true,
      "inputs": [
        {
          "name": "",
          "type": "address"
        },
        {
          "name": "",
          "type": "uint256"
        }
      ],
      "name": "authorgToFollowers",
      "outputs": [
        {
          "name": "",
          "type": "address"
        }
      ],
      "payable": false,
      "stateMutability": "view",
      "type": "function"
    },
    {
      "constant": false,
      "inputs": [
        {
          "name": "reaction",
          "type": "bytes32"
        }
      ],
      "name": "addApprovedAuthorgReaction",
      "outputs": [],
      "payable": false,
      "stateMutability": "nonpayable",
      "type": "function"
    },
    {
      "constant": true,
      "inputs": [
        {
          "name": "",
          "type": "uint256"
        }
      ],
      "name": "approved_reactions",
      "outputs": [
        {
          "name": "",
          "type": "bytes32"
        }
      ],
      "payable": false,
      "stateMutability": "view",
      "type": "function"
    },
    {
      "constant": true,
      "inputs": [
        {
          "name": "authorg",
          "type": "address"
        },
        {
          "name": "bioRevision",
          "type": "bytes32"
        },
        {
          "name": "reaction",
          "type": "bytes32"
        }
      ],
      "name": "getReactorsForAuthorgBio",
      "outputs": [
        {
          "name": "",
          "type": "address[]"
        },
        {
          "name": "",
          "type": "uint256[]"
        }
      ],
      "payable": false,
      "stateMutability": "view",
      "type": "function"
    },
    {
      "constant": true,
      "inputs": [
        {
          "name": "authorg",
          "type": "address"
        }
      ],
      "name": "getFollowers",
      "outputs": [
        {
          "name": "followers",
          "type": "address[]"
        }
      ],
      "payable": false,
      "stateMutability": "view",
      "type": "function"
    },
    {
      "constant": true,
      "inputs": [
        {
          "name": "authorg",
          "type": "address"
        },
        {
          "name": "submission",
          "type": "bytes32"
        },
        {
          "name": "revision",
          "type": "bytes32"
        },
        {
          "name": "reaction",
          "type": "bytes32"
        }
      ],
      "name": "getReactorsForAuthorgRevisionReaction",
      "outputs": [
        {
          "name": "",
          "type": "address[]"
        },
        {
          "name": "",
          "type": "uint256[]"
        }
      ],
      "payable": false,
      "stateMutability": "view",
      "type": "function"
    },
    {
      "constant": false,
      "inputs": [
        {
          "name": "reaction",
          "type": "bytes32"
        }
      ],
      "name": "addApprovedReaction",
      "outputs": [],
      "payable": false,
      "stateMutability": "nonpayable",
      "type": "function"
    },
    {
      "constant": true,
      "inputs": [
        {
          "name": "authorg",
          "type": "address"
        }
      ],
      "name": "getFollowedUsers",
      "outputs": [
        {
          "name": "followedUsers",
          "type": "address[]"
        }
      ],
      "payable": false,
      "stateMutability": "view",
      "type": "function"
    },
    {
      "constant": true,
      "inputs": [
        {
          "name": "authorg",
          "type": "address"
        },
        {
          "name": "submission",
          "type": "bytes32"
        },
        {
          "name": "revision",
          "type": "bytes32"
        },
        {
          "name": "reaction",
          "type": "bytes32"
        }
      ],
      "name": "getReactorsCountForAuthorgRevisionReaction",
      "outputs": [
        {
          "name": "",
          "type": "uint256"
        }
      ],
      "payable": false,
      "stateMutability": "view",
      "type": "function"
    },
    {
      "constant": false,
      "inputs": [
        {
          "name": "authorgAddress",
          "type": "address"
        },
        {
          "name": "bioRevision",
          "type": "bytes32"
        },
        {
          "name": "reaction",
          "type": "bytes32"
        }
      ],
      "name": "submitAuthorgReaction",
      "outputs": [],
      "payable": false,
      "stateMutability": "nonpayable",
      "type": "function"
    },
    {
      "constant": false,
      "inputs": [
        {
          "name": "authorgAddress",
          "type": "address"
        },
        {
          "name": "subCitadelManifestHash",
          "type": "bytes32"
        },
        {
          "name": "revCitadelManifestHash",
          "type": "bytes32"
        },
        {
          "name": "reaction",
          "type": "bytes32"
        }
      ],
      "name": "submitReaction",
      "outputs": [],
      "payable": false,
      "stateMutability": "nonpayable",
      "type": "function"
    },
    {
      "constant": true,
      "inputs": [],
      "name": "getApprovedReactions",
      "outputs": [
        {
          "name": "hashes",
          "type": "bytes32[]"
        }
      ],
      "payable": false,
      "stateMutability": "view",
      "type": "function"
    },
    {
      "constant": true,
      "inputs": [
        {
          "name": "",
          "type": "uint256"
        }
      ],
      "name": "approved_authorg_reactions",
      "outputs": [
        {
          "name": "",
          "type": "bytes32"
        }
      ],
      "payable": false,
      "stateMutability": "view",
      "type": "function"
    },
    {
      "constant": true,
      "inputs": [
        {
          "name": "authorg",
          "type": "address"
        },
        {
          "name": "bioRevision",
          "type": "bytes32"
        },
        {
          "name": "reaction",
          "type": "bytes32"
        }
      ],
      "name": "getReactorsCountForAuthorg",
      "outputs": [
        {
          "name": "",
          "type": "uint256"
        }
      ],
      "payable": false,
      "stateMutability": "view",
      "type": "function"
    },
    {
      "constant": true,
      "inputs": [
        {
          "name": "",
          "type": "address"
        },
        {
          "name": "",
          "type": "uint256"
        }
      ],
      "name": "authorgToFollowing",
      "outputs": [
        {
          "name": "",
          "type": "address"
        }
      ],
      "payable": false,
      "stateMutability": "view",
      "type": "function"
    },
    {
      "inputs": [],
      "payable": false,
      "stateMutability": "nonpayable",
      "type": "constructor"
    },
    {
      "anonymous": false,
      "inputs": [
        {
          "indexed": true,
          "name": "_postAuthorg",
          "type": "address"
        },
        {
          "indexed": true,
          "name": "_postSubmission",
          "type": "bytes32"
        },
        {
          "indexed": true,
          "name": "_postRevision",
          "type": "bytes32"
        }
      ],
      "name": "ReactionRecorded",
      "type": "event"
    },
    {
      "anonymous": false,
      "inputs": [
        {
          "indexed": true,
          "name": "_authorg",
          "type": "address"
        }
      ],
      "name": "AuthorgReactionRecorded",
      "type": "event"
    },
    {
      "anonymous": false,
      "inputs": [
        {
          "indexed": true,
          "name": "_followedAuthorg",
          "type": "address"
        },
        {
          "indexed": true,
          "name": "_follower",
          "type": "address"
        }
      ],
      "name": "AuthorgFollowed",
      "type": "event"
    }
  ],
  "bytecode": "0x6060604052341561000f57600080fd5b611b708061001e6000396000f3006060604052600436106100f1576000357c0100000000000000000000000000000000000000000000000000000000900463ffffffff1680631a5241bf146100f65780634dbf27cc14610160578063531499a4146101995780635e5d17511461021b578063877136c5146102425780639982e55814610281578063c2fe202214610371578063cdb0037b146103ff578063cfda2da1146104fc578063d23c470e14610523578063d2c0f41d146105b1578063d8c2441c14610625578063deeea09814610678578063e4b4d874146106d8578063e544b41b14610742578063ed8c375a14610781578063f0ed775a146107e8575b600080fd5b341561010157600080fd5b61010961086a565b6040518080602001828103825283818151815260200191508051906020019060200280838360005b8381101561014c578082015181840152602081019050610131565b505050509050019250505060405180910390f35b341561016b57600080fd5b610197600480803573ffffffffffffffffffffffffffffffffffffffff169060200190919050506108cc565b005b34156101a457600080fd5b6101d9600480803573ffffffffffffffffffffffffffffffffffffffff16906020019091908035906020019091905050610a68565b604051808273ffffffffffffffffffffffffffffffffffffffff1673ffffffffffffffffffffffffffffffffffffffff16815260200191505060405180910390f35b341561022657600080fd5b610240600480803560001916906020019091905050610ab6565b005b341561024d57600080fd5b6102636004808035906020019091905050610b1c565b60405180826000191660001916815260200191505060405180910390f35b341561028c57600080fd5b6102d2600480803573ffffffffffffffffffffffffffffffffffffffff169060200190919080356000191690602001909190803560001916906020019091905050610b40565b604051808060200180602001838103835285818151815260200191508051906020019060200280838360005b838110156103195780820151818401526020810190506102fe565b50505050905001838103825284818151815260200191508051906020019060200280838360005b8381101561035b578082015181840152602081019050610340565b5050505090500194505050505060405180910390f35b341561037c57600080fd5b6103a8600480803573ffffffffffffffffffffffffffffffffffffffff16906020019091905050610da2565b6040518080602001828103825283818151815260200191508051906020019060200280838360005b838110156103eb5780820151818401526020810190506103d0565b505050509050019250505060405180910390f35b341561040a57600080fd5b61045d600480803573ffffffffffffffffffffffffffffffffffffffff16906020019091908035600019169060200190919080356000191690602001909190803560001916906020019091905050610e75565b604051808060200180602001838103835285818151815260200191508051906020019060200280838360005b838110156104a4578082015181840152602081019050610489565b50505050905001838103825284818151815260200191508051906020019060200280838360005b838110156104e65780820151818401526020810190506104cb565b5050505090500194505050505060405180910390f35b341561050757600080fd5b610521600480803560001916906020019091905050611110565b005b341561052e57600080fd5b61055a600480803573ffffffffffffffffffffffffffffffffffffffff16906020019091905050611176565b6040518080602001828103825283818151815260200191508051906020019060200280838360005b8381101561059d578082015181840152602081019050610582565b505050509050019250505060405180910390f35b34156105bc57600080fd5b61060f600480803573ffffffffffffffffffffffffffffffffffffffff16906020019091908035600019169060200190919080356000191690602001909190803560001916906020019091905050611248565b6040518082815260200191505060405180910390f35b341561063057600080fd5b610676600480803573ffffffffffffffffffffffffffffffffffffffff169060200190919080356000191690602001909190803560001916906020019091905050611323565b005b341561068357600080fd5b6106d6600480803573ffffffffffffffffffffffffffffffffffffffff169060200190919080356000191690602001909190803560001916906020019091908035600019169060200190919050506115fc565b005b34156106e357600080fd5b6106eb6118a8565b6040518080602001828103825283818151815260200191508051906020019060200280838360005b8381101561072e578082015181840152602081019050610713565b505050509050019250505060405180910390f35b341561074d57600080fd5b610763600480803590602001909190505061190a565b60405180826000191660001916815260200191505060405180910390f35b341561078c57600080fd5b6107d2600480803573ffffffffffffffffffffffffffffffffffffffff16906020019091908035600019169060200190919080356000191690602001909190505061192e565b6040518082815260200191505060405180910390f35b34156107f357600080fd5b610828600480803573ffffffffffffffffffffffffffffffffffffffff169060200190919080359060200190919050506119ec565b604051808273ffffffffffffffffffffffffffffffffffffffff1673ffffffffffffffffffffffffffffffffffffffff16815260200191505060405180910390f35b610872611a3a565b60058054806020026020016040519081016040528092919081815260200182805480156108c257602002820191906000526020600020905b815460001916815260200190600101908083116108aa575b5050505050905090565b6000803373ffffffffffffffffffffffffffffffffffffffff1673ffffffffffffffffffffffffffffffffffffffff168152602001908152602001600020805480600101828161091c9190611a4e565b9160005260206000209001600083909190916101000a81548173ffffffffffffffffffffffffffffffffffffffff021916908373ffffffffffffffffffffffffffffffffffffffff16021790555050600160008273ffffffffffffffffffffffffffffffffffffffff1673ffffffffffffffffffffffffffffffffffffffff16815260200190815260200160002080548060010182816109bc9190611a4e565b9160005260206000209001600033909190916101000a81548173ffffffffffffffffffffffffffffffffffffffff021916908373ffffffffffffffffffffffffffffffffffffffff160217905550503373ffffffffffffffffffffffffffffffffffffffff168173ffffffffffffffffffffffffffffffffffffffff167f5314b747da9cd87a2fa6be01135307e94a283a3fcba51073963d981e1a571de160405160405180910390a350565b600160205281600052604060002081815481101515610a8357fe5b90600052602060002090016000915091509054906101000a900473ffffffffffffffffffffffffffffffffffffffff1681565b600160066000836000191660001916815260200190815260200160002060006101000a81548160ff02191690831515021790555060058054806001018281610afe9190611a7a565b91600052602060002090016000839091909150906000191690555050565b600381815481101515610b2b57fe5b90600052602060002090016000915090505481565b610b48611aa6565b610b50611aba565b60066000846000191660001916815260200190815260200160002060009054906101000a900460ff1615610d4f57600260008673ffffffffffffffffffffffffffffffffffffffff1673ffffffffffffffffffffffffffffffffffffffff1681526020019081526020016000206001016000856000191660001916815260200190815260200160002060010160008460001916600019168152602001908152602001600020600260008773ffffffffffffffffffffffffffffffffffffffff1673ffffffffffffffffffffffffffffffffffffffff168152602001908152602001600020600101600086600019166000191681526020019081526020016000206002016000856000191660001916815260200190815260200160002081805480602002602001604051908101604052809291908181526020018280548015610ced57602002820191906000526020600020905b8160009054906101000a900473ffffffffffffffffffffffffffffffffffffffff1673ffffffffffffffffffffffffffffffffffffffff1681526020019060010190808311610ca3575b5050505050915080805480602002602001604051908101604052809291908181526020018280548015610d3f57602002820191906000526020600020905b815481526020019060010190808311610d2b575b5050505050905091509150610d9a565b6000604051805910610d5e5750595b90808252806020026020018201604052506000604051805910610d7e5750595b9080825280602002602001820160405250819150809050915091505b935093915050565b610daa611aa6565b600160008373ffffffffffffffffffffffffffffffffffffffff1673ffffffffffffffffffffffffffffffffffffffff168152602001908152602001600020805480602002602001604051908101604052809291908181526020018280548015610e6957602002820191906000526020600020905b8160009054906101000a900473ffffffffffffffffffffffffffffffffffffffff1673ffffffffffffffffffffffffffffffffffffffff1681526020019060010190808311610e1f575b50505050509050919050565b610e7d611aa6565b610e85611aba565b60046000846000191660001916815260200190815260200160002060009054906101000a900460ff16156110bc57600260008773ffffffffffffffffffffffffffffffffffffffff1673ffffffffffffffffffffffffffffffffffffffff168152602001908152602001600020600001600086600019166000191681526020019081526020016000206000016000856000191660001916815260200190815260200160002060010160008460001916600019168152602001908152602001600020600260008873ffffffffffffffffffffffffffffffffffffffff1673ffffffffffffffffffffffffffffffffffffffff1681526020019081526020016000206000016000876000191660001916815260200190815260200160002060000160008660001916600019168152602001908152602001600020600201600085600019166000191681526020019081526020016000208180548060200260200160405190810160405280929190818152602001828054801561105a57602002820191906000526020600020905b8160009054906101000a900473ffffffffffffffffffffffffffffffffffffffff1673ffffffffffffffffffffffffffffffffffffffff1681526020019060010190808311611010575b50505050509150808054806020026020016040519081016040528092919081815260200182805480156110ac57602002820191906000526020600020905b815481526020019060010190808311611098575b5050505050905091509150611107565b60006040518059106110cb5750595b908082528060200260200182016040525060006040518059106110eb5750595b9080825280602002602001820160405250819150809050915091505b94509492505050565b600160046000836000191660001916815260200190815260200160002060006101000a81548160ff021916908315150217905550600380548060010182816111589190611a7a565b91600052602060002090016000839091909150906000191690555050565b61117e611aa6565b6000808373ffffffffffffffffffffffffffffffffffffffff1673ffffffffffffffffffffffffffffffffffffffff16815260200190815260200160002080548060200260200160405190810160405280929190818152602001828054801561123c57602002820191906000526020600020905b8160009054906101000a900473ffffffffffffffffffffffffffffffffffffffff1673ffffffffffffffffffffffffffffffffffffffff16815260200190600101908083116111f2575b50505050509050919050565b600060046000836000191660001916815260200190815260200160002060009054906101000a900460ff161561131657600260008673ffffffffffffffffffffffffffffffffffffffff1673ffffffffffffffffffffffffffffffffffffffff16815260200190815260200160002060000160008560001916600019168152602001908152602001600020600001600084600019166000191681526020019081526020016000206001016000836000191660001916815260200190815260200160002080549050905061131b565b600090505b949350505050565b600060066000836000191660001916815260200190815260200160002060009054906101000a900460ff16151561135957600080fd5b600260008573ffffffffffffffffffffffffffffffffffffffff1673ffffffffffffffffffffffffffffffffffffffff168152602001908152602001600020905080600101600084600019166000191681526020019081526020016000206000016000836000191660001916815260200190815260200160002060003373ffffffffffffffffffffffffffffffffffffffff1673ffffffffffffffffffffffffffffffffffffffff16815260200190815260200160002060009054906101000a900460ff1615151561142a57600080fd5b80600101600084600019166000191681526020019081526020016000206001016000836000191660001916815260200190815260200160002080548060010182816114759190611a4e565b9160005260206000209001600033909190916101000a81548173ffffffffffffffffffffffffffffffffffffffff021916908373ffffffffffffffffffffffffffffffffffffffff16021790555050806001016000846000191660001916815260200190815260200160002060020160008360001916600019168152602001908152602001600020805480600101828161150f9190611ace565b916000526020600020900160004290919091505550600181600101600085600019166000191681526020019081526020016000206000016000846000191660001916815260200190815260200160002060003373ffffffffffffffffffffffffffffffffffffffff1673ffffffffffffffffffffffffffffffffffffffff16815260200190815260200160002060006101000a81548160ff0219169083151502179055508373ffffffffffffffffffffffffffffffffffffffff167f1081d5534d7a744bc1ce887d944592e53474419705b20ac41c1d3942b62fe7ff60405160405180910390a250505050565b600060046000836000191660001916815260200190815260200160002060009054906101000a900460ff16151561163257600080fd5b600260008673ffffffffffffffffffffffffffffffffffffffff1673ffffffffffffffffffffffffffffffffffffffff16815260200190815260200160002060000160008560001916600019168152602001908152602001600020600001600084600019166000191681526020019081526020016000209050806000016000836000191660001916815260200190815260200160002060003373ffffffffffffffffffffffffffffffffffffffff1673ffffffffffffffffffffffffffffffffffffffff16815260200190815260200160002060009054906101000a900460ff1615151561171f57600080fd5b8060010160008360001916600019168152602001908152602001600020805480600101828161174e9190611a4e565b9160005260206000209001600033909190916101000a81548173ffffffffffffffffffffffffffffffffffffffff021916908373ffffffffffffffffffffffffffffffffffffffff16021790555050806002016000836000191660001916815260200190815260200160002080548060010182816117cc9190611ace565b9160005260206000209001600042909190915055506001816000016000846000191660001916815260200190815260200160002060003373ffffffffffffffffffffffffffffffffffffffff1673ffffffffffffffffffffffffffffffffffffffff16815260200190815260200160002060006101000a81548160ff021916908315150217905550826000191684600019168673ffffffffffffffffffffffffffffffffffffffff167f310c96bdec785a832207060115ad4e60b0c1b22a8b01fed00539395e1f30f82b60405160405180910390a45050505050565b6118b0611a3a565b600380548060200260200160405190810160405280929190818152602001828054801561190057602002820191906000526020600020905b815460001916815260200190600101908083116118e8575b5050505050905090565b60058181548110151561191957fe5b90600052602060002090016000915090505481565b600060066000836000191660001916815260200190815260200160002060009054906101000a900460ff16156119e057600260008573ffffffffffffffffffffffffffffffffffffffff1673ffffffffffffffffffffffffffffffffffffffff16815260200190815260200160002060010160008460001916600019168152602001908152602001600020600101600083600019166000191681526020019081526020016000208054905090506119e5565b600090505b9392505050565b600060205281600052604060002081815481101515611a0757fe5b90600052602060002090016000915091509054906101000a900473ffffffffffffffffffffffffffffffffffffffff1681565b602060405190810160405280600081525090565b815481835581811511611a7557818360005260206000209182019101611a749190611afa565b5b505050565b815481835581811511611aa157818360005260206000209182019101611aa09190611b1f565b5b505050565b602060405190810160405280600081525090565b602060405190810160405280600081525090565b815481835581811511611af557818360005260206000209182019101611af49190611afa565b5b505050565b611b1c91905b80821115611b18576000816000905550600101611b00565b5090565b90565b611b4191905b80821115611b3d576000816000905550600101611b25565b5090565b905600a165627a7a7230582010fad359beba735c22e0da956584e5ca928c716bd8dcb5355683200f5ce857410029",
  "source": "pragma solidity ^0.4.13;\r\n\r\ncontract Citadel {\r\n\r\n    event ReactionRecorded(address indexed _postAuthorg, bytes32 indexed _postSubmission, bytes32 indexed _postRevision);\r\n    event AuthorgReactionRecorded(address indexed _authorg);\r\n    event AuthorgFollowed(address indexed _followedAuthorg, address indexed _follower);\r\n\r\n    function Citadel() {\r\n    }\r\n\r\n    // citadel has some follower stuff\r\n    mapping(address => address[]) public authorgToFollowing; \r\n    mapping(address => address[]) public authorgToFollowers;\r\n\r\n    function follow(address authorgToFollow) {\r\n        authorgToFollowing[msg.sender].push(authorgToFollow);\r\n        authorgToFollowers[authorgToFollow].push(msg.sender);\r\n        AuthorgFollowed(authorgToFollow, msg.sender);\r\n    }\r\n\r\n    // and some reaction stuff  \r\n    struct InkAuthorgExtension {\r\n        mapping(bytes32 => InkSubmissionExtension) submissions;\r\n        mapping(bytes32 => InkBioRevisionExtension) bioRevisions;\r\n    } \r\n\r\n    struct InkBioRevisionExtension {\r\n        mapping(bytes32 => mapping(address => bool)) hasReactorReacted;\r\n        mapping(bytes32 => address[]) reactionToReactors;\r\n        mapping(bytes32 => uint[]) reactionToReactorsTimestamps;\r\n    }\r\n\r\n    struct InkSubmissionExtension {\r\n        mapping(bytes32 => InkRevisionExtension) revisions;\r\n    }\r\n\r\n    struct InkRevisionExtension {\r\n        mapping(bytes32 => mapping(address => bool)) hasReactorReacted;\r\n        mapping(bytes32 => address[]) reactionToReactors;\r\n        mapping(bytes32 => uint[]) reactionToReactorsTimestamps;\r\n    }           \r\n\r\n    mapping(address => InkAuthorgExtension) authorgExtensionMap;\r\n    bytes32[] public approved_reactions;\r\n    mapping(bytes32 => bool) reaction_approved;\r\n    bytes32[] public approved_authorg_reactions;\r\n    mapping(bytes32 => bool) authorg_reaction_approved;\r\n    \r\n    function getApprovedReactions() constant returns (bytes32[] hashes) {\r\n        return approved_reactions;\r\n    }\r\n\r\n    function getApprovedAuthorgReactions() constant returns (bytes32[] hashes) {\r\n        return approved_authorg_reactions;\r\n    }\r\n\r\n    function addApprovedReaction(bytes32 reaction) {\r\n        reaction_approved[reaction] = true;\r\n        approved_reactions.push(reaction);\r\n    }\r\n\r\n    function addApprovedAuthorgReaction(bytes32 reaction) {\r\n        authorg_reaction_approved[reaction] = true;\r\n        approved_authorg_reactions.push(reaction);\r\n    }\r\n\r\n    function getFollowedUsers(address authorg) constant returns (address[] followedUsers) {\r\n        return authorgToFollowing[authorg];\r\n    }\r\n\r\n    function getFollowers(address authorg) constant returns (address[] followers) {\r\n        return authorgToFollowers[authorg];\r\n    }\r\n     \r\n\r\n    function getReactorsForAuthorgRevisionReaction(address authorg, bytes32 submission, bytes32 revision, bytes32 reaction) constant returns (address[], uint[]) {\r\n        if (reaction_approved[reaction]) {\r\n            return (authorgExtensionMap[authorg].submissions[submission].revisions[revision].reactionToReactors[reaction],\r\n                    authorgExtensionMap[authorg].submissions[submission].revisions[revision].reactionToReactorsTimestamps[reaction]\r\n            );\r\n        } else {\r\n            return (new address[](0), new uint[](0));\r\n        }\r\n    }\r\n\r\n    function getReactorsCountForAuthorgRevisionReaction(address authorg, bytes32 submission, bytes32 revision, bytes32 reaction) constant returns (uint) {\r\n        if (reaction_approved[reaction]) {\r\n            return authorgExtensionMap[authorg].submissions[submission].revisions[revision].reactionToReactors[reaction].length;\r\n        } else {\r\n            return 0;\r\n        }\r\n    }    \r\n    \r\n    function submitReaction(address authorgAddress, bytes32 subCitadelManifestHash, bytes32 revCitadelManifestHash, bytes32 reaction) {\r\n        require(reaction_approved[reaction]);\r\n        InkRevisionExtension rev = authorgExtensionMap[authorgAddress].submissions[subCitadelManifestHash].revisions[revCitadelManifestHash];\r\n        \r\n        require(!rev.hasReactorReacted[reaction][msg.sender]);\r\n        \r\n        \r\n        rev.reactionToReactors[reaction].push(msg.sender);\r\n        rev.reactionToReactorsTimestamps[reaction].push(block.timestamp);\r\n        rev.hasReactorReacted[reaction][msg.sender] = true;\r\n\r\n        ReactionRecorded(authorgAddress, subCitadelManifestHash, revCitadelManifestHash); \r\n    \r\n    }  \r\n\r\n    function getReactorsForAuthorgBio(address authorg, bytes32 bioRevision, bytes32 reaction) constant returns (address[], uint[]) {\r\n        if (authorg_reaction_approved[reaction]) {\r\n            return (authorgExtensionMap[authorg].bioRevisions[bioRevision].reactionToReactors[reaction],\r\n                    authorgExtensionMap[authorg].bioRevisions[bioRevision].reactionToReactorsTimestamps[reaction]\r\n            );\r\n        } else {\r\n            return (new address[](0), new uint[](0));\r\n        }\r\n    }\r\n\r\n    function getReactorsCountForAuthorg(address authorg, bytes32 bioRevision, bytes32 reaction) constant returns (uint) {\r\n        if (authorg_reaction_approved[reaction]) {\r\n            return authorgExtensionMap[authorg].bioRevisions[bioRevision].reactionToReactors[reaction].length;\r\n        } else {\r\n            return 0;\r\n        }\r\n    }\r\n\r\n    function submitAuthorgReaction(address authorgAddress, bytes32 bioRevision, bytes32 reaction) {\r\n        require(authorg_reaction_approved[reaction]);\r\n        InkAuthorgExtension auth = authorgExtensionMap[authorgAddress];\r\n        \r\n        require(!auth.bioRevisions[bioRevision].hasReactorReacted[reaction][msg.sender]);\r\n        \r\n        auth.bioRevisions[bioRevision].reactionToReactors[reaction].push(msg.sender);\r\n        auth.bioRevisions[bioRevision].reactionToReactorsTimestamps[reaction].push(block.timestamp);\r\n\r\n        auth.bioRevisions[bioRevision].hasReactorReacted[reaction][msg.sender] = true;\r\n        AuthorgReactionRecorded(authorgAddress);         \r\n    }\r\n}",
  "sourcePath": "E:\\Projects\\CitaDAO\\src\\app-contracts\\contracts\\Citadel.sol",
  "compiler": {
    "name": "solc",
    "version": "0.4.18+commit.9cf6e910.Emscripten.clang"
  },
  "schemaVersion": "1.0.1",
  "updatedAt": "2017-11-20T04:48:19.151Z"
}