{
  "contractName": "CitadelResponseRequest",
  "abi": [
    {
      "constant": false,
      "inputs": [
        {
          "name": "offerUser",
          "type": "address"
        },
        {
          "name": "postUser",
          "type": "address"
        },
        {
          "name": "postSubmission",
          "type": "bytes32"
        },
        {
          "name": "postRevision",
          "type": "bytes32"
        }
      ],
      "name": "collectResponseRequestBounty",
      "outputs": [],
      "payable": false,
      "stateMutability": "nonpayable",
      "type": "function"
    },
    {
      "constant": false,
      "inputs": [
        {
          "name": "recipientUser",
          "type": "address"
        },
        {
          "name": "postUser",
          "type": "address"
        },
        {
          "name": "postSubmission",
          "type": "bytes32"
        },
        {
          "name": "postRevision",
          "type": "bytes32"
        }
      ],
      "name": "refundResponseRequestBounty",
      "outputs": [],
      "payable": false,
      "stateMutability": "nonpayable",
      "type": "function"
    },
    {
      "constant": true,
      "inputs": [],
      "name": "getInkAddress",
      "outputs": [
        {
          "name": "",
          "type": "address"
        }
      ],
      "payable": false,
      "stateMutability": "view",
      "type": "function"
    },
    {
      "constant": true,
      "inputs": [
        {
          "name": "postUser",
          "type": "address"
        },
        {
          "name": "postSubmission",
          "type": "bytes32"
        },
        {
          "name": "postRevision",
          "type": "bytes32"
        }
      ],
      "name": "getOffererRecipientKeysForPost",
      "outputs": [
        {
          "name": "offerers",
          "type": "address[]"
        },
        {
          "name": "recipients",
          "type": "address[]"
        }
      ],
      "payable": false,
      "stateMutability": "view",
      "type": "function"
    },
    {
      "constant": true,
      "inputs": [],
      "name": "ink_address",
      "outputs": [
        {
          "name": "",
          "type": "address"
        }
      ],
      "payable": false,
      "stateMutability": "view",
      "type": "function"
    },
    {
      "constant": true,
      "inputs": [
        {
          "name": "user",
          "type": "address"
        }
      ],
      "name": "getUserBountiesReceived",
      "outputs": [
        {
          "name": "offererUsers",
          "type": "address[]"
        },
        {
          "name": "postUsers",
          "type": "address[]"
        },
        {
          "name": "postSubmissions",
          "type": "bytes32[]"
        },
        {
          "name": "postRevisions",
          "type": "bytes32[]"
        }
      ],
      "payable": false,
      "stateMutability": "view",
      "type": "function"
    },
    {
      "constant": true,
      "inputs": [
        {
          "name": "recipientUser",
          "type": "address"
        },
        {
          "name": "offerUser",
          "type": "address"
        },
        {
          "name": "postUser",
          "type": "address"
        },
        {
          "name": "postSubmission",
          "type": "bytes32"
        },
        {
          "name": "postRevision",
          "type": "bytes32"
        }
      ],
      "name": "hasUserCollectedBounty",
      "outputs": [
        {
          "name": "",
          "type": "bool"
        }
      ],
      "payable": false,
      "stateMutability": "view",
      "type": "function"
    },
    {
      "constant": true,
      "inputs": [
        {
          "name": "user",
          "type": "address"
        },
        {
          "name": "postUser",
          "type": "address"
        },
        {
          "name": "postSubmission",
          "type": "bytes32"
        },
        {
          "name": "postRevision",
          "type": "bytes32"
        }
      ],
      "name": "doesUserReferencePost",
      "outputs": [
        {
          "name": "",
          "type": "bool"
        }
      ],
      "payable": false,
      "stateMutability": "view",
      "type": "function"
    },
    {
      "constant": false,
      "inputs": [
        {
          "name": "userToRespond",
          "type": "address"
        },
        {
          "name": "postUser",
          "type": "address"
        },
        {
          "name": "postSubmission",
          "type": "bytes32"
        },
        {
          "name": "postRevision",
          "type": "bytes32"
        }
      ],
      "name": "submitResponseRequest",
      "outputs": [],
      "payable": true,
      "stateMutability": "payable",
      "type": "function"
    },
    {
      "constant": true,
      "inputs": [
        {
          "name": "offerUser",
          "type": "address"
        },
        {
          "name": "recipientUser",
          "type": "address"
        },
        {
          "name": "postUser",
          "type": "address"
        },
        {
          "name": "postSubmission",
          "type": "bytes32"
        },
        {
          "name": "postRevision",
          "type": "bytes32"
        }
      ],
      "name": "hasUserMadeOfferOnPostToUser",
      "outputs": [
        {
          "name": "",
          "type": "bool"
        }
      ],
      "payable": false,
      "stateMutability": "view",
      "type": "function"
    },
    {
      "constant": true,
      "inputs": [
        {
          "name": "user",
          "type": "address"
        }
      ],
      "name": "getUserBountiesCreated",
      "outputs": [
        {
          "name": "recipientUsers",
          "type": "address[]"
        },
        {
          "name": "postUsers",
          "type": "address[]"
        },
        {
          "name": "postSubmissions",
          "type": "bytes32[]"
        },
        {
          "name": "postRevisions",
          "type": "bytes32[]"
        }
      ],
      "payable": false,
      "stateMutability": "view",
      "type": "function"
    },
    {
      "constant": true,
      "inputs": [
        {
          "name": "postUser",
          "type": "address"
        },
        {
          "name": "postSubmission",
          "type": "bytes32"
        },
        {
          "name": "postRevision",
          "type": "bytes32"
        },
        {
          "name": "offererUser",
          "type": "address"
        },
        {
          "name": "recipientUser",
          "type": "address"
        }
      ],
      "name": "getReceipt",
      "outputs": [
        {
          "name": "exists",
          "type": "bool"
        },
        {
          "name": "timestamp",
          "type": "uint256"
        },
        {
          "name": "bounty",
          "type": "uint256"
        },
        {
          "name": "collected",
          "type": "bool"
        },
        {
          "name": "referenced",
          "type": "bool"
        },
        {
          "name": "refunded",
          "type": "bool"
        }
      ],
      "payable": false,
      "stateMutability": "view",
      "type": "function"
    },
    {
      "inputs": [
        {
          "name": "ink",
          "type": "address"
        },
        {
          "name": "bountyOpenLengthInMinutes",
          "type": "uint256"
        }
      ],
      "payable": false,
      "stateMutability": "nonpayable",
      "type": "constructor"
    },
    {
      "anonymous": false,
      "inputs": [
        {
          "indexed": true,
          "name": "_offererUser",
          "type": "address"
        },
        {
          "indexed": true,
          "name": "_recipientUser",
          "type": "address"
        },
        {
          "indexed": false,
          "name": "_postUser",
          "type": "address"
        },
        {
          "indexed": false,
          "name": "_postSumission",
          "type": "bytes32"
        },
        {
          "indexed": false,
          "name": "_postRevision",
          "type": "bytes32"
        }
      ],
      "name": "ResponseRequestCreated",
      "type": "event"
    },
    {
      "anonymous": false,
      "inputs": [
        {
          "indexed": true,
          "name": "_postUser",
          "type": "address"
        },
        {
          "indexed": true,
          "name": "_postSumission",
          "type": "bytes32"
        },
        {
          "indexed": true,
          "name": "_postRevision",
          "type": "bytes32"
        },
        {
          "indexed": false,
          "name": "_offererUser",
          "type": "address"
        },
        {
          "indexed": false,
          "name": "_recipientUser",
          "type": "address"
        }
      ],
      "name": "PostResponseRequestCreated",
      "type": "event"
    },
    {
      "anonymous": false,
      "inputs": [
        {
          "indexed": true,
          "name": "_offererUser",
          "type": "address"
        },
        {
          "indexed": true,
          "name": "_recipientUser",
          "type": "address"
        },
        {
          "indexed": false,
          "name": "_postUser",
          "type": "address"
        },
        {
          "indexed": false,
          "name": "_postSumission",
          "type": "bytes32"
        },
        {
          "indexed": false,
          "name": "_postRevision",
          "type": "bytes32"
        }
      ],
      "name": "ResponseRequestBountyCollected",
      "type": "event"
    },
    {
      "anonymous": false,
      "inputs": [
        {
          "indexed": true,
          "name": "_postUser",
          "type": "address"
        },
        {
          "indexed": true,
          "name": "_postSumission",
          "type": "bytes32"
        },
        {
          "indexed": true,
          "name": "_postRevision",
          "type": "bytes32"
        },
        {
          "indexed": false,
          "name": "_offererUser",
          "type": "address"
        },
        {
          "indexed": false,
          "name": "_recipientUser",
          "type": "address"
        }
      ],
      "name": "PostResponseRequestBountyCollected",
      "type": "event"
    },
    {
      "anonymous": false,
      "inputs": [
        {
          "indexed": true,
          "name": "_offererUser",
          "type": "address"
        },
        {
          "indexed": true,
          "name": "_recipientUser",
          "type": "address"
        },
        {
          "indexed": false,
          "name": "_postUser",
          "type": "address"
        },
        {
          "indexed": false,
          "name": "_postSumission",
          "type": "bytes32"
        },
        {
          "indexed": false,
          "name": "_postRevision",
          "type": "bytes32"
        }
      ],
      "name": "ResponseRequestBountyRefunded",
      "type": "event"
    },
    {
      "anonymous": false,
      "inputs": [
        {
          "indexed": true,
          "name": "_postUser",
          "type": "address"
        },
        {
          "indexed": true,
          "name": "_postSumission",
          "type": "bytes32"
        },
        {
          "indexed": true,
          "name": "_postRevision",
          "type": "bytes32"
        },
        {
          "indexed": false,
          "name": "_offererUser",
          "type": "address"
        },
        {
          "indexed": false,
          "name": "_recipientUser",
          "type": "address"
        }
      ],
      "name": "PostResponseRequestBountyRefunded",
      "type": "event"
    }
  ],
  "bytecode": "0x6060604052341561000f57600080fd5b604051604080612a4183398101604052808051906020019091908051906020019091905050816000806101000a81548173ffffffffffffffffffffffffffffffffffffffff021916908373ffffffffffffffffffffffffffffffffffffffff1602179055508060018190555050506129b58061008c6000396000f3006060604052600436106100ba576000357c0100000000000000000000000000000000000000000000000000000000900463ffffffff16806314595cd1146100bf5780631c87dbf31461013157806325e0d20a146101a3578063291ad608146101f857806336421ef6146102e85780634235b09a1461033d5780634827c42b146104a35780634a2888021461054c578063764d204f146105d6578063b190bb451461063d578063b6d01c1e146106e6578063f79c5ef11461084c575b600080fd5b34156100ca57600080fd5b61012f600480803573ffffffffffffffffffffffffffffffffffffffff1690602001909190803573ffffffffffffffffffffffffffffffffffffffff169060200190919080356000191690602001909190803560001916906020019091905050610924565b005b341561013c57600080fd5b6101a1600480803573ffffffffffffffffffffffffffffffffffffffff1690602001909190803573ffffffffffffffffffffffffffffffffffffffff169060200190919080356000191690602001909190803560001916906020019091905050610d8f565b005b34156101ae57600080fd5b6101b66110b3565b604051808273ffffffffffffffffffffffffffffffffffffffff1673ffffffffffffffffffffffffffffffffffffffff16815260200191505060405180910390f35b341561020357600080fd5b610249600480803573ffffffffffffffffffffffffffffffffffffffff1690602001909190803560001916906020019091908035600019169060200190919050506110dc565b604051808060200180602001838103835285818151815260200191508051906020019060200280838360005b83811015610290578082015181840152602081019050610275565b50505050905001838103825284818151815260200191508051906020019060200280838360005b838110156102d25780820151818401526020810190506102b7565b5050505090500194505050505060405180910390f35b34156102f357600080fd5b6102fb6112f6565b604051808273ffffffffffffffffffffffffffffffffffffffff1673ffffffffffffffffffffffffffffffffffffffff16815260200191505060405180910390f35b341561034857600080fd5b610374600480803573ffffffffffffffffffffffffffffffffffffffff1690602001909190505061131b565b6040518080602001806020018060200180602001858103855289818151815260200191508051906020019060200280838360005b838110156103c35780820151818401526020810190506103a8565b50505050905001858103845288818151815260200191508051906020019060200280838360005b838110156104055780820151818401526020810190506103ea565b50505050905001858103835287818151815260200191508051906020019060200280838360005b8381101561044757808201518184015260208101905061042c565b50505050905001858103825286818151815260200191508051906020019060200280838360005b8381101561048957808201518184015260208101905061046e565b505050509050019850505050505050505060405180910390f35b34156104ae57600080fd5b610532600480803573ffffffffffffffffffffffffffffffffffffffff1690602001909190803573ffffffffffffffffffffffffffffffffffffffff1690602001909190803573ffffffffffffffffffffffffffffffffffffffff169060200190919080356000191690602001909190803560001916906020019091905050611602565b604051808215151515815260200191505060405180910390f35b341561055757600080fd5b6105bc600480803573ffffffffffffffffffffffffffffffffffffffff1690602001909190803573ffffffffffffffffffffffffffffffffffffffff169060200190919080356000191690602001909190803560001916906020019091905050611714565b604051808215151515815260200191505060405180910390f35b61063b600480803573ffffffffffffffffffffffffffffffffffffffff1690602001909190803573ffffffffffffffffffffffffffffffffffffffff169060200190919080356000191690602001909190803560001916906020019091905050611853565b005b341561064857600080fd5b6106cc600480803573ffffffffffffffffffffffffffffffffffffffff1690602001909190803573ffffffffffffffffffffffffffffffffffffffff1690602001909190803573ffffffffffffffffffffffffffffffffffffffff1690602001909190803560001916906020019091908035600019169060200190919050506121fd565b604051808215151515815260200191505060405180910390f35b34156106f157600080fd5b61071d600480803573ffffffffffffffffffffffffffffffffffffffff1690602001909190505061230f565b6040518080602001806020018060200180602001858103855289818151815260200191508051906020019060200280838360005b8381101561076c578082015181840152602081019050610751565b50505050905001858103845288818151815260200191508051906020019060200280838360005b838110156107ae578082015181840152602081019050610793565b50505050905001858103835287818151815260200191508051906020019060200280838360005b838110156107f05780820151818401526020810190506107d5565b50505050905001858103825286818151815260200191508051906020019060200280838360005b83811015610832578082015181840152602081019050610817565b505050509050019850505050505050505060405180910390f35b341561085757600080fd5b6108db600480803573ffffffffffffffffffffffffffffffffffffffff16906020019091908035600019169060200190919080356000191690602001909190803573ffffffffffffffffffffffffffffffffffffffff1690602001909190803573ffffffffffffffffffffffffffffffffffffffff169060200190919050506125f6565b6040518087151515158152602001868152602001858152602001841515151581526020018315151515815260200182151515158152602001965050505050505060405180910390f35b600080600080600260008873ffffffffffffffffffffffffffffffffffffffff1673ffffffffffffffffffffffffffffffffffffffff168152602001908152602001600020600001600087600019166000191681526020019081526020016000206000016000866000191660001916815260200190815260200160002060000160008973ffffffffffffffffffffffffffffffffffffffff1673ffffffffffffffffffffffffffffffffffffffff16815260200190815260200160002060003373ffffffffffffffffffffffffffffffffffffffff1673ffffffffffffffffffffffffffffffffffffffff16815260200190815260200160002093508360000160009054906101000a900460ff161515610a3d57600080fd5b6000809054906101000a900473ffffffffffffffffffffffffffffffffffffffff1673ffffffffffffffffffffffffffffffffffffffff166376f6c361338989896000604051602001526040518563ffffffff167c0100000000000000000000000000000000000000000000000000000000028152600401808573ffffffffffffffffffffffffffffffffffffffff1673ffffffffffffffffffffffffffffffffffffffff1681526020018473ffffffffffffffffffffffffffffffffffffffff1673ffffffffffffffffffffffffffffffffffffffff16815260200183600019166000191681526020018260001916600019168152602001945050505050602060405180830381600087803b1515610b5557600080fd5b6102c65a03f11515610b6657600080fd5b505050604051805190509250821515610b7e57600080fd5b8360030160009054906101000a900460ff16151515610b9c57600080fd5b603c6001540284600101540142109150811515610bb857600080fd5b60018460030160006101000a81548160ff021916908315150217905550836002015490503373ffffffffffffffffffffffffffffffffffffffff166108fc829081150290604051600060405180830381858888f193505050501515610c1c57600080fd5b3373ffffffffffffffffffffffffffffffffffffffff168873ffffffffffffffffffffffffffffffffffffffff167fb108b5618e10c93bd34319ea5f2bb4e3b0de06efd417d0165b5f133a8a38356b898989604051808473ffffffffffffffffffffffffffffffffffffffff1673ffffffffffffffffffffffffffffffffffffffff16815260200183600019166000191681526020018260001916600019168152602001935050505060405180910390a3846000191686600019168873ffffffffffffffffffffffffffffffffffffffff167fc29d15b700a13be3af5133bab7b7aee4b247d62950aa75fdf42e21d5632ff5a08b33604051808373ffffffffffffffffffffffffffffffffffffffff1673ffffffffffffffffffffffffffffffffffffffff1681526020018273ffffffffffffffffffffffffffffffffffffffff1673ffffffffffffffffffffffffffffffffffffffff1681526020019250505060405180910390a45050505050505050565b600080600260008673ffffffffffffffffffffffffffffffffffffffff1673ffffffffffffffffffffffffffffffffffffffff168152602001908152602001600020600001600085600019166000191681526020019081526020016000206000016000846000191660001916815260200190815260200160002060000160003373ffffffffffffffffffffffffffffffffffffffff1673ffffffffffffffffffffffffffffffffffffffff16815260200190815260200160002060008773ffffffffffffffffffffffffffffffffffffffff1673ffffffffffffffffffffffffffffffffffffffff16815260200190815260200160002091508160000160009054906101000a900460ff161515610ea557600080fd5b8160030160009054906101000a900460ff16158015610ed357508160030160019054906101000a900460ff16155b1515610ede57600080fd5b60018260030160016101000a81548160ff021916908315150217905550816002015490503373ffffffffffffffffffffffffffffffffffffffff166108fc829081150290604051600060405180830381858888f193505050501515610f4257600080fd5b8573ffffffffffffffffffffffffffffffffffffffff163373ffffffffffffffffffffffffffffffffffffffff167f4c4b53fb00ccb7bff62caf42948d62837b4625d1b4b99d42c3c28e3116dbc056878787604051808473ffffffffffffffffffffffffffffffffffffffff1673ffffffffffffffffffffffffffffffffffffffff16815260200183600019166000191681526020018260001916600019168152602001935050505060405180910390a3826000191684600019168673ffffffffffffffffffffffffffffffffffffffff167f8a37676d74b8af93de302c39a3717a773f6405966e2be410efd85a620cf1a290338a604051808373ffffffffffffffffffffffffffffffffffffffff1673ffffffffffffffffffffffffffffffffffffffff1681526020018273ffffffffffffffffffffffffffffffffffffffff1673ffffffffffffffffffffffffffffffffffffffff1681526020019250505060405180910390a4505050505050565b60008060009054906101000a900473ffffffffffffffffffffffffffffffffffffffff16905090565b6110e4612889565b6110ec612889565b600260008673ffffffffffffffffffffffffffffffffffffffff1673ffffffffffffffffffffffffffffffffffffffff16815260200190815260200160002060000160008560001916600019168152602001908152602001600020600001600084600019166000191681526020019081526020016000206001018054806020026020016040519081016040528092919081815260200182805480156111e657602002820191906000526020600020905b8160009054906101000a900473ffffffffffffffffffffffffffffffffffffffff1673ffffffffffffffffffffffffffffffffffffffff168152602001906001019080831161119c575b50505050509150600260008673ffffffffffffffffffffffffffffffffffffffff1673ffffffffffffffffffffffffffffffffffffffff16815260200190815260200160002060000160008560001916600019168152602001908152602001600020600001600084600019166000191681526020019081526020016000206002018054806020026020016040519081016040528092919081815260200182805480156112e757602002820191906000526020600020905b8160009054906101000a900473ffffffffffffffffffffffffffffffffffffffff1673ffffffffffffffffffffffffffffffffffffffff168152602001906001019080831161129d575b50505050509050935093915050565b6000809054906101000a900473ffffffffffffffffffffffffffffffffffffffff1681565b611323612889565b61132b612889565b61133361289d565b61133b61289d565b600260008673ffffffffffffffffffffffffffffffffffffffff1673ffffffffffffffffffffffffffffffffffffffff1681526020019081526020016000206005018054806020026020016040519081016040528092919081815260200182805480156113fd57602002820191906000526020600020905b8160009054906101000a900473ffffffffffffffffffffffffffffffffffffffff1673ffffffffffffffffffffffffffffffffffffffff16815260200190600101908083116113b3575b50505050509350600260008673ffffffffffffffffffffffffffffffffffffffff1673ffffffffffffffffffffffffffffffffffffffff1681526020019081526020016000206006018054806020026020016040519081016040528092919081815260200182805480156114c657602002820191906000526020600020905b8160009054906101000a900473ffffffffffffffffffffffffffffffffffffffff1673ffffffffffffffffffffffffffffffffffffffff168152602001906001019080831161147c575b50505050509250600260008673ffffffffffffffffffffffffffffffffffffffff1673ffffffffffffffffffffffffffffffffffffffff16815260200190815260200160002060070180548060200260200160405190810160405280929190818152602001828054801561155d57602002820191906000526020600020905b81546000191681526020019060010190808311611545575b50505050509150600260008673ffffffffffffffffffffffffffffffffffffffff1673ffffffffffffffffffffffffffffffffffffffff1681526020019081526020016000206008018054806020026020016040519081016040528092919081815260200182805480156115f457602002820191906000526020600020905b815460001916815260200190600101908083116115dc575b505050505090509193509193565b6000600260008573ffffffffffffffffffffffffffffffffffffffff1673ffffffffffffffffffffffffffffffffffffffff168152602001908152602001600020600001600084600019166000191681526020019081526020016000206000016000836000191660001916815260200190815260200160002060000160008673ffffffffffffffffffffffffffffffffffffffff1673ffffffffffffffffffffffffffffffffffffffff16815260200190815260200160002060008773ffffffffffffffffffffffffffffffffffffffff1673ffffffffffffffffffffffffffffffffffffffff16815260200190815260200160002060030160009054906101000a900460ff16905095945050505050565b60008060009054906101000a900473ffffffffffffffffffffffffffffffffffffffff1673ffffffffffffffffffffffffffffffffffffffff166376f6c361868686866000604051602001526040518563ffffffff167c0100000000000000000000000000000000000000000000000000000000028152600401808573ffffffffffffffffffffffffffffffffffffffff1673ffffffffffffffffffffffffffffffffffffffff1681526020018473ffffffffffffffffffffffffffffffffffffffff1673ffffffffffffffffffffffffffffffffffffffff16815260200183600019166000191681526020018260001916600019168152602001945050505050602060405180830381600087803b151561182e57600080fd5b6102c65a03f1151561183f57600080fd5b505050604051805190509050949350505050565b61185b6128b1565b60003373ffffffffffffffffffffffffffffffffffffffff168673ffffffffffffffffffffffffffffffffffffffff161415151561189857600080fd5b8473ffffffffffffffffffffffffffffffffffffffff168673ffffffffffffffffffffffffffffffffffffffff16141515156118d357600080fd5b60a06040519081016040528060011515815260200142815260200134815260200160001515815260200160001515815250915061191333878787876121fd565b90508015151561192257600080fd5b81600260008773ffffffffffffffffffffffffffffffffffffffff1673ffffffffffffffffffffffffffffffffffffffff168152602001908152602001600020600001600086600019166000191681526020019081526020016000206000016000856000191660001916815260200190815260200160002060000160003373ffffffffffffffffffffffffffffffffffffffff1673ffffffffffffffffffffffffffffffffffffffff16815260200190815260200160002060008873ffffffffffffffffffffffffffffffffffffffff1673ffffffffffffffffffffffffffffffffffffffff16815260200190815260200160002060008201518160000160006101000a81548160ff021916908315150217905550602082015181600101556040820151816002015560608201518160030160006101000a81548160ff02191690831515021790555060808201518160030160016101000a81548160ff021916908315150217905550905050600260008673ffffffffffffffffffffffffffffffffffffffff1673ffffffffffffffffffffffffffffffffffffffff16815260200190815260200160002060000160008560001916600019168152602001908152602001600020600001600084600019166000191681526020019081526020016000206001018054806001018281611b1a91906128e7565b9160005260206000209001600033909190916101000a81548173ffffffffffffffffffffffffffffffffffffffff021916908373ffffffffffffffffffffffffffffffffffffffff16021790555050600260008673ffffffffffffffffffffffffffffffffffffffff1673ffffffffffffffffffffffffffffffffffffffff16815260200190815260200160002060000160008560001916600019168152602001908152602001600020600001600084600019166000191681526020019081526020016000206002018054806001018281611bf591906128e7565b9160005260206000209001600088909190916101000a81548173ffffffffffffffffffffffffffffffffffffffff021916908373ffffffffffffffffffffffffffffffffffffffff16021790555050600260003373ffffffffffffffffffffffffffffffffffffffff1673ffffffffffffffffffffffffffffffffffffffff1681526020019081526020016000206001018054806001018281611c9891906128e7565b9160005260206000209001600088909190916101000a81548173ffffffffffffffffffffffffffffffffffffffff021916908373ffffffffffffffffffffffffffffffffffffffff16021790555050600260003373ffffffffffffffffffffffffffffffffffffffff1673ffffffffffffffffffffffffffffffffffffffff1681526020019081526020016000206002018054806001018281611d3b91906128e7565b9160005260206000209001600087909190916101000a81548173ffffffffffffffffffffffffffffffffffffffff021916908373ffffffffffffffffffffffffffffffffffffffff16021790555050600260003373ffffffffffffffffffffffffffffffffffffffff1673ffffffffffffffffffffffffffffffffffffffff1681526020019081526020016000206003018054806001018281611dde9190612913565b916000526020600020900160008690919091509060001916905550600260003373ffffffffffffffffffffffffffffffffffffffff1673ffffffffffffffffffffffffffffffffffffffff1681526020019081526020016000206004018054806001018281611e4d9190612913565b916000526020600020900160008590919091509060001916905550600260008773ffffffffffffffffffffffffffffffffffffffff1673ffffffffffffffffffffffffffffffffffffffff1681526020019081526020016000206005018054806001018281611ebc91906128e7565b9160005260206000209001600033909190916101000a81548173ffffffffffffffffffffffffffffffffffffffff021916908373ffffffffffffffffffffffffffffffffffffffff16021790555050600260008773ffffffffffffffffffffffffffffffffffffffff1673ffffffffffffffffffffffffffffffffffffffff1681526020019081526020016000206006018054806001018281611f5f91906128e7565b9160005260206000209001600087909190916101000a81548173ffffffffffffffffffffffffffffffffffffffff021916908373ffffffffffffffffffffffffffffffffffffffff16021790555050600260008773ffffffffffffffffffffffffffffffffffffffff1673ffffffffffffffffffffffffffffffffffffffff16815260200190815260200160002060070180548060010182816120029190612913565b916000526020600020900160008690919091509060001916905550600260008773ffffffffffffffffffffffffffffffffffffffff1673ffffffffffffffffffffffffffffffffffffffff16815260200190815260200160002060080180548060010182816120719190612913565b9160005260206000209001600085909190915090600019169055508573ffffffffffffffffffffffffffffffffffffffff163373ffffffffffffffffffffffffffffffffffffffff167f789f89351a381e051a03e0b57c0af1c7459bb523c382e9bafe2a0fafccd59954878787604051808473ffffffffffffffffffffffffffffffffffffffff1673ffffffffffffffffffffffffffffffffffffffff16815260200183600019166000191681526020018260001916600019168152602001935050505060405180910390a3826000191684600019168673ffffffffffffffffffffffffffffffffffffffff167fd29237a5fc8a3aaa30a5aed2d820f0bb68dc9f84312fe636a69b9fef8b0761e6338a604051808373ffffffffffffffffffffffffffffffffffffffff1673ffffffffffffffffffffffffffffffffffffffff1681526020018273ffffffffffffffffffffffffffffffffffffffff1673ffffffffffffffffffffffffffffffffffffffff1681526020019250505060405180910390a4505050505050565b6000600260008573ffffffffffffffffffffffffffffffffffffffff1673ffffffffffffffffffffffffffffffffffffffff168152602001908152602001600020600001600084600019166000191681526020019081526020016000206000016000836000191660001916815260200190815260200160002060000160008773ffffffffffffffffffffffffffffffffffffffff1673ffffffffffffffffffffffffffffffffffffffff16815260200190815260200160002060008673ffffffffffffffffffffffffffffffffffffffff1673ffffffffffffffffffffffffffffffffffffffff16815260200190815260200160002060000160009054906101000a900460ff16905095945050505050565b612317612889565b61231f612889565b61232761289d565b61232f61289d565b600260008673ffffffffffffffffffffffffffffffffffffffff1673ffffffffffffffffffffffffffffffffffffffff1681526020019081526020016000206001018054806020026020016040519081016040528092919081815260200182805480156123f157602002820191906000526020600020905b8160009054906101000a900473ffffffffffffffffffffffffffffffffffffffff1673ffffffffffffffffffffffffffffffffffffffff16815260200190600101908083116123a7575b50505050509350600260008673ffffffffffffffffffffffffffffffffffffffff1673ffffffffffffffffffffffffffffffffffffffff1681526020019081526020016000206002018054806020026020016040519081016040528092919081815260200182805480156124ba57602002820191906000526020600020905b8160009054906101000a900473ffffffffffffffffffffffffffffffffffffffff1673ffffffffffffffffffffffffffffffffffffffff1681526020019060010190808311612470575b50505050509250600260008673ffffffffffffffffffffffffffffffffffffffff1673ffffffffffffffffffffffffffffffffffffffff16815260200190815260200160002060030180548060200260200160405190810160405280929190818152602001828054801561255157602002820191906000526020600020905b81546000191681526020019060010190808311612539575b50505050509150600260008673ffffffffffffffffffffffffffffffffffffffff1673ffffffffffffffffffffffffffffffffffffffff1681526020019081526020016000206004018054806020026020016040519081016040528092919081815260200182805480156125e857602002820191906000526020600020905b815460001916815260200190600101908083116125d0575b505050505090509193509193565b600080600080600080600080600260008e73ffffffffffffffffffffffffffffffffffffffff1673ffffffffffffffffffffffffffffffffffffffff16815260200190815260200160002060000160008d6000191660001916815260200190815260200160002060000160008c6000191660001916815260200190815260200160002060000160008b73ffffffffffffffffffffffffffffffffffffffff1673ffffffffffffffffffffffffffffffffffffffff16815260200190815260200160002060008a73ffffffffffffffffffffffffffffffffffffffff1673ffffffffffffffffffffffffffffffffffffffff16815260200190815260200160002091506000809054906101000a900473ffffffffffffffffffffffffffffffffffffffff1673ffffffffffffffffffffffffffffffffffffffff166376f6c361338f8f8f6000604051602001526040518563ffffffff167c0100000000000000000000000000000000000000000000000000000000028152600401808573ffffffffffffffffffffffffffffffffffffffff1673ffffffffffffffffffffffffffffffffffffffff1681526020018473ffffffffffffffffffffffffffffffffffffffff1673ffffffffffffffffffffffffffffffffffffffff16815260200183600019166000191681526020018260001916600019168152602001945050505050602060405180830381600087803b151561281057600080fd5b6102c65a03f1151561282157600080fd5b5050506040518051905090508160000160009054906101000a900460ff16826001015483600201548460030160009054906101000a900460ff16848660030160019054906101000a900460ff1697509750975097509750975050509550955095509550955095565b602060405190810160405280600081525090565b602060405190810160405280600081525090565b60a06040519081016040528060001515815260200160008152602001600081526020016000151581526020016000151581525090565b81548183558181151161290e5781836000526020600020918201910161290d919061293f565b5b505050565b81548183558181151161293a578183600052602060002091820191016129399190612964565b5b505050565b61296191905b8082111561295d576000816000905550600101612945565b5090565b90565b61298691905b8082111561298257600081600090555060010161296a565b5090565b905600a165627a7a72305820b6040c9bf05002b2b3e53252f8f03bc4efdd27909f77b40cc65155c74d448bda0029",
  "source": "pragma solidity ^0.4.13;\r\n\r\ncontract AbstractInk {\r\n    function doesPostReferencePost(address postUserAddress, address originalPostUserAddress, bytes32 originalPostSubmissionHash, bytes32 originalPostRevisionHash) constant returns (bool isPostRef);\r\n}\r\n\r\ncontract CitadelResponseRequest {\r\n\r\n    event ResponseRequestCreated(address indexed _offererUser, address indexed _recipientUser, address _postUser, bytes32 _postSumission, bytes32 _postRevision);\r\n    event PostResponseRequestCreated(address indexed _postUser, bytes32 indexed _postSumission, bytes32 indexed _postRevision, address _offererUser, address _recipientUser);\r\n\r\n    event ResponseRequestBountyCollected(address indexed _offererUser, address indexed _recipientUser, address _postUser, bytes32 _postSumission, bytes32 _postRevision);\r\n    event PostResponseRequestBountyCollected(address indexed _postUser, bytes32 indexed _postSumission, bytes32 indexed _postRevision, address _offererUser, address _recipientUser);\r\n\r\n    event ResponseRequestBountyRefunded(address indexed _offererUser, address indexed _recipientUser, address _postUser, bytes32 _postSumission, bytes32 _postRevision);\r\n    event PostResponseRequestBountyRefunded(address indexed _postUser, bytes32 indexed _postSumission, bytes32 indexed _postRevision, address _offererUser, address _recipientUser);\r\n\r\n\r\n    address public ink_address;\r\n    //uint bounty_fee;\r\n\r\n    uint bounty_open_length_in_minutes;\r\n\r\n    function CitadelResponseRequest(address ink, uint bountyOpenLengthInMinutes/*, uint bountyFee*/) {\r\n        ink_address = ink;\r\n        bounty_open_length_in_minutes = bountyOpenLengthInMinutes;\r\n        //bounty_fee = bountyFee;\r\n    }\r\n\r\n    // and some reaction stuff  \r\n    struct InkAuthorgExtension {\r\n        mapping(bytes32 => InkSubmissionExtension) submissions;\r\n\r\n        // these 4 will always have the same length. the 4 elements at each index function as a key to find response requests offered\r\n        address[] responseRequestsOfferedToUsers;\r\n        address[] responseRequestsOfferedToUsersPostUsers;\r\n        bytes32[] responseRequestsOfferedToUsersPostSubmissions;\r\n        bytes32[] responseRequestsOfferedToUsersPostRevisions;\r\n\r\n\r\n        // these 4 will always have the same length. the 4 elements at each index function as a key to find response requests received\r\n        address[] responseRequestsReceivedFromUsers;\r\n        address[] responseRequestsReceivedFromUsersPostUsers;\r\n        bytes32[] responseRequestsReceivedFromUsersPostSubmissions;\r\n        bytes32[] responseRequestsReceivedFromUsersPostRevisions;\r\n    } \r\n\r\n    struct InkSubmissionExtension {\r\n        mapping(bytes32 => InkRevisionExtension) revisions;\r\n    }\r\n\r\n    struct InkRevisionExtension {\r\n        //ResponseRequest[] responseRequestsOnPost;\r\n        mapping(address => mapping(address => ResponseRequestReceipt)) userToResponderToRequestReceipt;\r\n        address[] responseRequestOffererUsers;\r\n        address[] responseRequestRecipientUsers;\r\n    }           \r\n\r\n    struct ResponseRequestReceipt {\r\n        bool exists;\r\n        /*address requestingUserAddress;\r\n        address respondingUserAddress;\r\n        address postUserAddress;\r\n        bytes32 postSubmissionHash;\r\n        bytes32 postRevisionHash;*/\r\n        uint timestampCreated;\r\n        uint bounty;\r\n        bool hasBeenCollected;\r\n        bool hasBeenRefunded;\r\n    }\r\n\r\n    mapping(address => InkAuthorgExtension) authorgExtensionMap;\r\n\r\n\r\n    // transactions\r\n    \r\n    function submitResponseRequest(address userToRespond, \r\n                                    address postUser, \r\n                                    bytes32 postSubmission, \r\n                                    bytes32 postRevision) \r\n    public payable \r\n    {\r\n        \r\n        require(userToRespond != msg.sender); // can't ask self to respond\r\n        require(userToRespond != postUser); // can't ask user to respond directly to themselves\r\n        //require(msg.value > bounty_fee);\r\n        \r\n        var request = ResponseRequestReceipt({\r\n            exists : true,\r\n            timestampCreated : block.timestamp,\r\n            bounty : msg.value,\r\n            hasBeenCollected : false,\r\n            hasBeenRefunded : false\r\n        });\r\n       \r\n        var hasUserMadeOfferOnPostToUserAlready = hasUserMadeOfferOnPostToUser(msg.sender, userToRespond, postUser, postSubmission, postRevision);\r\n        require(!hasUserMadeOfferOnPostToUserAlready);\r\n    \r\n        authorgExtensionMap[postUser]\r\n            .submissions[postSubmission]\r\n            .revisions[postRevision]\r\n            .userToResponderToRequestReceipt[msg.sender][userToRespond] = request;\r\n                \r\n        authorgExtensionMap[postUser]\r\n            .submissions[postSubmission]\r\n            .revisions[postRevision]\r\n            .responseRequestOffererUsers.push(msg.sender);\r\n\r\n        authorgExtensionMap[postUser]\r\n            .submissions[postSubmission]\r\n            .revisions[postRevision]\r\n            .responseRequestRecipientUsers.push(userToRespond);\r\n\r\n\r\n\r\n       authorgExtensionMap[msg.sender].responseRequestsOfferedToUsers.push(userToRespond);\r\n       authorgExtensionMap[msg.sender].responseRequestsOfferedToUsersPostUsers.push(postUser);\r\n       authorgExtensionMap[msg.sender].responseRequestsOfferedToUsersPostSubmissions.push(postSubmission);\r\n       authorgExtensionMap[msg.sender].responseRequestsOfferedToUsersPostRevisions.push(postRevision);\r\n\r\n       authorgExtensionMap[userToRespond].responseRequestsReceivedFromUsers.push(msg.sender);\r\n       authorgExtensionMap[userToRespond].responseRequestsReceivedFromUsersPostUsers.push(postUser);\r\n       authorgExtensionMap[userToRespond].responseRequestsReceivedFromUsersPostSubmissions.push(postSubmission);\r\n       authorgExtensionMap[userToRespond].responseRequestsReceivedFromUsersPostRevisions.push(postRevision);\r\n\r\n       ResponseRequestCreated(msg.sender, userToRespond, postUser, postSubmission, postRevision);\r\n       PostResponseRequestCreated(postUser, postSubmission, postRevision, msg.sender, userToRespond);\r\n    }\r\n\r\n    function getInkAddress() constant returns (address) {\r\n        return ink_address;\r\n    }\r\n\r\n    function doesUserReferencePost(address user, address postUser, bytes32 postSubmission, bytes32 postRevision) constant returns (bool) {\r\n        return AbstractInk(ink_address).doesPostReferencePost(user, postUser, postSubmission, postRevision);\r\n    }\r\n\r\n    function collectResponseRequestBounty(address offerUser, address postUser, bytes32 postSubmission, bytes32 postRevision) {\r\n\r\n        var receipt = authorgExtensionMap[postUser]\r\n            .submissions[postSubmission]\r\n            .revisions[postRevision]\r\n            .userToResponderToRequestReceipt[offerUser][msg.sender];\r\n\r\n        require(receipt.exists);\r\n\r\n        var hasReferenced = AbstractInk(ink_address).doesPostReferencePost(msg.sender, postUser, postSubmission, postRevision);\r\n        require(hasReferenced);\r\n\r\n        require(!receipt.hasBeenCollected);\r\n\r\n        var withinBountyLimit = now < (receipt.timestampCreated + (bounty_open_length_in_minutes * 1 minutes));\r\n        require(withinBountyLimit);\r\n            \r\n        receipt.hasBeenCollected = true;\r\n        \r\n        var bounty = receipt.bounty;\r\n\r\n        msg.sender.transfer(bounty);\r\n\r\n        ResponseRequestBountyCollected(offerUser, msg.sender, postUser, postSubmission, postRevision);\r\n        PostResponseRequestBountyCollected(postUser, postSubmission, postRevision, offerUser, msg.sender);\r\n    }\r\n\r\n    function refundResponseRequestBounty(address recipientUser, address postUser, bytes32 postSubmission, bytes32 postRevision) {\r\n\r\n        var receipt = authorgExtensionMap[postUser]\r\n            .submissions[postSubmission]\r\n            .revisions[postRevision]\r\n            .userToResponderToRequestReceipt[msg.sender][recipientUser];\r\n\r\n        require(receipt.exists);\r\n        require(!receipt.hasBeenCollected && !receipt.hasBeenRefunded);\r\n\r\n        //var outsideBountyLimit = now > (receipt.timestampCreated + (bounty_open_length_in_minutes * 1 minutes));\r\n        //require(outsideBountyLimit);\r\n\r\n        receipt.hasBeenRefunded = true;\r\n        \r\n        var bounty = receipt.bounty;\r\n\r\n        msg.sender.transfer(bounty);\r\n\r\n        ResponseRequestBountyRefunded(msg.sender, recipientUser, postUser, postSubmission, postRevision);\r\n        PostResponseRequestBountyRefunded(postUser, postSubmission, postRevision, msg.sender, recipientUser);\r\n    \r\n    }\r\n\r\n    // constant functions\r\n\r\n    /*function hasUserMadeOfferOnPost(address offerUser, address postUser, bytes32 postSubmission, bytes32 postRevision) constant returns (bool) {\r\n        return authorgExtensionMap[postUser].submissions[postSubmission].revisions[postRevision].userToResponseRequestOfferer[offerUser].exists;\r\n    }*/\r\n\r\n    function getUserBountiesCreated(address user) constant returns (address[] recipientUsers, address[] postUsers, bytes32[] postSubmissions, bytes32[] postRevisions) {\r\n        recipientUsers = authorgExtensionMap[user].responseRequestsOfferedToUsers;\r\n        postUsers = authorgExtensionMap[user].responseRequestsOfferedToUsersPostUsers;\r\n        postSubmissions = authorgExtensionMap[user].responseRequestsOfferedToUsersPostSubmissions;\r\n        postRevisions = authorgExtensionMap[user].responseRequestsOfferedToUsersPostRevisions;\r\n    }\r\n\r\n    function getUserBountiesReceived(address user) constant returns (address[] offererUsers, address[] postUsers, bytes32[] postSubmissions, bytes32[] postRevisions) {\r\n        offererUsers = authorgExtensionMap[user].responseRequestsReceivedFromUsers;\r\n        postUsers = authorgExtensionMap[user].responseRequestsReceivedFromUsersPostUsers;\r\n        postSubmissions = authorgExtensionMap[user].responseRequestsReceivedFromUsersPostSubmissions;\r\n        postRevisions = authorgExtensionMap[user].responseRequestsReceivedFromUsersPostRevisions;\r\n    }\r\n\r\n    function hasUserMadeOfferOnPostToUser(address offerUser, address recipientUser, address postUser, bytes32 postSubmission, bytes32 postRevision) constant returns (bool) {\r\n        return authorgExtensionMap[postUser].submissions[postSubmission].revisions[postRevision].userToResponderToRequestReceipt[offerUser][recipientUser].exists;\r\n    }\r\n\r\n    function hasUserCollectedBounty(address recipientUser, address offerUser, address postUser, bytes32 postSubmission, bytes32 postRevision) constant returns (bool) {\r\n        return authorgExtensionMap[postUser].submissions[postSubmission].revisions[postRevision].userToResponderToRequestReceipt[offerUser][recipientUser].hasBeenCollected;\r\n    }\r\n\r\n\r\n    function getOffererRecipientKeysForPost(address postUser, bytes32 postSubmission, bytes32 postRevision) constant returns (address[] offerers, address[] recipients) {\r\n        offerers = authorgExtensionMap[postUser]\r\n            .submissions[postSubmission]\r\n            .revisions[postRevision]\r\n            .responseRequestOffererUsers;\r\n\r\n        recipients = authorgExtensionMap[postUser]\r\n            .submissions[postSubmission]\r\n            .revisions[postRevision]\r\n            .responseRequestRecipientUsers;\r\n    }\r\n\r\n    function getReceipt(address postUser, bytes32 postSubmission, bytes32 postRevision, address offererUser, address recipientUser) \r\n    constant returns (bool exists, uint timestamp, uint bounty, bool collected, bool referenced, bool refunded)\r\n    {\r\n        var receipt = authorgExtensionMap[postUser]\r\n            .submissions[postSubmission]\r\n            .revisions[postRevision]\r\n            .userToResponderToRequestReceipt[offererUser][recipientUser];\r\n\r\n        var hasReferenced = AbstractInk(ink_address).doesPostReferencePost(msg.sender, postUser, postSubmission, postRevision);\r\n\r\n        return (receipt.exists, receipt.timestampCreated, receipt.bounty, receipt.hasBeenCollected, hasReferenced, receipt.hasBeenRefunded);\r\n    }\r\n}",
  "sourcePath": "E:\\Projects\\CitaDAO\\src\\app-contracts\\contracts\\CitadelResponseRequest.sol",
  "compiler": {
    "name": "solc",
    "version": "0.4.18+commit.9cf6e910.Emscripten.clang"
  },
  "schemaVersion": "1.0.1",
  "updatedAt": "2017-11-20T04:48:20.173Z"
}