{
  "contractName": "CitadelResponseRequest",
  "abi": [
    {
      "constant": false,
      "inputs": [
        {
          "name": "offerUser",
          "type": "address"
        },
        {
          "name": "postUser",
          "type": "address"
        },
        {
          "name": "postSubmission",
          "type": "uint256"
        },
        {
          "name": "postRevision",
          "type": "bytes32"
        }
      ],
      "name": "collectResponseRequestBounty",
      "outputs": [],
      "payable": false,
      "stateMutability": "nonpayable",
      "type": "function"
    },
    {
      "constant": true,
      "inputs": [
        {
          "name": "postUser",
          "type": "address"
        },
        {
          "name": "postSubmission",
          "type": "uint256"
        },
        {
          "name": "postRevision",
          "type": "bytes32"
        }
      ],
      "name": "getOffererRecipientKeysForPost",
      "outputs": [
        {
          "name": "offerers",
          "type": "address[]"
        },
        {
          "name": "recipients",
          "type": "address[]"
        }
      ],
      "payable": false,
      "stateMutability": "view",
      "type": "function"
    },
    {
      "constant": true,
      "inputs": [],
      "name": "getInkAddress",
      "outputs": [
        {
          "name": "",
          "type": "address"
        }
      ],
      "payable": false,
      "stateMutability": "view",
      "type": "function"
    },
    {
      "constant": true,
      "inputs": [],
      "name": "ink_address",
      "outputs": [
        {
          "name": "",
          "type": "address"
        }
      ],
      "payable": false,
      "stateMutability": "view",
      "type": "function"
    },
    {
      "constant": true,
      "inputs": [
        {
          "name": "user",
          "type": "address"
        }
      ],
      "name": "getUserBountiesReceived",
      "outputs": [
        {
          "name": "offererUsers",
          "type": "address[]"
        },
        {
          "name": "postUsers",
          "type": "address[]"
        },
        {
          "name": "postSubmissions",
          "type": "uint256[]"
        },
        {
          "name": "postRevisions",
          "type": "bytes32[]"
        }
      ],
      "payable": false,
      "stateMutability": "view",
      "type": "function"
    },
    {
      "constant": false,
      "inputs": [
        {
          "name": "userToRespond",
          "type": "address"
        },
        {
          "name": "postUser",
          "type": "address"
        },
        {
          "name": "postSubmission",
          "type": "uint256"
        },
        {
          "name": "postRevision",
          "type": "bytes32"
        }
      ],
      "name": "submitResponseRequest",
      "outputs": [],
      "payable": true,
      "stateMutability": "payable",
      "type": "function"
    },
    {
      "constant": true,
      "inputs": [
        {
          "name": "user",
          "type": "address"
        },
        {
          "name": "postUser",
          "type": "address"
        },
        {
          "name": "postSubmission",
          "type": "uint256"
        },
        {
          "name": "postRevision",
          "type": "bytes32"
        }
      ],
      "name": "doesUserReferencePost",
      "outputs": [
        {
          "name": "",
          "type": "bool"
        }
      ],
      "payable": false,
      "stateMutability": "view",
      "type": "function"
    },
    {
      "constant": true,
      "inputs": [
        {
          "name": "offerUser",
          "type": "address"
        },
        {
          "name": "recipientUser",
          "type": "address"
        },
        {
          "name": "postUser",
          "type": "address"
        },
        {
          "name": "postSubmission",
          "type": "uint256"
        },
        {
          "name": "postRevision",
          "type": "bytes32"
        }
      ],
      "name": "hasUserMadeOfferOnPostToUser",
      "outputs": [
        {
          "name": "",
          "type": "bool"
        }
      ],
      "payable": false,
      "stateMutability": "view",
      "type": "function"
    },
    {
      "constant": true,
      "inputs": [
        {
          "name": "user",
          "type": "address"
        }
      ],
      "name": "getUserBountiesCreated",
      "outputs": [
        {
          "name": "recipientUsers",
          "type": "address[]"
        },
        {
          "name": "postUsers",
          "type": "address[]"
        },
        {
          "name": "postSubmissions",
          "type": "uint256[]"
        },
        {
          "name": "postRevisions",
          "type": "bytes32[]"
        }
      ],
      "payable": false,
      "stateMutability": "view",
      "type": "function"
    },
    {
      "constant": false,
      "inputs": [
        {
          "name": "recipientUser",
          "type": "address"
        },
        {
          "name": "postUser",
          "type": "address"
        },
        {
          "name": "postSubmission",
          "type": "uint256"
        },
        {
          "name": "postRevision",
          "type": "bytes32"
        }
      ],
      "name": "refundResponseRequestBounty",
      "outputs": [],
      "payable": false,
      "stateMutability": "nonpayable",
      "type": "function"
    },
    {
      "constant": true,
      "inputs": [
        {
          "name": "postUser",
          "type": "address"
        },
        {
          "name": "postSubmission",
          "type": "uint256"
        },
        {
          "name": "postRevision",
          "type": "bytes32"
        },
        {
          "name": "offererUser",
          "type": "address"
        },
        {
          "name": "recipientUser",
          "type": "address"
        }
      ],
      "name": "getReceipt",
      "outputs": [
        {
          "name": "exists",
          "type": "bool"
        },
        {
          "name": "timestamp",
          "type": "uint256"
        },
        {
          "name": "bounty",
          "type": "uint256"
        },
        {
          "name": "collected",
          "type": "bool"
        },
        {
          "name": "referenced",
          "type": "bool"
        },
        {
          "name": "refunded",
          "type": "bool"
        }
      ],
      "payable": false,
      "stateMutability": "view",
      "type": "function"
    },
    {
      "constant": true,
      "inputs": [
        {
          "name": "recipientUser",
          "type": "address"
        },
        {
          "name": "offerUser",
          "type": "address"
        },
        {
          "name": "postUser",
          "type": "address"
        },
        {
          "name": "postSubmission",
          "type": "uint256"
        },
        {
          "name": "postRevision",
          "type": "bytes32"
        }
      ],
      "name": "hasUserCollectedBounty",
      "outputs": [
        {
          "name": "",
          "type": "bool"
        }
      ],
      "payable": false,
      "stateMutability": "view",
      "type": "function"
    },
    {
      "inputs": [
        {
          "name": "ink",
          "type": "address"
        },
        {
          "name": "bountyOpenLengthInMinutes",
          "type": "uint256"
        }
      ],
      "payable": false,
      "stateMutability": "nonpayable",
      "type": "constructor"
    },
    {
      "anonymous": false,
      "inputs": [
        {
          "indexed": true,
          "name": "_offererUser",
          "type": "address"
        },
        {
          "indexed": true,
          "name": "_recipientUser",
          "type": "address"
        },
        {
          "indexed": false,
          "name": "_postUser",
          "type": "address"
        },
        {
          "indexed": false,
          "name": "_postSumission",
          "type": "uint256"
        },
        {
          "indexed": false,
          "name": "_postRevision",
          "type": "bytes32"
        }
      ],
      "name": "ResponseRequestCreated",
      "type": "event"
    },
    {
      "anonymous": false,
      "inputs": [
        {
          "indexed": true,
          "name": "_postUser",
          "type": "address"
        },
        {
          "indexed": true,
          "name": "_postSumission",
          "type": "uint256"
        },
        {
          "indexed": true,
          "name": "_postRevision",
          "type": "bytes32"
        },
        {
          "indexed": false,
          "name": "_offererUser",
          "type": "address"
        },
        {
          "indexed": false,
          "name": "_recipientUser",
          "type": "address"
        }
      ],
      "name": "PostResponseRequestCreated",
      "type": "event"
    },
    {
      "anonymous": false,
      "inputs": [
        {
          "indexed": true,
          "name": "_offererUser",
          "type": "address"
        },
        {
          "indexed": true,
          "name": "_recipientUser",
          "type": "address"
        },
        {
          "indexed": false,
          "name": "_postUser",
          "type": "address"
        },
        {
          "indexed": false,
          "name": "_postSumission",
          "type": "uint256"
        },
        {
          "indexed": false,
          "name": "_postRevision",
          "type": "bytes32"
        }
      ],
      "name": "ResponseRequestBountyCollected",
      "type": "event"
    },
    {
      "anonymous": false,
      "inputs": [
        {
          "indexed": true,
          "name": "_postUser",
          "type": "address"
        },
        {
          "indexed": true,
          "name": "_postSumission",
          "type": "uint256"
        },
        {
          "indexed": true,
          "name": "_postRevision",
          "type": "bytes32"
        },
        {
          "indexed": false,
          "name": "_offererUser",
          "type": "address"
        },
        {
          "indexed": false,
          "name": "_recipientUser",
          "type": "address"
        }
      ],
      "name": "PostResponseRequestBountyCollected",
      "type": "event"
    },
    {
      "anonymous": false,
      "inputs": [
        {
          "indexed": true,
          "name": "_offererUser",
          "type": "address"
        },
        {
          "indexed": true,
          "name": "_recipientUser",
          "type": "address"
        },
        {
          "indexed": false,
          "name": "_postUser",
          "type": "address"
        },
        {
          "indexed": false,
          "name": "_postSumission",
          "type": "uint256"
        },
        {
          "indexed": false,
          "name": "_postRevision",
          "type": "bytes32"
        }
      ],
      "name": "ResponseRequestBountyRefunded",
      "type": "event"
    },
    {
      "anonymous": false,
      "inputs": [
        {
          "indexed": true,
          "name": "_postUser",
          "type": "address"
        },
        {
          "indexed": true,
          "name": "_postSumission",
          "type": "uint256"
        },
        {
          "indexed": true,
          "name": "_postRevision",
          "type": "bytes32"
        },
        {
          "indexed": false,
          "name": "_offererUser",
          "type": "address"
        },
        {
          "indexed": false,
          "name": "_recipientUser",
          "type": "address"
        }
      ],
      "name": "PostResponseRequestBountyRefunded",
      "type": "event"
    }
  ],
  "bytecode": "0x6060604052341561000f57600080fd5b6040516040806129c183398101604052808051906020019091908051906020019091905050816000806101000a81548173ffffffffffffffffffffffffffffffffffffffff021916908373ffffffffffffffffffffffffffffffffffffffff1602179055508060018190555050506129358061008c6000396000f3006060604052600436106100ba576000357c0100000000000000000000000000000000000000000000000000000000900463ffffffff16806303537c5c146100bf57806312f12cb31461012d57806325e0d20a1461021957806336421ef61461026e5780634235b09a146102c357806370c2f09714610429578063724f13cf1461048c5780637aaaec2814610512578063b6d01c1e146105b7578063c45245761461071d578063d89c652f1461078b578063d91b64f31461085f575b600080fd5b34156100ca57600080fd5b61012b600480803573ffffffffffffffffffffffffffffffffffffffff1690602001909190803573ffffffffffffffffffffffffffffffffffffffff1690602001909190803590602001909190803560001916906020019091905050610904565b005b341561013857600080fd5b61017a600480803573ffffffffffffffffffffffffffffffffffffffff1690602001909190803590602001909190803560001916906020019091905050610d53565b604051808060200180602001838103835285818151815260200191508051906020019060200280838360005b838110156101c15780820151818401526020810190506101a6565b50505050905001838103825284818151815260200191508051906020019060200280838360005b838110156102035780820151818401526020810190506101e8565b5050505090500194505050505060405180910390f35b341561022457600080fd5b61022c610f5d565b604051808273ffffffffffffffffffffffffffffffffffffffff1673ffffffffffffffffffffffffffffffffffffffff16815260200191505060405180910390f35b341561027957600080fd5b610281610f86565b604051808273ffffffffffffffffffffffffffffffffffffffff1673ffffffffffffffffffffffffffffffffffffffff16815260200191505060405180910390f35b34156102ce57600080fd5b6102fa600480803573ffffffffffffffffffffffffffffffffffffffff16906020019091905050610fab565b6040518080602001806020018060200180602001858103855289818151815260200191508051906020019060200280838360005b8381101561034957808201518184015260208101905061032e565b50505050905001858103845288818151815260200191508051906020019060200280838360005b8381101561038b578082015181840152602081019050610370565b50505050905001858103835287818151815260200191508051906020019060200280838360005b838110156103cd5780820151818401526020810190506103b2565b50505050905001858103825286818151815260200191508051906020019060200280838360005b8381101561040f5780820151818401526020810190506103f4565b505050509050019850505050505050505060405180910390f35b61048a600480803573ffffffffffffffffffffffffffffffffffffffff1690602001909190803573ffffffffffffffffffffffffffffffffffffffff169060200190919080359060200190919080356000191690602001909190505061128e565b005b341561049757600080fd5b6104f8600480803573ffffffffffffffffffffffffffffffffffffffff1690602001909190803573ffffffffffffffffffffffffffffffffffffffff1690602001909190803590602001909190803560001916906020019091905050611c08565b604051808215151515815260200191505060405180910390f35b341561051d57600080fd5b61059d600480803573ffffffffffffffffffffffffffffffffffffffff1690602001909190803573ffffffffffffffffffffffffffffffffffffffff1690602001909190803573ffffffffffffffffffffffffffffffffffffffff1690602001909190803590602001909190803560001916906020019091905050611d3f565b604051808215151515815260200191505060405180910390f35b34156105c257600080fd5b6105ee600480803573ffffffffffffffffffffffffffffffffffffffff16906020019091905050611e49565b6040518080602001806020018060200180602001858103855289818151815260200191508051906020019060200280838360005b8381101561063d578082015181840152602081019050610622565b50505050905001858103845288818151815260200191508051906020019060200280838360005b8381101561067f578082015181840152602081019050610664565b50505050905001858103835287818151815260200191508051906020019060200280838360005b838110156106c15780820151818401526020810190506106a6565b50505050905001858103825286818151815260200191508051906020019060200280838360005b838110156107035780820151818401526020810190506106e8565b505050509050019850505050505050505060405180910390f35b341561072857600080fd5b610789600480803573ffffffffffffffffffffffffffffffffffffffff1690602001909190803573ffffffffffffffffffffffffffffffffffffffff169060200190919080359060200190919080356000191690602001909190505061212c565b005b341561079657600080fd5b610816600480803573ffffffffffffffffffffffffffffffffffffffff169060200190919080359060200190919080356000191690602001909190803573ffffffffffffffffffffffffffffffffffffffff1690602001909190803573ffffffffffffffffffffffffffffffffffffffff1690602001909190505061243c565b6040518087151515158152602001868152602001858152602001841515151581526020018315151515815260200182151515158152602001965050505050505060405180910390f35b341561086a57600080fd5b6108ea600480803573ffffffffffffffffffffffffffffffffffffffff1690602001909190803573ffffffffffffffffffffffffffffffffffffffff1690602001909190803573ffffffffffffffffffffffffffffffffffffffff16906020019091908035906020019091908035600019169060200190919050506126bf565b604051808215151515815260200191505060405180910390f35b600080600080600260008873ffffffffffffffffffffffffffffffffffffffff1673ffffffffffffffffffffffffffffffffffffffff16815260200190815260200160002060000160008781526020019081526020016000206000016000866000191660001916815260200190815260200160002060000160008973ffffffffffffffffffffffffffffffffffffffff1673ffffffffffffffffffffffffffffffffffffffff16815260200190815260200160002060003373ffffffffffffffffffffffffffffffffffffffff1673ffffffffffffffffffffffffffffffffffffffff16815260200190815260200160002093508360000160009054906101000a900460ff161515610a1557600080fd5b6000809054906101000a900473ffffffffffffffffffffffffffffffffffffffff1673ffffffffffffffffffffffffffffffffffffffff166340bb0193338989896000604051602001526040518563ffffffff167c0100000000000000000000000000000000000000000000000000000000028152600401808573ffffffffffffffffffffffffffffffffffffffff1673ffffffffffffffffffffffffffffffffffffffff1681526020018473ffffffffffffffffffffffffffffffffffffffff1673ffffffffffffffffffffffffffffffffffffffff1681526020018381526020018260001916600019168152602001945050505050602060405180830381600087803b1515610b2557600080fd5b6102c65a03f11515610b3657600080fd5b505050604051805190509250821515610b4e57600080fd5b8360030160009054906101000a900460ff16151515610b6c57600080fd5b603c6001540284600101540142109150811515610b8857600080fd5b60018460030160006101000a81548160ff021916908315150217905550836002015490503373ffffffffffffffffffffffffffffffffffffffff166108fc829081150290604051600060405180830381858888f193505050501515610bec57600080fd5b3373ffffffffffffffffffffffffffffffffffffffff168873ffffffffffffffffffffffffffffffffffffffff167fb8b518753dc70c4ef581ab7a502528b5ec77a0e71bb79b5c221e9cf142ee3dc6898989604051808473ffffffffffffffffffffffffffffffffffffffff1673ffffffffffffffffffffffffffffffffffffffff1681526020018381526020018260001916600019168152602001935050505060405180910390a38460001916868873ffffffffffffffffffffffffffffffffffffffff167f9675f93584b700c42f803cb21ef7694cdc640ff5b8cc17ec80efc258f5e6d0598b33604051808373ffffffffffffffffffffffffffffffffffffffff1673ffffffffffffffffffffffffffffffffffffffff1681526020018273ffffffffffffffffffffffffffffffffffffffff1673ffffffffffffffffffffffffffffffffffffffff1681526020019250505060405180910390a45050505050505050565b610d5b6127c9565b610d636127c9565b600260008673ffffffffffffffffffffffffffffffffffffffff1673ffffffffffffffffffffffffffffffffffffffff168152602001908152602001600020600001600085815260200190815260200160002060000160008460001916600019168152602001908152602001600020600101805480602002602001604051908101604052809291908181526020018280548015610e5557602002820191906000526020600020905b8160009054906101000a900473ffffffffffffffffffffffffffffffffffffffff1673ffffffffffffffffffffffffffffffffffffffff1681526020019060010190808311610e0b575b50505050509150600260008673ffffffffffffffffffffffffffffffffffffffff1673ffffffffffffffffffffffffffffffffffffffff168152602001908152602001600020600001600085815260200190815260200160002060000160008460001916600019168152602001908152602001600020600201805480602002602001604051908101604052809291908181526020018280548015610f4e57602002820191906000526020600020905b8160009054906101000a900473ffffffffffffffffffffffffffffffffffffffff1673ffffffffffffffffffffffffffffffffffffffff1681526020019060010190808311610f04575b50505050509050935093915050565b60008060009054906101000a900473ffffffffffffffffffffffffffffffffffffffff16905090565b6000809054906101000a900473ffffffffffffffffffffffffffffffffffffffff1681565b610fb36127c9565b610fbb6127c9565b610fc36127dd565b610fcb6127f1565b600260008673ffffffffffffffffffffffffffffffffffffffff1673ffffffffffffffffffffffffffffffffffffffff16815260200190815260200160002060050180548060200260200160405190810160405280929190818152602001828054801561108d57602002820191906000526020600020905b8160009054906101000a900473ffffffffffffffffffffffffffffffffffffffff1673ffffffffffffffffffffffffffffffffffffffff1681526020019060010190808311611043575b50505050509350600260008673ffffffffffffffffffffffffffffffffffffffff1673ffffffffffffffffffffffffffffffffffffffff16815260200190815260200160002060060180548060200260200160405190810160405280929190818152602001828054801561115657602002820191906000526020600020905b8160009054906101000a900473ffffffffffffffffffffffffffffffffffffffff1673ffffffffffffffffffffffffffffffffffffffff168152602001906001019080831161110c575b50505050509250600260008673ffffffffffffffffffffffffffffffffffffffff1673ffffffffffffffffffffffffffffffffffffffff1681526020019081526020016000206007018054806020026020016040519081016040528092919081815260200182805480156111e957602002820191906000526020600020905b8154815260200190600101908083116111d5575b50505050509150600260008673ffffffffffffffffffffffffffffffffffffffff1673ffffffffffffffffffffffffffffffffffffffff16815260200190815260200160002060080180548060200260200160405190810160405280929190818152602001828054801561128057602002820191906000526020600020905b81546000191681526020019060010190808311611268575b505050505090509193509193565b611296612805565b60003373ffffffffffffffffffffffffffffffffffffffff168673ffffffffffffffffffffffffffffffffffffffff16141515156112d357600080fd5b8473ffffffffffffffffffffffffffffffffffffffff168673ffffffffffffffffffffffffffffffffffffffff161415151561130e57600080fd5b60a06040519081016040528060011515815260200142815260200134815260200160001515815260200160001515815250915061134e3387878787611d3f565b90508015151561135d57600080fd5b81600260008773ffffffffffffffffffffffffffffffffffffffff1673ffffffffffffffffffffffffffffffffffffffff16815260200190815260200160002060000160008681526020019081526020016000206000016000856000191660001916815260200190815260200160002060000160003373ffffffffffffffffffffffffffffffffffffffff1673ffffffffffffffffffffffffffffffffffffffff16815260200190815260200160002060008873ffffffffffffffffffffffffffffffffffffffff1673ffffffffffffffffffffffffffffffffffffffff16815260200190815260200160002060008201518160000160006101000a81548160ff021916908315150217905550602082015181600101556040820151816002015560608201518160030160006101000a81548160ff02191690831515021790555060808201518160030160016101000a81548160ff021916908315150217905550905050600260008673ffffffffffffffffffffffffffffffffffffffff1673ffffffffffffffffffffffffffffffffffffffff1681526020019081526020016000206000016000858152602001908152602001600020600001600084600019166000191681526020019081526020016000206001018054806001018281611545919061283b565b9160005260206000209001600033909190916101000a81548173ffffffffffffffffffffffffffffffffffffffff021916908373ffffffffffffffffffffffffffffffffffffffff16021790555050600260008673ffffffffffffffffffffffffffffffffffffffff1673ffffffffffffffffffffffffffffffffffffffff1681526020019081526020016000206000016000858152602001908152602001600020600001600084600019166000191681526020019081526020016000206002018054806001018281611618919061283b565b9160005260206000209001600088909190916101000a81548173ffffffffffffffffffffffffffffffffffffffff021916908373ffffffffffffffffffffffffffffffffffffffff16021790555050600260003373ffffffffffffffffffffffffffffffffffffffff1673ffffffffffffffffffffffffffffffffffffffff16815260200190815260200160002060010180548060010182816116bb919061283b565b9160005260206000209001600088909190916101000a81548173ffffffffffffffffffffffffffffffffffffffff021916908373ffffffffffffffffffffffffffffffffffffffff16021790555050600260003373ffffffffffffffffffffffffffffffffffffffff1673ffffffffffffffffffffffffffffffffffffffff168152602001908152602001600020600201805480600101828161175e919061283b565b9160005260206000209001600087909190916101000a81548173ffffffffffffffffffffffffffffffffffffffff021916908373ffffffffffffffffffffffffffffffffffffffff16021790555050600260003373ffffffffffffffffffffffffffffffffffffffff1673ffffffffffffffffffffffffffffffffffffffff16815260200190815260200160002060030180548060010182816118019190612867565b916000526020600020900160008690919091505550600260003373ffffffffffffffffffffffffffffffffffffffff1673ffffffffffffffffffffffffffffffffffffffff168152602001908152602001600020600401805480600101828161186a9190612893565b916000526020600020900160008590919091509060001916905550600260008773ffffffffffffffffffffffffffffffffffffffff1673ffffffffffffffffffffffffffffffffffffffff16815260200190815260200160002060050180548060010182816118d9919061283b565b9160005260206000209001600033909190916101000a81548173ffffffffffffffffffffffffffffffffffffffff021916908373ffffffffffffffffffffffffffffffffffffffff16021790555050600260008773ffffffffffffffffffffffffffffffffffffffff1673ffffffffffffffffffffffffffffffffffffffff168152602001908152602001600020600601805480600101828161197c919061283b565b9160005260206000209001600087909190916101000a81548173ffffffffffffffffffffffffffffffffffffffff021916908373ffffffffffffffffffffffffffffffffffffffff16021790555050600260008773ffffffffffffffffffffffffffffffffffffffff1673ffffffffffffffffffffffffffffffffffffffff1681526020019081526020016000206007018054806001018281611a1f9190612867565b916000526020600020900160008690919091505550600260008773ffffffffffffffffffffffffffffffffffffffff1673ffffffffffffffffffffffffffffffffffffffff1681526020019081526020016000206008018054806001018281611a889190612893565b9160005260206000209001600085909190915090600019169055508573ffffffffffffffffffffffffffffffffffffffff163373ffffffffffffffffffffffffffffffffffffffff167f87001a27e14f3c855155fbee542b4d548e9b29669472638dfc992303f75a24b8878787604051808473ffffffffffffffffffffffffffffffffffffffff1673ffffffffffffffffffffffffffffffffffffffff1681526020018381526020018260001916600019168152602001935050505060405180910390a38260001916848673ffffffffffffffffffffffffffffffffffffffff167f53595d21ab7f647260d2b44a27e4a0b9f92752576e5032b93524cb783ea1cac3338a604051808373ffffffffffffffffffffffffffffffffffffffff1673ffffffffffffffffffffffffffffffffffffffff1681526020018273ffffffffffffffffffffffffffffffffffffffff1673ffffffffffffffffffffffffffffffffffffffff1681526020019250505060405180910390a4505050505050565b60008060009054906101000a900473ffffffffffffffffffffffffffffffffffffffff1673ffffffffffffffffffffffffffffffffffffffff166340bb0193868686866000604051602001526040518563ffffffff167c0100000000000000000000000000000000000000000000000000000000028152600401808573ffffffffffffffffffffffffffffffffffffffff1673ffffffffffffffffffffffffffffffffffffffff1681526020018473ffffffffffffffffffffffffffffffffffffffff1673ffffffffffffffffffffffffffffffffffffffff1681526020018381526020018260001916600019168152602001945050505050602060405180830381600087803b1515611d1a57600080fd5b6102c65a03f11515611d2b57600080fd5b505050604051805190509050949350505050565b6000600260008573ffffffffffffffffffffffffffffffffffffffff1673ffffffffffffffffffffffffffffffffffffffff16815260200190815260200160002060000160008481526020019081526020016000206000016000836000191660001916815260200190815260200160002060000160008773ffffffffffffffffffffffffffffffffffffffff1673ffffffffffffffffffffffffffffffffffffffff16815260200190815260200160002060008673ffffffffffffffffffffffffffffffffffffffff1673ffffffffffffffffffffffffffffffffffffffff16815260200190815260200160002060000160009054906101000a900460ff16905095945050505050565b611e516127c9565b611e596127c9565b611e616127dd565b611e696127f1565b600260008673ffffffffffffffffffffffffffffffffffffffff1673ffffffffffffffffffffffffffffffffffffffff168152602001908152602001600020600101805480602002602001604051908101604052809291908181526020018280548015611f2b57602002820191906000526020600020905b8160009054906101000a900473ffffffffffffffffffffffffffffffffffffffff1673ffffffffffffffffffffffffffffffffffffffff1681526020019060010190808311611ee1575b50505050509350600260008673ffffffffffffffffffffffffffffffffffffffff1673ffffffffffffffffffffffffffffffffffffffff168152602001908152602001600020600201805480602002602001604051908101604052809291908181526020018280548015611ff457602002820191906000526020600020905b8160009054906101000a900473ffffffffffffffffffffffffffffffffffffffff1673ffffffffffffffffffffffffffffffffffffffff1681526020019060010190808311611faa575b50505050509250600260008673ffffffffffffffffffffffffffffffffffffffff1673ffffffffffffffffffffffffffffffffffffffff16815260200190815260200160002060030180548060200260200160405190810160405280929190818152602001828054801561208757602002820191906000526020600020905b815481526020019060010190808311612073575b50505050509150600260008673ffffffffffffffffffffffffffffffffffffffff1673ffffffffffffffffffffffffffffffffffffffff16815260200190815260200160002060040180548060200260200160405190810160405280929190818152602001828054801561211e57602002820191906000526020600020905b81546000191681526020019060010190808311612106575b505050505090509193509193565b600080600260008673ffffffffffffffffffffffffffffffffffffffff1673ffffffffffffffffffffffffffffffffffffffff16815260200190815260200160002060000160008581526020019081526020016000206000016000846000191660001916815260200190815260200160002060000160003373ffffffffffffffffffffffffffffffffffffffff1673ffffffffffffffffffffffffffffffffffffffff16815260200190815260200160002060008773ffffffffffffffffffffffffffffffffffffffff1673ffffffffffffffffffffffffffffffffffffffff16815260200190815260200160002091508160000160009054906101000a900460ff16151561223a57600080fd5b8160030160009054906101000a900460ff1615801561226857508160030160019054906101000a900460ff16155b151561227357600080fd5b60018260030160016101000a81548160ff021916908315150217905550816002015490503373ffffffffffffffffffffffffffffffffffffffff166108fc829081150290604051600060405180830381858888f1935050505015156122d757600080fd5b8573ffffffffffffffffffffffffffffffffffffffff163373ffffffffffffffffffffffffffffffffffffffff167fca337a919e5fa2d161ecd052de0f00be55beb6d2b14053758d2ec95521747df3878787604051808473ffffffffffffffffffffffffffffffffffffffff1673ffffffffffffffffffffffffffffffffffffffff1681526020018381526020018260001916600019168152602001935050505060405180910390a38260001916848673ffffffffffffffffffffffffffffffffffffffff167fa48b67e7f7427ef11fc3c948133c6b2702f187ad05b6c7e2a65822695b8ef7c0338a604051808373ffffffffffffffffffffffffffffffffffffffff1673ffffffffffffffffffffffffffffffffffffffff1681526020018273ffffffffffffffffffffffffffffffffffffffff1673ffffffffffffffffffffffffffffffffffffffff1681526020019250505060405180910390a4505050505050565b600080600080600080600080600260008e73ffffffffffffffffffffffffffffffffffffffff1673ffffffffffffffffffffffffffffffffffffffff16815260200190815260200160002060000160008d815260200190815260200160002060000160008c6000191660001916815260200190815260200160002060000160008b73ffffffffffffffffffffffffffffffffffffffff1673ffffffffffffffffffffffffffffffffffffffff16815260200190815260200160002060008a73ffffffffffffffffffffffffffffffffffffffff1673ffffffffffffffffffffffffffffffffffffffff16815260200190815260200160002091506000809054906101000a900473ffffffffffffffffffffffffffffffffffffffff1673ffffffffffffffffffffffffffffffffffffffff166340bb0193338f8f8f6000604051602001526040518563ffffffff167c0100000000000000000000000000000000000000000000000000000000028152600401808573ffffffffffffffffffffffffffffffffffffffff1673ffffffffffffffffffffffffffffffffffffffff1681526020018473ffffffffffffffffffffffffffffffffffffffff1673ffffffffffffffffffffffffffffffffffffffff1681526020018381526020018260001916600019168152602001945050505050602060405180830381600087803b151561264657600080fd5b6102c65a03f1151561265757600080fd5b5050506040518051905090508160000160009054906101000a900460ff16826001015483600201548460030160009054906101000a900460ff16848660030160019054906101000a900460ff1697509750975097509750975050509550955095509550955095565b6000600260008573ffffffffffffffffffffffffffffffffffffffff1673ffffffffffffffffffffffffffffffffffffffff16815260200190815260200160002060000160008481526020019081526020016000206000016000836000191660001916815260200190815260200160002060000160008673ffffffffffffffffffffffffffffffffffffffff1673ffffffffffffffffffffffffffffffffffffffff16815260200190815260200160002060008773ffffffffffffffffffffffffffffffffffffffff1673ffffffffffffffffffffffffffffffffffffffff16815260200190815260200160002060030160009054906101000a900460ff16905095945050505050565b602060405190810160405280600081525090565b602060405190810160405280600081525090565b602060405190810160405280600081525090565b60a06040519081016040528060001515815260200160008152602001600081526020016000151581526020016000151581525090565b8154818355818115116128625781836000526020600020918201910161286191906128bf565b5b505050565b81548183558181151161288e5781836000526020600020918201910161288d91906128bf565b5b505050565b8154818355818115116128ba578183600052602060002091820191016128b991906128e4565b5b505050565b6128e191905b808211156128dd5760008160009055506001016128c5565b5090565b90565b61290691905b808211156129025760008160009055506001016128ea565b5090565b905600a165627a7a72305820722da426d30c053de5471cd8d1aa508b2595d375472796923aadc9a419352c8c0029",
  "source": "pragma solidity ^0.4.13;\n\ncontract AbstractInk {\n    function doesPostReferencePost(address postUserAddress, \n                                    address originalPostUserAddress, \n                                    uint originalPostsubmissionIndex, \n                                    bytes32 originalPostRevisionHash) public constant returns (bool isPostRef);\n}\n\ncontract CitadelResponseRequest {\n\n    event ResponseRequestCreated(address indexed _offererUser, \n                                address indexed _recipientUser, \n                                address _postUser, \n                                uint _postSumission, \n                                bytes32 _postRevision);\n\n    event PostResponseRequestCreated(address indexed _postUser, \n                                    uint indexed _postSumission, \n                                    bytes32 indexed _postRevision, \n                                    address _offererUser, \n                                    address _recipientUser);\n\n    event ResponseRequestBountyCollected(address indexed _offererUser, \n                                        address indexed _recipientUser, \n                                        address _postUser, \n                                        uint _postSumission, \n                                        bytes32 _postRevision);\n\n    event PostResponseRequestBountyCollected(address indexed _postUser, \n                                            uint indexed _postSumission, \n                                            bytes32 indexed _postRevision, \n                                            address _offererUser, \n                                            address _recipientUser);\n\n    event ResponseRequestBountyRefunded(address indexed _offererUser, \n                                        address indexed _recipientUser, \n                                        address _postUser, \n                                        uint _postSumission, \n                                        bytes32 _postRevision);\n\n    event PostResponseRequestBountyRefunded(address indexed _postUser, \n                                            uint indexed _postSumission, \n                                            bytes32 indexed _postRevision, \n                                            address _offererUser, \n                                            address _recipientUser);\n\n\n    address public ink_address;\n\n    uint bounty_open_length_in_minutes;\n\n    function CitadelResponseRequest(address ink, uint bountyOpenLengthInMinutes) public {\n        ink_address = ink;\n        bounty_open_length_in_minutes = bountyOpenLengthInMinutes;\n    }\n\n    // and some reaction stuff  \n    struct InkAuthorgExtension {\n        mapping(uint => InkSubmissionExtension) submissions;\n\n        // these 4 will always have the same length. the 4 elements at each index function as a key to find response requests offered\n        address[] responseRequestsOfferedToUsers;\n        address[] responseRequestsOfferedToUsersPostUsers;\n        uint[] responseRequestsOfferedToUsersPostSubmissions;\n        bytes32[] responseRequestsOfferedToUsersPostRevisions;\n\n\n        // these 4 will always have the same length. the 4 elements at each index function as a key to find response requests received\n        address[] responseRequestsReceivedFromUsers;\n        address[] responseRequestsReceivedFromUsersPostUsers;\n        uint[] responseRequestsReceivedFromUsersPostSubmissions;\n        bytes32[] responseRequestsReceivedFromUsersPostRevisions;\n    } \n\n    struct InkSubmissionExtension {\n        mapping(bytes32 => InkRevisionExtension) revisions;\n    }\n\n    struct InkRevisionExtension {\n        mapping(address => mapping(address => ResponseRequestReceipt)) userToResponderToRequestReceipt;\n        address[] responseRequestOffererUsers;\n        address[] responseRequestRecipientUsers;\n    }           \n\n    struct ResponseRequestReceipt {\n        bool exists;\n        uint timestampCreated;\n        uint bounty;\n        bool hasBeenCollected;\n        bool hasBeenRefunded;\n    }\n\n    mapping(address => InkAuthorgExtension) authorgExtensionMap;\n\n\n    // transactions\n    \n    function submitResponseRequest(address userToRespond, \n                                    address postUser, \n                                    uint postSubmission, \n                                    bytes32 postRevision) \n    public payable \n    {\n        \n        require(userToRespond != msg.sender); // can't ask self to respond\n        require(userToRespond != postUser); // can't ask user to respond directly to themselves\n        //require(msg.value > bounty_fee);\n        \n        var request = ResponseRequestReceipt({\n            exists : true,\n            timestampCreated : block.timestamp,\n            bounty : msg.value,\n            hasBeenCollected : false,\n            hasBeenRefunded : false\n        });\n       \n        var hasUserMadeOfferOnPostToUserAlready = hasUserMadeOfferOnPostToUser(msg.sender, userToRespond, postUser, postSubmission, postRevision);\n        require(!hasUserMadeOfferOnPostToUserAlready);\n    \n        authorgExtensionMap[postUser]\n            .submissions[postSubmission]\n            .revisions[postRevision]\n            .userToResponderToRequestReceipt[msg.sender][userToRespond] = request;\n                \n        authorgExtensionMap[postUser]\n            .submissions[postSubmission]\n            .revisions[postRevision]\n            .responseRequestOffererUsers.push(msg.sender);\n\n        authorgExtensionMap[postUser]\n            .submissions[postSubmission]\n            .revisions[postRevision]\n            .responseRequestRecipientUsers.push(userToRespond);\n\n\n\n       authorgExtensionMap[msg.sender].responseRequestsOfferedToUsers.push(userToRespond);\n       authorgExtensionMap[msg.sender].responseRequestsOfferedToUsersPostUsers.push(postUser);\n       authorgExtensionMap[msg.sender].responseRequestsOfferedToUsersPostSubmissions.push(postSubmission);\n       authorgExtensionMap[msg.sender].responseRequestsOfferedToUsersPostRevisions.push(postRevision);\n\n       authorgExtensionMap[userToRespond].responseRequestsReceivedFromUsers.push(msg.sender);\n       authorgExtensionMap[userToRespond].responseRequestsReceivedFromUsersPostUsers.push(postUser);\n       authorgExtensionMap[userToRespond].responseRequestsReceivedFromUsersPostSubmissions.push(postSubmission);\n       authorgExtensionMap[userToRespond].responseRequestsReceivedFromUsersPostRevisions.push(postRevision);\n\n       ResponseRequestCreated(msg.sender, userToRespond, postUser, postSubmission, postRevision);\n       PostResponseRequestCreated(postUser, postSubmission, postRevision, msg.sender, userToRespond);\n    }\n\n    function getInkAddress() public constant returns (address) {\n        return ink_address;\n    }\n\n    function doesUserReferencePost(address user, address postUser, uint postSubmission, bytes32 postRevision) public constant returns (bool) {\n        return AbstractInk(ink_address).doesPostReferencePost(user, postUser, postSubmission, postRevision);\n    }\n\n    function collectResponseRequestBounty(address offerUser, address postUser, uint postSubmission, bytes32 postRevision) public {\n\n        var receipt = authorgExtensionMap[postUser]\n            .submissions[postSubmission]\n            .revisions[postRevision]\n            .userToResponderToRequestReceipt[offerUser][msg.sender];\n\n        require(receipt.exists);\n\n        var hasReferenced = AbstractInk(ink_address).doesPostReferencePost(msg.sender, postUser, postSubmission, postRevision);\n        require(hasReferenced);\n\n        require(!receipt.hasBeenCollected);\n\n        var withinBountyLimit = now < (receipt.timestampCreated + (bounty_open_length_in_minutes * 1 minutes));\n        require(withinBountyLimit);\n            \n        receipt.hasBeenCollected = true;\n        \n        var bounty = receipt.bounty;\n\n        msg.sender.transfer(bounty);\n\n        ResponseRequestBountyCollected(offerUser, msg.sender, postUser, postSubmission, postRevision);\n        PostResponseRequestBountyCollected(postUser, postSubmission, postRevision, offerUser, msg.sender);\n    }\n\n    function refundResponseRequestBounty(address recipientUser, address postUser, uint postSubmission, bytes32 postRevision) public {\n\n        var receipt = authorgExtensionMap[postUser]\n            .submissions[postSubmission]\n            .revisions[postRevision]\n            .userToResponderToRequestReceipt[msg.sender][recipientUser];\n\n        require(receipt.exists);\n        require(!receipt.hasBeenCollected && !receipt.hasBeenRefunded);\n\n        //var outsideBountyLimit = now > (receipt.timestampCreated + (bounty_open_length_in_minutes * 1 minutes));\n        //require(outsideBountyLimit);\n\n        receipt.hasBeenRefunded = true;\n        \n        var bounty = receipt.bounty;\n\n        msg.sender.transfer(bounty);\n\n        ResponseRequestBountyRefunded(msg.sender, recipientUser, postUser, postSubmission, postRevision);\n        PostResponseRequestBountyRefunded(postUser, postSubmission, postRevision, msg.sender, recipientUser);\n    \n    }\n\n    // constant functions\n\n    /*function hasUserMadeOfferOnPost(address offerUser, address postUser, bytes32 postSubmission, bytes32 postRevision) constant returns (bool) {\n        return authorgExtensionMap[postUser].submissions[postSubmission].revisions[postRevision].userToResponseRequestOfferer[offerUser].exists;\n    }*/\n\n    function getUserBountiesCreated(address user) \n        public constant returns (address[] recipientUsers, address[] postUsers, uint[] postSubmissions, bytes32[] postRevisions) {\n        recipientUsers = authorgExtensionMap[user].responseRequestsOfferedToUsers;\n        postUsers = authorgExtensionMap[user].responseRequestsOfferedToUsersPostUsers;\n        postSubmissions = authorgExtensionMap[user].responseRequestsOfferedToUsersPostSubmissions;\n        postRevisions = authorgExtensionMap[user].responseRequestsOfferedToUsersPostRevisions;\n    }\n\n    function getUserBountiesReceived(address user) \n        public constant returns (address[] offererUsers, address[] postUsers, uint[] postSubmissions, bytes32[] postRevisions) {\n        offererUsers = authorgExtensionMap[user].responseRequestsReceivedFromUsers;\n        postUsers = authorgExtensionMap[user].responseRequestsReceivedFromUsersPostUsers;\n        postSubmissions = authorgExtensionMap[user].responseRequestsReceivedFromUsersPostSubmissions;\n        postRevisions = authorgExtensionMap[user].responseRequestsReceivedFromUsersPostRevisions;\n    }\n\n    function hasUserMadeOfferOnPostToUser(address offerUser, \n                                            address recipientUser, \n                                            address postUser, \n                                            uint postSubmission, \n                                            bytes32 postRevision) \n                                            public constant returns (bool) {\n        return authorgExtensionMap[postUser].submissions[postSubmission].revisions[postRevision].userToResponderToRequestReceipt[offerUser][recipientUser].exists;\n    }\n\n    function hasUserCollectedBounty(address recipientUser, \n                                    address offerUser, \n                                    address postUser, \n                                    uint postSubmission, \n                                    bytes32 postRevision) \n                                    public constant returns (bool) {\n        return authorgExtensionMap[postUser].submissions[postSubmission].revisions[postRevision].userToResponderToRequestReceipt[offerUser][recipientUser].hasBeenCollected;\n    }\n\n\n    function getOffererRecipientKeysForPost(address postUser, uint postSubmission, bytes32 postRevision) public constant returns (address[] offerers, address[] recipients) {\n        offerers = authorgExtensionMap[postUser]\n            .submissions[postSubmission]\n            .revisions[postRevision]\n            .responseRequestOffererUsers;\n\n        recipients = authorgExtensionMap[postUser]\n            .submissions[postSubmission]\n            .revisions[postRevision]\n            .responseRequestRecipientUsers;\n    }\n\n    function getReceipt(address postUser, uint postSubmission, bytes32 postRevision, address offererUser, address recipientUser) \n    public constant returns (bool exists, uint timestamp, uint bounty, bool collected, bool referenced, bool refunded)\n    {\n        var receipt = authorgExtensionMap[postUser]\n            .submissions[postSubmission]\n            .revisions[postRevision]\n            .userToResponderToRequestReceipt[offererUser][recipientUser];\n\n        var hasReferenced = AbstractInk(ink_address).doesPostReferencePost(msg.sender, postUser, postSubmission, postRevision);\n\n        return (receipt.exists, receipt.timestampCreated, receipt.bounty, receipt.hasBeenCollected, hasReferenced, receipt.hasBeenRefunded);\n    }\n}",
  "sourcePath": "/home/nort7/Ethereum/citadao/src/app-contracts/contracts/CitadelResponseRequest.sol",
  "compiler": {
    "name": "solc",
    "version": "0.4.18+commit.9cf6e910.Emscripten.clang"
  },
  "schemaVersion": "1.0.1",
  "updatedAt": "2017-11-22T08:31:07.362Z"
}