{
  "contractName": "Ink",
  "abi": [
    {
      "constant": true,
      "inputs": [
        {
          "name": "authorgAddress",
          "type": "address"
        },
        {
          "name": "submissionIndex",
          "type": "uint256"
        },
        {
          "name": "revisionHash",
          "type": "bytes32"
        }
      ],
      "name": "isAuthorgOfSubmissionRevision",
      "outputs": [
        {
          "name": "",
          "type": "bool"
        }
      ],
      "payable": false,
      "stateMutability": "view",
      "type": "function"
    },
    {
      "constant": true,
      "inputs": [
        {
          "name": "authorgAddress",
          "type": "address"
        },
        {
          "name": "submissionIndex",
          "type": "uint256"
        },
        {
          "name": "revisionHash",
          "type": "bytes32"
        },
        {
          "name": "index",
          "type": "uint256"
        }
      ],
      "name": "getReferenceForAuthorgSubmissionRevision",
      "outputs": [
        {
          "name": "",
          "type": "address"
        },
        {
          "name": "",
          "type": "uint256"
        },
        {
          "name": "",
          "type": "bytes32"
        },
        {
          "name": "",
          "type": "uint256"
        }
      ],
      "payable": false,
      "stateMutability": "view",
      "type": "function"
    },
    {
      "constant": true,
      "inputs": [
        {
          "name": "postUserAddress",
          "type": "address"
        },
        {
          "name": "originalPostUserAddress",
          "type": "address"
        },
        {
          "name": "originalPostsubmissionIndex",
          "type": "uint256"
        },
        {
          "name": "originalPostRevisionHash",
          "type": "bytes32"
        }
      ],
      "name": "constDoesPostReferencePost",
      "outputs": [
        {
          "name": "",
          "type": "bool"
        }
      ],
      "payable": false,
      "stateMutability": "view",
      "type": "function"
    },
    {
      "constant": true,
      "inputs": [
        {
          "name": "authorgAddress",
          "type": "address"
        }
      ],
      "name": "getBioRevisions",
      "outputs": [
        {
          "name": "hashes",
          "type": "bytes32[]"
        },
        {
          "name": "timestamps",
          "type": "uint256[]"
        }
      ],
      "payable": false,
      "stateMutability": "view",
      "type": "function"
    },
    {
      "constant": true,
      "inputs": [
        {
          "name": "postUserAddress",
          "type": "address"
        },
        {
          "name": "originalPostUserAddress",
          "type": "address"
        },
        {
          "name": "originalPostsubmissionIndex",
          "type": "uint256"
        },
        {
          "name": "originalPostRevisionHash",
          "type": "bytes32"
        }
      ],
      "name": "doesPostReferencePost",
      "outputs": [
        {
          "name": "",
          "type": "bool"
        }
      ],
      "payable": false,
      "stateMutability": "view",
      "type": "function"
    },
    {
      "constant": true,
      "inputs": [],
      "name": "submit_submission_cost_in_ink",
      "outputs": [
        {
          "name": "",
          "type": "uint256"
        }
      ],
      "payable": false,
      "stateMutability": "view",
      "type": "function"
    },
    {
      "constant": false,
      "inputs": [
        {
          "name": "subCitadelManifestHash",
          "type": "uint256"
        },
        {
          "name": "revCitadelManifestHash",
          "type": "bytes32"
        },
        {
          "name": "refKeyAuthorgs",
          "type": "address[]"
        },
        {
          "name": "refKeySubmissions",
          "type": "uint256[]"
        },
        {
          "name": "refKeyRevisions",
          "type": "bytes32[]"
        }
      ],
      "name": "submitRevisionWithReferences",
      "outputs": [],
      "payable": false,
      "stateMutability": "nonpayable",
      "type": "function"
    },
    {
      "constant": true,
      "inputs": [
        {
          "name": "authorgAddress",
          "type": "address"
        },
        {
          "name": "submissionIndex",
          "type": "uint256"
        },
        {
          "name": "revisionHash",
          "type": "bytes32"
        }
      ],
      "name": "getNumberReferencesForAuthorgSubmissionRevision",
      "outputs": [
        {
          "name": "",
          "type": "uint256"
        }
      ],
      "payable": false,
      "stateMutability": "view",
      "type": "function"
    },
    {
      "constant": true,
      "inputs": [
        {
          "name": "authorgAddress",
          "type": "address"
        },
        {
          "name": "submissionIndex",
          "type": "uint256"
        }
      ],
      "name": "isAuthorgOfSubmission",
      "outputs": [
        {
          "name": "",
          "type": "bool"
        }
      ],
      "payable": false,
      "stateMutability": "view",
      "type": "function"
    },
    {
      "constant": false,
      "inputs": [
        {
          "name": "citadelManifestHash",
          "type": "bytes32"
        }
      ],
      "name": "submitBioRevision",
      "outputs": [],
      "payable": false,
      "stateMutability": "nonpayable",
      "type": "function"
    },
    {
      "constant": false,
      "inputs": [
        {
          "name": "revCitadelManifestHash",
          "type": "bytes32"
        },
        {
          "name": "refKeyAuthorgs",
          "type": "address[]"
        },
        {
          "name": "refKeySubmissions",
          "type": "uint256[]"
        },
        {
          "name": "refKeyRevisions",
          "type": "bytes32[]"
        }
      ],
      "name": "submitSubmissionWithReferences",
      "outputs": [],
      "payable": false,
      "stateMutability": "nonpayable",
      "type": "function"
    },
    {
      "constant": true,
      "inputs": [
        {
          "name": "authorgAddress",
          "type": "address"
        }
      ],
      "name": "getPostKeyCountForAuthorg",
      "outputs": [
        {
          "name": "",
          "type": "uint256"
        }
      ],
      "payable": false,
      "stateMutability": "view",
      "type": "function"
    },
    {
      "constant": true,
      "inputs": [],
      "name": "getComptroller",
      "outputs": [
        {
          "name": "",
          "type": "address"
        }
      ],
      "payable": false,
      "stateMutability": "view",
      "type": "function"
    },
    {
      "constant": true,
      "inputs": [
        {
          "name": "index",
          "type": "uint256"
        }
      ],
      "name": "getAuthSubRevKey",
      "outputs": [
        {
          "name": "",
          "type": "address"
        },
        {
          "name": "",
          "type": "uint256"
        },
        {
          "name": "",
          "type": "bytes32"
        },
        {
          "name": "",
          "type": "uint256"
        }
      ],
      "payable": false,
      "stateMutability": "view",
      "type": "function"
    },
    {
      "constant": true,
      "inputs": [
        {
          "name": "authorgAddress",
          "type": "address"
        },
        {
          "name": "submissionIndex",
          "type": "uint256"
        }
      ],
      "name": "getSubmissionRevisions",
      "outputs": [
        {
          "name": "revisionHashes",
          "type": "bytes32[]"
        }
      ],
      "payable": false,
      "stateMutability": "view",
      "type": "function"
    },
    {
      "constant": true,
      "inputs": [
        {
          "name": "authorgAddress",
          "type": "address"
        },
        {
          "name": "bioRevisionHash",
          "type": "bytes32"
        }
      ],
      "name": "isAuthorgOfBio",
      "outputs": [
        {
          "name": "",
          "type": "bool"
        }
      ],
      "payable": false,
      "stateMutability": "view",
      "type": "function"
    },
    {
      "constant": true,
      "inputs": [
        {
          "name": "authorgAddress",
          "type": "address"
        },
        {
          "name": "submissionIndex",
          "type": "uint256"
        },
        {
          "name": "revisionHash",
          "type": "bytes32"
        }
      ],
      "name": "getTimestampForRevision",
      "outputs": [
        {
          "name": "",
          "type": "uint256"
        }
      ],
      "payable": false,
      "stateMutability": "view",
      "type": "function"
    },
    {
      "constant": true,
      "inputs": [],
      "name": "getTotalAuthSubRevKeyCount",
      "outputs": [
        {
          "name": "",
          "type": "uint256"
        }
      ],
      "payable": false,
      "stateMutability": "view",
      "type": "function"
    },
    {
      "constant": true,
      "inputs": [],
      "name": "submit_revision_cost_in_ink",
      "outputs": [
        {
          "name": "",
          "type": "uint256"
        }
      ],
      "payable": false,
      "stateMutability": "view",
      "type": "function"
    },
    {
      "constant": true,
      "inputs": [
        {
          "name": "authAdd",
          "type": "address"
        },
        {
          "name": "indexIndex",
          "type": "uint256"
        }
      ],
      "name": "getAuthorgPostKey",
      "outputs": [
        {
          "name": "authorgAddress",
          "type": "address"
        },
        {
          "name": "submissionIndex",
          "type": "uint256"
        },
        {
          "name": "revisionHash",
          "type": "bytes32"
        },
        {
          "name": "timestamp",
          "type": "uint256"
        }
      ],
      "payable": false,
      "stateMutability": "view",
      "type": "function"
    },
    {
      "constant": false,
      "inputs": [
        {
          "name": "originalAuthorgAddress",
          "type": "address"
        },
        {
          "name": "originalsubmissionIndex",
          "type": "uint256"
        },
        {
          "name": "originalRevisionHash",
          "type": "bytes32"
        },
        {
          "name": "responsesubmissionIndex",
          "type": "uint256"
        },
        {
          "name": "responseRevisionHash",
          "type": "bytes32"
        }
      ],
      "name": "respondToAuthorgSubmissionRevision",
      "outputs": [],
      "payable": false,
      "stateMutability": "nonpayable",
      "type": "function"
    },
    {
      "constant": true,
      "inputs": [],
      "name": "reaction_cost_in_ink",
      "outputs": [
        {
          "name": "",
          "type": "uint256"
        }
      ],
      "payable": false,
      "stateMutability": "view",
      "type": "function"
    },
    {
      "constant": true,
      "inputs": [],
      "name": "ink_comptroller",
      "outputs": [
        {
          "name": "",
          "type": "address"
        }
      ],
      "payable": false,
      "stateMutability": "view",
      "type": "function"
    },
    {
      "constant": true,
      "inputs": [
        {
          "name": "user",
          "type": "address"
        }
      ],
      "name": "getUserCurrentSubmissionIndex",
      "outputs": [
        {
          "name": "",
          "type": "uint256"
        }
      ],
      "payable": false,
      "stateMutability": "view",
      "type": "function"
    },
    {
      "constant": true,
      "inputs": [],
      "name": "bio_update_in_ink",
      "outputs": [
        {
          "name": "",
          "type": "uint256"
        }
      ],
      "payable": false,
      "stateMutability": "view",
      "type": "function"
    },
    {
      "inputs": [
        {
          "name": "bioCost",
          "type": "uint256"
        },
        {
          "name": "reactionCost",
          "type": "uint256"
        },
        {
          "name": "revisionCost",
          "type": "uint256"
        },
        {
          "name": "submissionCost",
          "type": "uint256"
        }
      ],
      "payable": false,
      "stateMutability": "nonpayable",
      "type": "constructor"
    },
    {
      "anonymous": false,
      "inputs": [
        {
          "indexed": true,
          "name": "_authorg",
          "type": "address"
        },
        {
          "indexed": true,
          "name": "_revHash",
          "type": "bytes32"
        }
      ],
      "name": "BioUpdated",
      "type": "event"
    },
    {
      "anonymous": false,
      "inputs": [
        {
          "indexed": true,
          "name": "_authorg",
          "type": "address"
        },
        {
          "indexed": true,
          "name": "_subIndex",
          "type": "uint256"
        },
        {
          "indexed": true,
          "name": "_revHash",
          "type": "bytes32"
        }
      ],
      "name": "RevisionPosted",
      "type": "event"
    },
    {
      "anonymous": false,
      "inputs": [
        {
          "indexed": true,
          "name": "_authorg",
          "type": "address"
        },
        {
          "indexed": true,
          "name": "_subIndex",
          "type": "uint256"
        },
        {
          "indexed": true,
          "name": "_revHash",
          "type": "bytes32"
        },
        {
          "indexed": false,
          "name": "_refAuthorg",
          "type": "address"
        },
        {
          "indexed": false,
          "name": "_refSubIndex",
          "type": "uint256"
        },
        {
          "indexed": false,
          "name": "_refRevHash",
          "type": "bytes32"
        }
      ],
      "name": "PostReferencedPost",
      "type": "event"
    },
    {
      "anonymous": false,
      "inputs": [
        {
          "indexed": true,
          "name": "_refAuthorg",
          "type": "address"
        },
        {
          "indexed": true,
          "name": "_refSubIndex",
          "type": "uint256"
        },
        {
          "indexed": true,
          "name": "_refRevHash",
          "type": "bytes32"
        },
        {
          "indexed": false,
          "name": "_authorg",
          "type": "address"
        },
        {
          "indexed": false,
          "name": "_subIndex",
          "type": "uint256"
        },
        {
          "indexed": false,
          "name": "_revHash",
          "type": "bytes32"
        }
      ],
      "name": "PostReferencedByPost",
      "type": "event"
    }
  ],
  "bytecode": "0x6060604052341561000f57600080fd5b60405160808061252b83398101604052808051906020019091908051906020019091908051906020019091908051906020019091905050336000806101000a81548173ffffffffffffffffffffffffffffffffffffffff021916908373ffffffffffffffffffffffffffffffffffffffff1602179055508360018190555082600281905550816003819055508060048190555050505050612476806100b56000396000f300606060405260043610610149576000357c0100000000000000000000000000000000000000000000000000000000900463ffffffff1680631ee0f9191461014e578063246212c3146101b55780632c2229c11461026a5780632d5aff26146102f057806340bb0193146103c657806352b189b71461044c5780635b89b855146104755780635e8c637a146105655780635eeb5d9a146105c857806362461adf14610622578063708acf2e14610649578063751c82f41461073057806379feab871461077d5780637ff632a2146107d25780639a5255ec14610852578063a322b93a146108e9578063a78d9b1814610947578063b03b8f01146109aa578063b43d3b99146109d3578063b5f23133146109fc578063c3236d6c14610a9b578063ca94046114610b00578063cc46719414610b29578063ee5805da14610b7e578063ff355dd614610bcb575b600080fd5b341561015957600080fd5b61019b600480803573ffffffffffffffffffffffffffffffffffffffff1690602001909190803590602001909190803560001916906020019091905050610bf4565b604051808215151515815260200191505060405180910390f35b34156101c057600080fd5b61020b600480803573ffffffffffffffffffffffffffffffffffffffff1690602001909190803590602001909190803560001916906020019091908035906020019091905050610c88565b604051808573ffffffffffffffffffffffffffffffffffffffff1673ffffffffffffffffffffffffffffffffffffffff168152602001848152602001836000191660001916815260200182815260200194505050505060405180910390f35b341561027557600080fd5b6102d6600480803573ffffffffffffffffffffffffffffffffffffffff1690602001909190803573ffffffffffffffffffffffffffffffffffffffff1690602001909190803590602001909190803560001916906020019091905050610e15565b604051808215151515815260200191505060405180910390f35b34156102fb57600080fd5b610327600480803573ffffffffffffffffffffffffffffffffffffffff16906020019091905050610ee3565b604051808060200180602001838103835285818151815260200191508051906020019060200280838360005b8381101561036e578082015181840152602081019050610353565b50505050905001838103825284818151815260200191508051906020019060200280838360005b838110156103b0578082015181840152602081019050610395565b5050505090500194505050505060405180910390f35b34156103d157600080fd5b610432600480803573ffffffffffffffffffffffffffffffffffffffff1690602001909190803573ffffffffffffffffffffffffffffffffffffffff169060200190919080359060200190919080356000191690602001909190505061102e565b604051808215151515815260200191505060405180910390f35b341561045757600080fd5b61045f6110fc565b6040518082815260200191505060405180910390f35b341561048057600080fd5b610563600480803590602001909190803560001916906020019091908035906020019082018035906020019080806020026020016040519081016040528093929190818152602001838360200280828437820191505050505050919080359060200190820180359060200190808060200260200160405190810160405280939291908181526020018383602002808284378201915050505050509190803590602001908201803590602001908080602002602001604051908101604052809392919081815260200183836020028082843782019150505050505091905050611102565b005b341561057057600080fd5b6105b2600480803573ffffffffffffffffffffffffffffffffffffffff16906020019091908035906020019091908035600019169060200190919050506111f3565b6040518082815260200191505060405180910390f35b34156105d357600080fd5b610608600480803573ffffffffffffffffffffffffffffffffffffffff16906020019091908035906020019091905050611274565b604051808215151515815260200191505060405180910390f35b341561062d57600080fd5b6106476004808035600019169060200190919050506112e7565b005b341561065457600080fd5b61072e60048080356000191690602001909190803590602001908201803590602001908080602002602001604051908101604052809392919081815260200183836020028082843782019150505050505091908035906020019082018035906020019080806020026020016040519081016040528093929190818152602001838360200280828437820191505050505050919080359060200190820180359060200190808060200260200160405190810160405280939291908181526020018383602002808284378201915050505050509190505061159b565b005b341561073b57600080fd5b610767600480803573ffffffffffffffffffffffffffffffffffffffff16906020019091905050611648565b6040518082815260200191505060405180910390f35b341561078857600080fd5b610790611697565b604051808273ffffffffffffffffffffffffffffffffffffffff1673ffffffffffffffffffffffffffffffffffffffff16815260200191505060405180910390f35b34156107dd57600080fd5b6107f360048080359060200190919050506116c0565b604051808573ffffffffffffffffffffffffffffffffffffffff1673ffffffffffffffffffffffffffffffffffffffff168152602001848152602001836000191660001916815260200182815260200194505050505060405180910390f35b341561085d57600080fd5b610892600480803573ffffffffffffffffffffffffffffffffffffffff169060200190919080359060200190919050506117cf565b6040518080602001828103825283818151815260200191508051906020019060200280838360005b838110156108d55780820151818401526020810190506108ba565b505050509050019250505060405180910390f35b34156108f457600080fd5b61092d600480803573ffffffffffffffffffffffffffffffffffffffff1690602001909190803560001916906020019091905050611888565b604051808215151515815260200191505060405180910390f35b341561095257600080fd5b610994600480803573ffffffffffffffffffffffffffffffffffffffff16906020019091908035906020019091908035600019169060200190919050506118f4565b6040518082815260200191505060405180910390f35b34156109b557600080fd5b6109bd611972565b6040518082815260200191505060405180910390f35b34156109de57600080fd5b6109e66119b1565b6040518082815260200191505060405180910390f35b3415610a0757600080fd5b610a3c600480803573ffffffffffffffffffffffffffffffffffffffff169060200190919080359060200190919050506119b7565b604051808573ffffffffffffffffffffffffffffffffffffffff1673ffffffffffffffffffffffffffffffffffffffff168152602001848152602001836000191660001916815260200182815260200194505050505060405180910390f35b3415610aa657600080fd5b610afe600480803573ffffffffffffffffffffffffffffffffffffffff169060200190919080359060200190919080356000191690602001909190803590602001909190803560001916906020019091905050611a37565b005b3415610b0b57600080fd5b610b13611d1e565b6040518082815260200191505060405180910390f35b3415610b3457600080fd5b610b3c611d24565b604051808273ffffffffffffffffffffffffffffffffffffffff1673ffffffffffffffffffffffffffffffffffffffff16815260200191505060405180910390f35b3415610b8957600080fd5b610bb5600480803573ffffffffffffffffffffffffffffffffffffffff16906020019091905050611d49565b6040518082815260200191505060405180910390f35b3415610bd657600080fd5b610bde611d95565b6040518082815260200191505060405180910390f35b6000806000600560008773ffffffffffffffffffffffffffffffffffffffff1673ffffffffffffffffffffffffffffffffffffffff168152602001908152602001600020915081600401600086815260200190815260200160002090506000600102816000016000866000191660001916815260200190815260200160002060010154600019161415925050509392505050565b6000806000806000806000806000600560008e73ffffffffffffffffffffffffffffffffffffffff1673ffffffffffffffffffffffffffffffffffffffff16815260200190815260200160002060040160008d815260200190815260200160002060000160008c600019166000191681526020019081526020016000209450846002018a815481101515610d1857fe5b906000526020600020900160009054906101000a900473ffffffffffffffffffffffffffffffffffffffff169350846003018a815481101515610d5757fe5b9060005260206000209001549250846004018a815481101515610d7657fe5b9060005260206000209001549150600560008573ffffffffffffffffffffffffffffffffffffffff1673ffffffffffffffffffffffffffffffffffffffff1681526020019081526020016000206004016000848152602001908152602001600020600001600083600019166000191681526020019081526020016000209050838383836000015498509850985098505050505050945094509450949050565b600080600560008673ffffffffffffffffffffffffffffffffffffffff1673ffffffffffffffffffffffffffffffffffffffff16815260200190815260200160002060040160008581526020019081526020016000206000016000846000191660001916815260200190815260200160002090508060050160008773ffffffffffffffffffffffffffffffffffffffff1673ffffffffffffffffffffffffffffffffffffffff16815260200190815260200160002060009054906101000a900460ff16915050949350505050565b610eeb612152565b610ef3612166565b600560008473ffffffffffffffffffffffffffffffffffffffff1673ffffffffffffffffffffffffffffffffffffffff168152602001908152602001600020600101600101600560008573ffffffffffffffffffffffffffffffffffffffff1673ffffffffffffffffffffffffffffffffffffffff16815260200190815260200160002060010160020181805480602002602001604051908101604052809291908181526020018280548015610fcc57602002820191906000526020600020905b81546000191681526020019060010190808311610fb4575b505050505091508080548060200260200160405190810160405280929190818152602001828054801561101e57602002820191906000526020600020905b81548152602001906001019080831161100a575b5050505050905091509150915091565b600080600560008673ffffffffffffffffffffffffffffffffffffffff1673ffffffffffffffffffffffffffffffffffffffff16815260200190815260200160002060040160008581526020019081526020016000206000016000846000191660001916815260200190815260200160002090508060050160008773ffffffffffffffffffffffffffffffffffffffff1673ffffffffffffffffffffffffffffffffffffffff16815260200190815260200160002060009054906101000a900460ff16915050949350505050565b60045481565b600085600560003373ffffffffffffffffffffffffffffffffffffffff1673ffffffffffffffffffffffffffffffffffffffff1681526020019081526020016000206000015411151561115457600080fd5b61115e8686611d9b565b8251845114151561116e57600080fd5b8151845114151561117e57600080fd5b600090505b83518110156111eb576111de848281518110151561119d57fe5b9060200190602002015184838151811015156111b557fe5b9060200190602002015184848151811015156111cd57fe5b906020019060200201518989611a37565b8080600101915050611183565b505050505050565b6000600560008573ffffffffffffffffffffffffffffffffffffffff1673ffffffffffffffffffffffffffffffffffffffff1681526020019081526020016000206004016000848152602001908152602001600020600001600083600019166000191681526020019081526020016000206004018054905090509392505050565b6000806000600560008673ffffffffffffffffffffffffffffffffffffffff1673ffffffffffffffffffffffffffffffffffffffff168152602001908152602001600020915081600401600085815260200190815260200160002090506000816001018054905014159250505092915050565b6112ef61217a565b6112f7612166565b6112ff612152565b61130761218e565b60006040518059106113165750595b9080825280602002602001820160405250935060006040518059106113385750595b90808252806020026020018201604052509250600060405180591061135a5750595b90808252806020026020018201604052509150600560003373ffffffffffffffffffffffffffffffffffffffff1673ffffffffffffffffffffffffffffffffffffffff16815260200190815260200160002060010160010180548060010182816113c491906121d3565b916000526020600020900160008790919091509060001916905550600560003373ffffffffffffffffffffffffffffffffffffffff1673ffffffffffffffffffffffffffffffffffffffff168152602001908152602001600020600101600201805480600101828161143691906121ff565b91600052602060002090016000429091909150555060a0604051908101604052804281526020018660001916815260200185815260200184815260200183815250905080600560003373ffffffffffffffffffffffffffffffffffffffff1673ffffffffffffffffffffffffffffffffffffffff168152602001908152602001600020600101600001600087600019166000191681526020019081526020016000206000820151816000015560208201518160010190600019169055604082015181600201908051906020019061150e92919061222b565b50606082015181600301908051906020019061152b9291906122b5565b506080820151816004019080519060200190611548929190612302565b5090505084600019163373ffffffffffffffffffffffffffffffffffffffff167f498f221ad7bee9a0395e38e30e5009487cb4cf56e2c4cc2d2d67240fa3fdb1cc60405160405180910390a35050505050565b6000600560003373ffffffffffffffffffffffffffffffffffffffff1673ffffffffffffffffffffffffffffffffffffffff168152602001908152602001600020600001549050600560003373ffffffffffffffffffffffffffffffffffffffff1673ffffffffffffffffffffffffffffffffffffffff168152602001908152602001600020600001600081548092919060010191905055506116418186868686611102565b5050505050565b6000600560008373ffffffffffffffffffffffffffffffffffffffff1673ffffffffffffffffffffffffffffffffffffffff168152602001908152602001600020600501805490509050919050565b60008060009054906101000a900473ffffffffffffffffffffffffffffffffffffffff16905090565b6000806000806000806000806006898154811015156116db57fe5b906000526020600020900160009054906101000a900473ffffffffffffffffffffffffffffffffffffffff16935060078981548110151561171857fe5b906000526020600020900154925060088981548110151561173557fe5b9060005260206000209001549150600560008573ffffffffffffffffffffffffffffffffffffffff1673ffffffffffffffffffffffffffffffffffffffff168152602001908152602001600020600401600084815260200190815260200160002060000160008360001916600019168152602001908152602001600020600001549050838383839750975097509750505050509193509193565b6117d7612152565b600560008473ffffffffffffffffffffffffffffffffffffffff1673ffffffffffffffffffffffffffffffffffffffff168152602001908152602001600020600401600083815260200190815260200160002060010180548060200260200160405190810160405280929190818152602001828054801561187b57602002820191906000526020600020905b81546000191681526020019060010190808311611863575b5050505050905092915050565b600080600560008573ffffffffffffffffffffffffffffffffffffffff1673ffffffffffffffffffffffffffffffffffffffff16815260200190815260200160002090506000600102816001016000016000856000191660001916815260200190815250505092915050565b6000600560008573ffffffffffffffffffffffffffffffffffffffff1673ffffffffffffffffffffffffffffffffffffffff1681526020019081526020016000206004016000848152602001908152602001600020600001600083600019166000191681526020019081526020016000206000015490509392505050565b6000600780549050600680549050141580611997575060088054905060068054905014155b156119a557600090506119ae565b60068054905090505b90565b60035481565b6000806000806000600560008873ffffffffffffffffffffffffffffffffffffffff1673ffffffffffffffffffffffffffffffffffffffff16815260200190815260200160002060050186815481101515611a0e57fe5b9060005260206000209001549050611a25816116c0565b94509450945094505092959194509250565b6000806000611a47338686610bf4565b1515611a5257600080fd5b600560008973ffffffffffffffffffffffffffffffffffffffff1673ffffffffffffffffffffffffffffffffffffffff1681526020019081526020016000209250826004016000888152602001908152602001600020915081600001600087600019166000191681526020019081526020016000209050806002018054806001018281611adf9190612355565b9160005260206000209001600033909190916101000a81548173ffffffffffffffffffffffffffffffffffffffff021916908373ffffffffffffffffffffffffffffffffffffffff16021790555050806003018054806001018281611b4491906121ff565b916000526020600020900160008790919091505550806004018054806001018281611b6f91906121d3565b91600052602060002090016000869091909150906000191690555060018160050160003373ffffffffffffffffffffffffffffffffffffffff1673ffffffffffffffffffffffffffffffffffffffff16815260200190815260200160002060006101000a81548160ff0219169083151502179055508360001916853373ffffffffffffffffffffffffffffffffffffffff167f2e0f3f46a42d4a706ff3eee48375710869ff79238cb51f91b0ad2515afa55a888b8b8b604051808473ffffffffffffffffffffffffffffffffffffffff1673ffffffffffffffffffffffffffffffffffffffff1681526020018381526020018260001916600019168152602001935050505060405180910390a48560001916878973ffffffffffffffffffffffffffffffffffffffff167f6e3f0d0852436c88e2d8882db106240d42f1df716edd6c973ec16531903a1dbb338989604051808473ffffffffffffffffffffffffffffffffffffffff1673ffffffffffffffffffffffffffffffffffffffff1681526020018381526020018260001916600019168152602001935050505060405180910390a45050505050505050565b60025481565b6000809054906101000a900473ffffffffffffffffffffffffffffffffffffffff1681565b6000600560008373ffffffffffffffffffffffffffffffffffffffff1673ffffffffffffffffffffffffffffffffffffffff168152602001908152602001600020600001549050919050565b60015481565b611da6338383611daa565b5050565b6000611db461217a565b611dbc612166565b611dc4612152565b611dcc61218e565b600560008973ffffffffffffffffffffffffffffffffffffffff1673ffffffffffffffffffffffffffffffffffffffff16815260200190815260200160002094506000600102856004016000898152602001908152602001600020600001600088600019166000191681526020019081526020016000206001015460001916141515611e5757600080fd5b6000604051805910611e665750595b908082528060200260200182016040525093506000604051805910611e885750595b908082528060200260200182016040525092506000604051805910611eaa5750595b9080825280602002602001820160405250915060a06040519081016040528042815260200187600019168152602001858152602001848152602001838152509050808560040160008981526020019081526020016000206000016000886000191660001916815260200190815260200160002060008201518160000155602082015181600101906000191690556040820151816002019080519060200190611f5392919061222b565b506060820151816003019080519060200190611f709291906122b5565b506080820151816004019080519060200190611f8d929190612302565b509050508460040160008881526020019081526020016000206001018054806001018281611fbb91906121d3565b916000526020600020900160008890919091509060001916905550600560008973ffffffffffffffffffffffffffffffffffffffff1673ffffffffffffffffffffffffffffffffffffffff168152602001908152602001600020600501805480600101828161202a91906121ff565b9160005260206000209001600060088054905090919091505550600680548060010182816120589190612355565b916000526020600020900160008a909190916101000a81548173ffffffffffffffffffffffffffffffffffffffff021916908373ffffffffffffffffffffffffffffffffffffffff16021790555050600780548060010182816120bb91906121ff565b916000526020600020900160008990919091505550600880548060010182816120e491906121d3565b9160005260206000209001600088909190915090600019169055508560001916878973ffffffffffffffffffffffffffffffffffffffff167f07ae7e6658c12fcd7825159ddcf2a7582fd0096176a689399fc8e84896fa343d60405160405180910390a45050505050505050565b602060405190810160405280600081525090565b602060405190810160405280600081525090565b602060405190810160405280600081525090565b60a06040519081016040528060008152602001600080191681526020016121b3612381565b81526020016121c0612395565b81526020016121cd6123a9565b81525090565b8154818355818115116121fa578183600052602060002091820191016121f991906123bd565b5b505050565b8154818355818115116122265781836000526020600020918201910161222591906123e2565b5b505050565b8280548282559060005260206000209081019282156122a4579160200282015b828111156122a35782518260006101000a81548173ffffffffffffffffffffffffffffffffffffffff021916908373ffffffffffffffffffffffffffffffffffffffff1602179055509160200191906001019061224b565b5b5090506122b19190612407565b5090565b8280548282559060005260206000209081019282156122f1579160200282015b828111156122f05782518255916020019190600101906122d5565b5b5090506122fe91906123e2565b5090565b828054828255906000526020600020908101928215612344579160200282015b82811115612343578251829060001916905591602001919060010190612322565b5b50905061235191906123bd565b5090565b81548183558181151161237c5781836000526020600020918201910161237b91906123e2565b5b505050565b602060405190810160405280600081525090565b602060405190810160405280600081525090565b602060405190810160405280600081525090565b6123df91905b808211156123db5760008160009055506001016123c3565b5090565b90565b61240491905b808211156124005760008160009055506001016123e8565b5090565b90565b61244791905b8082111561244357600081816101000a81549073ffffffffffffffffffffffffffffffffffffffff02191690555060010161240d565b5090565b905600a165627a7a723058204aad133a463ea09e69874796b986852c54bb2ab8e4c0d1c9c34638df205060310029",
  "source": "pragma solidity ^0.4.13;\n\ncontract Managed {\n    address public ink_comptroller;  \n    modifier onlyComptroller {\n        require(msg.sender == ink_comptroller);\n        _;\n    }\n}\n\ncontract Ink is Managed {\n\n    event BioUpdated(address indexed _authorg, bytes32 indexed _revHash);\n    event RevisionPosted(address indexed _authorg, uint indexed _subIndex, bytes32 indexed _revHash);\n    event PostReferencedPost(address indexed _authorg, uint indexed _subIndex, bytes32 indexed _revHash, address _refAuthorg, uint _refSubIndex, bytes32 _refRevHash);\n    event PostReferencedByPost(address indexed _refAuthorg, uint indexed _refSubIndex, bytes32 indexed _refRevHash, address _authorg, uint _subIndex, bytes32 _revHash);\n\n    uint256 public bio_update_in_ink;\n    uint256 public reaction_cost_in_ink;\n    uint256 public submit_revision_cost_in_ink; \n    uint256 public submit_submission_cost_in_ink; \n    \n    function Ink(uint bioCost, uint256 reactionCost, uint256 revisionCost, uint256 submissionCost) public {\n        ink_comptroller = msg.sender;\n        bio_update_in_ink = bioCost;\n        reaction_cost_in_ink = reactionCost;\n        submit_revision_cost_in_ink = revisionCost;\n        submit_submission_cost_in_ink = submissionCost;\n    }\n\n    function getComptroller() public constant returns (address) {\n        return ink_comptroller;\n    }\n    \n    struct Authorg {\n        uint submissionIndex;\n        Submission selfBioSubmission;       \n        mapping(uint => Submission) submissions;\n        uint[] postKeyIndexes;\n    }\n\n    struct Submission {\n        mapping(bytes32 => Revision) revisions;\n        bytes32[] revisionHashes;\n        uint[] revisionTimestamps;\n    }\n    \n    struct Revision {\n        uint timestamp;\n        bytes32 citadelManifestHash;\n\n        address[] referenceKeyAuthorgs;\n        uint[] referenceKeySubmissions;\n        bytes32[] referenceKeyRevisions;\n\n        mapping(address => bool) hasUserReferencedRevision;\n    }\n\n    struct SubRevKey {\n        uint submissionIndex;\n        bytes32 revisionHash;\n    }\n\n    struct AuthSubRevKey {\n        address authorgAddress;\n        uint submissionIndex;\n        bytes32 revisionHash;\n    }\n\n    \n    mapping(address => Authorg) internalAuthorgs;\n    \n    // solidity compliation seems to cry when we store these types of keys as a struct, \n    // so we're just using multiple parallel arrays everywhere (for now)\n    address[] allPostAuthorgs;\n    uint[] allPostSubmissions;\n    bytes32[] allPostRevisions;\n\n    function getBioRevisions(address authorgAddress) public constant returns (bytes32[] hashes, uint[] timestamps) {\n        return (internalAuthorgs[authorgAddress].selfBioSubmission.revisionHashes, \n                internalAuthorgs[authorgAddress].selfBioSubmission.revisionTimestamps);\n    }\n\n    function getTotalAuthSubRevKeyCount() public constant returns (uint) {\n        if (allPostAuthorgs.length != allPostSubmissions.length || allPostAuthorgs.length != allPostRevisions.length) {\n            return 0;\n        } else {\n            return allPostAuthorgs.length;\n        }\n    }\n\n    function getAuthSubRevKey(uint index) public constant returns (address, uint, bytes32, uint) {\n        var authorg = allPostAuthorgs[index];\n        var submission = allPostSubmissions[index];\n        var revision = allPostRevisions[index];\n        var timestamp = internalAuthorgs[authorg].submissions[submission].revisions[revision].timestamp;\n        return (authorg, submission, revision, timestamp);\n    }\n    \n    function submitBioRevision(bytes32 citadelManifestHash) public {\n        //spend(bio_update_in_ink);\n        var newAuthorgs = new address[](0);\n        var newSubmissions = new uint[](0);\n        var newRevisions = new bytes32[](0);\n        internalAuthorgs[msg.sender].selfBioSubmission.revisionHashes.push(citadelManifestHash);\n        internalAuthorgs[msg.sender].selfBioSubmission.revisionTimestamps.push(block.timestamp);\n        var revision = Revision({\n            timestamp : block.timestamp,\n            citadelManifestHash : citadelManifestHash,\n            referenceKeyAuthorgs : newAuthorgs,\n            referenceKeySubmissions : newSubmissions,\n            referenceKeyRevisions : newRevisions\n        });\n        internalAuthorgs[msg.sender].selfBioSubmission.revisions[citadelManifestHash] = revision;\n        BioUpdated(msg.sender, citadelManifestHash);\n    }\n    \n    function isAuthorgOfSubmission(address authorgAddress, uint submissionIndex) public constant returns (bool) {\n        var authorg = internalAuthorgs[authorgAddress];\n        var submission = authorg.submissions[submissionIndex];\n        return submission.revisionHashes.length != 0;\n    }\n    \n    function isAuthorgOfBio(address authorgAddress, \n                            bytes32 bioRevisionHash) \n                            public constant returns (bool) {\n        var authorg = internalAuthorgs[authorgAddress];\n        authorg.selfBioSubmission.revisions[bioRevisionHash].citadelManifestHash != 0;\n    }\n    \n    function isAuthorgOfSubmissionRevision(address authorgAddress, \n                                            uint submissionIndex, \n                                            bytes32 revisionHash) \n                                             public constant returns (bool) {\n        var authorg = internalAuthorgs[authorgAddress];\n        var submission = authorg.submissions[submissionIndex];\n        return submission.revisions[revisionHash].citadelManifestHash != 0;\n    }\n\n    function submitSubmissionWithReferences(bytes32 revCitadelManifestHash, \n                                            address[] refKeyAuthorgs, \n                                            uint[] refKeySubmissions, \n                                            bytes32[] refKeyRevisions) public {\n        //spend(submit_submission_cost_in_ink);\n        var index = internalAuthorgs[msg.sender].submissionIndex;\n        internalAuthorgs[msg.sender].submissionIndex++;\n        submitRevisionWithReferences(index, revCitadelManifestHash, refKeyAuthorgs, refKeySubmissions, refKeyRevisions);\n    }\n\n    function submitRevisionWithReferences(uint subCitadelManifestHash, \n                                            bytes32 revCitadelManifestHash, \n                                            address[] refKeyAuthorgs, \n                                            uint[] refKeySubmissions, \n                                            bytes32[] refKeyRevisions) public {\n\n        require(internalAuthorgs[msg.sender].submissionIndex > subCitadelManifestHash); // can't revise a submission that hasn't happened yet\n\n        submitRevision(subCitadelManifestHash, revCitadelManifestHash);\n        require(refKeyAuthorgs.length == refKeySubmissions.length);\n        require(refKeyAuthorgs.length == refKeyRevisions.length);\n\n        for (uint i = 0; i < refKeyAuthorgs.length; i++) {\n            respondToAuthorgSubmissionRevision(refKeyAuthorgs[i], refKeySubmissions[i], refKeyRevisions[i], subCitadelManifestHash, revCitadelManifestHash);\n        }\n    }\n    \n    function submitRevision(uint subCitadelManifestHash, bytes32 revCitadelManifestHash) private {\n        //spend(submit_revision_cost_in_ink);\n        submitRevision(msg.sender, subCitadelManifestHash, revCitadelManifestHash);\n    }\n    \n    function submitRevision(address sender, uint subCitadelManifestHash, bytes32 revCitadelManifestHash) private {\n        Authorg authorg = internalAuthorgs[sender];\n\n        // must have a bio set.\n        //require (authorg.selfBioSubmission.revisionHashes.length > 0);\n\n        // never submitted revision to this submission before        \n        require (authorg.submissions[subCitadelManifestHash].revisions[revCitadelManifestHash].citadelManifestHash == 0);\n        \n        var newAuthorgs = new address[](0);\n        var newSubmissions = new uint[](0);\n        var newRevisions = new bytes32[](0);\n        var revision = Revision({\n            timestamp : block.timestamp,\n            citadelManifestHash : revCitadelManifestHash,\n            referenceKeyAuthorgs : newAuthorgs,\n            referenceKeySubmissions : newSubmissions,\n            referenceKeyRevisions : newRevisions\n        });\n        authorg.submissions[subCitadelManifestHash].revisions[revCitadelManifestHash] = revision;\n        \n\n        authorg.submissions[subCitadelManifestHash].revisionHashes.push(revCitadelManifestHash);\n        internalAuthorgs[sender].postKeyIndexes.push(allPostRevisions.length);\n        allPostAuthorgs.push(sender);\n        allPostSubmissions.push(subCitadelManifestHash);\n        allPostRevisions.push(revCitadelManifestHash);\n        RevisionPosted(sender, subCitadelManifestHash, revCitadelManifestHash);\n    }\n    \n    function respondToAuthorgSubmissionRevision(address originalAuthorgAddress, \n                                                uint originalsubmissionIndex, \n                                                bytes32 originalRevisionHash, \n                                                uint responsesubmissionIndex, \n                                                bytes32 responseRevisionHash) public {\n        require (isAuthorgOfSubmissionRevision(msg.sender, responsesubmissionIndex, responseRevisionHash));\n        var originalAuthorg = internalAuthorgs[originalAuthorgAddress];\n        var originalSubmission = originalAuthorg.submissions[originalsubmissionIndex];\n        var originalRevision = originalSubmission.revisions[originalRevisionHash];\n\n        originalRevision.referenceKeyAuthorgs.push(msg.sender);\n        originalRevision.referenceKeySubmissions.push(responsesubmissionIndex);\n        originalRevision.referenceKeyRevisions.push(responseRevisionHash);\n\n        originalRevision.hasUserReferencedRevision[msg.sender] = true;\n\n        PostReferencedPost(msg.sender, responsesubmissionIndex, responseRevisionHash, originalAuthorgAddress, originalsubmissionIndex, originalRevisionHash);\n        PostReferencedByPost(originalAuthorgAddress, originalsubmissionIndex, originalRevisionHash, msg.sender, responsesubmissionIndex, responseRevisionHash);\n    }\n\n    function getNumberReferencesForAuthorgSubmissionRevision(address authorgAddress, \n                                                                uint submissionIndex, \n                                                                bytes32 revisionHash) public constant returns (uint) \n    {\n        return internalAuthorgs[authorgAddress].submissions[submissionIndex].revisions[revisionHash].referenceKeyRevisions.length;\n    }\n\n    function getReferenceForAuthorgSubmissionRevision(address authorgAddress, \n                                                        uint submissionIndex, \n                                                        bytes32 revisionHash, \n                                                        uint index) public constant returns(address, uint, bytes32, uint) {\n        Revision rev = internalAuthorgs[authorgAddress].submissions[submissionIndex].revisions[revisionHash];\n        address refAuthorgAddress = rev.referenceKeyAuthorgs[index];\n        uint refsubmissionIndex = rev.referenceKeySubmissions[index];\n        bytes32 refRevisionHash = rev.referenceKeyRevisions[index];\n        Revision refRevision = internalAuthorgs[refAuthorgAddress].submissions[refsubmissionIndex].revisions[refRevisionHash];\n        return (refAuthorgAddress, refsubmissionIndex, refRevisionHash, refRevision.timestamp);\n    }\n\n    function getPostKeyCountForAuthorg(address authorgAddress) \n                                        public constant returns (uint) {\n        return internalAuthorgs[authorgAddress].postKeyIndexes.length;\n    }\n\n    function getAuthorgPostKey(address authAdd, uint indexIndex) \n                                public constant returns (address authorgAddress, uint submissionIndex, bytes32 revisionHash, uint timestamp) {\n        uint index = internalAuthorgs[authAdd].postKeyIndexes[indexIndex];\n        return (getAuthSubRevKey(index));\n    }\n\n    function getTimestampForRevision(address authorgAddress, uint submissionIndex, bytes32 revisionHash) public constant returns(uint) {\n        return internalAuthorgs[authorgAddress].submissions[submissionIndex].revisions[revisionHash].timestamp;\n    }\n\n    function getSubmissionRevisions(address authorgAddress, uint submissionIndex) public constant returns (bytes32[] revisionHashes) {\n         return internalAuthorgs[authorgAddress].submissions[submissionIndex].revisionHashes;\n    }\n\n    function doesPostReferencePost(address postUserAddress, \n                                    address originalPostUserAddress, \n                                    uint originalPostsubmissionIndex, \n                                    bytes32 originalPostRevisionHash) \n                                    constant returns (bool) \n    {\n        Revision rev = internalAuthorgs[originalPostUserAddress].submissions[originalPostsubmissionIndex].revisions[originalPostRevisionHash];\n        return rev.hasUserReferencedRevision[postUserAddress];\n    }\n\n    function constDoesPostReferencePost(address postUserAddress, \n                                    address originalPostUserAddress, \n                                    uint originalPostsubmissionIndex, \n                                    bytes32 originalPostRevisionHash) \n                                    public constant returns (bool) \n    {\n        Revision rev = internalAuthorgs[originalPostUserAddress].submissions[originalPostsubmissionIndex].revisions[originalPostRevisionHash];\n        return rev.hasUserReferencedRevision[postUserAddress];\n    }\n\n    function getUserCurrentSubmissionIndex(address user) public constant returns (uint) {\n        return internalAuthorgs[user].submissionIndex;\n    }\n}",
  "sourcePath": "/home/nort7/Ethereum/citadao/src/app-contracts/contracts/Ink.sol",
  "compiler": {
    "name": "solc",
    "version": "0.4.18+commit.9cf6e910.Emscripten.clang"
  },
  "schemaVersion": "1.0.1",
  "updatedAt": "2017-12-07T23:41:48.928Z"
}