{
  "contractName": "Ink",
  "abi": [
    {
      "constant": true,
      "inputs": [
        {
          "name": "authorgAddress",
          "type": "address"
        },
        {
          "name": "submissionHash",
          "type": "bytes32"
        },
        {
          "name": "revisionHash",
          "type": "bytes32"
        }
      ],
      "name": "getTimestampForRevision",
      "outputs": [
        {
          "name": "",
          "type": "uint256"
        }
      ],
      "payable": false,
      "stateMutability": "view",
      "type": "function"
    },
    {
      "constant": true,
      "inputs": [
        {
          "name": "authorgAddress",
          "type": "address"
        }
      ],
      "name": "getBioRevisions",
      "outputs": [
        {
          "name": "hashes",
          "type": "bytes32[]"
        },
        {
          "name": "timestamps",
          "type": "uint256[]"
        }
      ],
      "payable": false,
      "stateMutability": "view",
      "type": "function"
    },
    {
      "constant": false,
      "inputs": [
        {
          "name": "subCitadelManifestHash",
          "type": "bytes32"
        },
        {
          "name": "revCitadelManifestHash",
          "type": "bytes32"
        },
        {
          "name": "refKeyAuthorgs",
          "type": "address[]"
        },
        {
          "name": "refKeySubmissions",
          "type": "bytes32[]"
        },
        {
          "name": "refKeyRevisions",
          "type": "bytes32[]"
        }
      ],
      "name": "submitRevisionWithReferences",
      "outputs": [],
      "payable": false,
      "stateMutability": "nonpayable",
      "type": "function"
    },
    {
      "constant": true,
      "inputs": [],
      "name": "submit_submission_cost_in_ink",
      "outputs": [
        {
          "name": "",
          "type": "uint256"
        }
      ],
      "payable": false,
      "stateMutability": "view",
      "type": "function"
    },
    {
      "constant": true,
      "inputs": [
        {
          "name": "postUserAddress",
          "type": "address"
        },
        {
          "name": "originalPostUserAddress",
          "type": "address"
        },
        {
          "name": "originalPostSubmissionHash",
          "type": "bytes32"
        },
        {
          "name": "originalPostRevisionHash",
          "type": "bytes32"
        }
      ],
      "name": "constDoesPostReferencePost",
      "outputs": [
        {
          "name": "",
          "type": "bool"
        }
      ],
      "payable": false,
      "stateMutability": "view",
      "type": "function"
    },
    {
      "constant": true,
      "inputs": [
        {
          "name": "authorgAddress",
          "type": "address"
        },
        {
          "name": "submissionHash",
          "type": "bytes32"
        },
        {
          "name": "revisionHash",
          "type": "bytes32"
        }
      ],
      "name": "getNumberReferencesForAuthorgSubmissionRevision",
      "outputs": [
        {
          "name": "",
          "type": "uint256"
        }
      ],
      "payable": false,
      "stateMutability": "view",
      "type": "function"
    },
    {
      "constant": false,
      "inputs": [
        {
          "name": "citadelManifestHash",
          "type": "bytes32"
        }
      ],
      "name": "submitBioRevision",
      "outputs": [],
      "payable": false,
      "stateMutability": "nonpayable",
      "type": "function"
    },
    {
      "constant": true,
      "inputs": [
        {
          "name": "authorgAddress",
          "type": "address"
        },
        {
          "name": "submissionHash",
          "type": "bytes32"
        }
      ],
      "name": "getSubmissionRevisions",
      "outputs": [
        {
          "name": "revisionHashes",
          "type": "bytes32[]"
        }
      ],
      "payable": false,
      "stateMutability": "view",
      "type": "function"
    },
    {
      "constant": true,
      "inputs": [
        {
          "name": "authorgAddress",
          "type": "address"
        }
      ],
      "name": "getPostKeyCountForAuthorg",
      "outputs": [
        {
          "name": "",
          "type": "uint256"
        }
      ],
      "payable": false,
      "stateMutability": "view",
      "type": "function"
    },
    {
      "constant": true,
      "inputs": [
        {
          "name": "postUserAddress",
          "type": "address"
        },
        {
          "name": "originalPostUserAddress",
          "type": "address"
        },
        {
          "name": "originalPostSubmissionHash",
          "type": "bytes32"
        },
        {
          "name": "originalPostRevisionHash",
          "type": "bytes32"
        }
      ],
      "name": "doesPostReferencePost",
      "outputs": [
        {
          "name": "",
          "type": "bool"
        }
      ],
      "payable": false,
      "stateMutability": "view",
      "type": "function"
    },
    {
      "constant": true,
      "inputs": [
        {
          "name": "authorgAddress",
          "type": "address"
        },
        {
          "name": "submissionHash",
          "type": "bytes32"
        },
        {
          "name": "revisionHash",
          "type": "bytes32"
        }
      ],
      "name": "isAuthorgOfSubmissionRevision",
      "outputs": [
        {
          "name": "",
          "type": "bool"
        }
      ],
      "payable": false,
      "stateMutability": "view",
      "type": "function"
    },
    {
      "constant": true,
      "inputs": [
        {
          "name": "index",
          "type": "uint256"
        }
      ],
      "name": "getAuthSubRevKey",
      "outputs": [
        {
          "name": "",
          "type": "address"
        },
        {
          "name": "",
          "type": "bytes32"
        },
        {
          "name": "",
          "type": "bytes32"
        },
        {
          "name": "",
          "type": "uint256"
        }
      ],
      "payable": false,
      "stateMutability": "view",
      "type": "function"
    },
    {
      "constant": true,
      "inputs": [
        {
          "name": "authorgAddress",
          "type": "address"
        },
        {
          "name": "bioRevisionHash",
          "type": "bytes32"
        }
      ],
      "name": "isAuthorgOfBio",
      "outputs": [
        {
          "name": "",
          "type": "bool"
        }
      ],
      "payable": false,
      "stateMutability": "view",
      "type": "function"
    },
    {
      "constant": true,
      "inputs": [],
      "name": "getTotalAuthSubRevKeyCount",
      "outputs": [
        {
          "name": "",
          "type": "uint256"
        }
      ],
      "payable": false,
      "stateMutability": "view",
      "type": "function"
    },
    {
      "constant": true,
      "inputs": [],
      "name": "submit_revision_cost_in_ink",
      "outputs": [
        {
          "name": "",
          "type": "uint256"
        }
      ],
      "payable": false,
      "stateMutability": "view",
      "type": "function"
    },
    {
      "constant": true,
      "inputs": [
        {
          "name": "authAdd",
          "type": "address"
        },
        {
          "name": "indexIndex",
          "type": "uint256"
        }
      ],
      "name": "getAuthorgPostKey",
      "outputs": [
        {
          "name": "authorgAddress",
          "type": "address"
        },
        {
          "name": "submissionHash",
          "type": "bytes32"
        },
        {
          "name": "revisionHash",
          "type": "bytes32"
        },
        {
          "name": "timestamp",
          "type": "uint256"
        }
      ],
      "payable": false,
      "stateMutability": "view",
      "type": "function"
    },
    {
      "constant": false,
      "inputs": [
        {
          "name": "subCitadelManifestHash",
          "type": "bytes32"
        },
        {
          "name": "revCitadelManifestHash",
          "type": "bytes32"
        }
      ],
      "name": "submitRevision",
      "outputs": [],
      "payable": false,
      "stateMutability": "nonpayable",
      "type": "function"
    },
    {
      "constant": false,
      "inputs": [
        {
          "name": "originalAuthorgAddress",
          "type": "address"
        },
        {
          "name": "originalSubmissionHash",
          "type": "bytes32"
        },
        {
          "name": "originalRevisionHash",
          "type": "bytes32"
        },
        {
          "name": "responseSubmissionHash",
          "type": "bytes32"
        },
        {
          "name": "responseRevisionHash",
          "type": "bytes32"
        }
      ],
      "name": "respondToAuthorgSubmissionRevision",
      "outputs": [],
      "payable": false,
      "stateMutability": "nonpayable",
      "type": "function"
    },
    {
      "constant": true,
      "inputs": [],
      "name": "reaction_cost_in_ink",
      "outputs": [
        {
          "name": "",
          "type": "uint256"
        }
      ],
      "payable": false,
      "stateMutability": "view",
      "type": "function"
    },
    {
      "constant": true,
      "inputs": [],
      "name": "ink_comptroller",
      "outputs": [
        {
          "name": "",
          "type": "address"
        }
      ],
      "payable": false,
      "stateMutability": "view",
      "type": "function"
    },
    {
      "constant": true,
      "inputs": [
        {
          "name": "authorgAddress",
          "type": "address"
        },
        {
          "name": "submissionHash",
          "type": "bytes32"
        },
        {
          "name": "revisionHash",
          "type": "bytes32"
        },
        {
          "name": "index",
          "type": "uint256"
        }
      ],
      "name": "getReferenceForAuthorgSubmissionRevision",
      "outputs": [
        {
          "name": "",
          "type": "address"
        },
        {
          "name": "",
          "type": "bytes32"
        },
        {
          "name": "",
          "type": "bytes32"
        },
        {
          "name": "",
          "type": "uint256"
        }
      ],
      "payable": false,
      "stateMutability": "view",
      "type": "function"
    },
    {
      "constant": false,
      "inputs": [
        {
          "name": "subCitadelManifestHash",
          "type": "bytes32"
        }
      ],
      "name": "submitSubmission",
      "outputs": [],
      "payable": false,
      "stateMutability": "nonpayable",
      "type": "function"
    },
    {
      "constant": true,
      "inputs": [
        {
          "name": "authorgAddress",
          "type": "address"
        },
        {
          "name": "submissionHash",
          "type": "bytes32"
        }
      ],
      "name": "isAuthorgOfSubmission",
      "outputs": [
        {
          "name": "",
          "type": "bool"
        }
      ],
      "payable": false,
      "stateMutability": "view",
      "type": "function"
    },
    {
      "constant": true,
      "inputs": [],
      "name": "bio_update_in_ink",
      "outputs": [
        {
          "name": "",
          "type": "uint256"
        }
      ],
      "payable": false,
      "stateMutability": "view",
      "type": "function"
    },
    {
      "inputs": [
        {
          "name": "bioCost",
          "type": "uint256"
        },
        {
          "name": "reactionCost",
          "type": "uint256"
        },
        {
          "name": "revisionCost",
          "type": "uint256"
        },
        {
          "name": "submissionCost",
          "type": "uint256"
        }
      ],
      "payable": false,
      "stateMutability": "nonpayable",
      "type": "constructor"
    },
    {
      "anonymous": false,
      "inputs": [
        {
          "indexed": true,
          "name": "_authorg",
          "type": "address"
        },
        {
          "indexed": true,
          "name": "_revHash",
          "type": "bytes32"
        }
      ],
      "name": "BioUpdated",
      "type": "event"
    },
    {
      "anonymous": false,
      "inputs": [
        {
          "indexed": true,
          "name": "_authorg",
          "type": "address"
        },
        {
          "indexed": true,
          "name": "_subHash",
          "type": "bytes32"
        },
        {
          "indexed": true,
          "name": "_revHash",
          "type": "bytes32"
        }
      ],
      "name": "RevisionPosted",
      "type": "event"
    }
  ],
  "bytecode": "0x6060604052341561000f57600080fd5b60405160808061222883398101604052808051906020019091908051906020019091908051906020019091908051906020019091905050336000806101000a81548173ffffffffffffffffffffffffffffffffffffffff021916908373ffffffffffffffffffffffffffffffffffffffff1602179055508360018190555082600281905550816003819055508060048190555050505050612173806100b56000396000f30060606040526004361061013e576000357c0100000000000000000000000000000000000000000000000000000000900463ffffffff16806327c74200146101435780632d5aff26146101aa578063316e1c9b1461028057806352b189b7146103745780635804a97f1461039d5780635813a32f1461042757806362461adf1461048e5780637106acee146104b5578063751c82f41461055057806376f6c3611461059d5780637d05a170146106275780637ff632a214610692578063a322b93a1461071a578063b03b8f0114610778578063b43d3b99146107a1578063b5f23133146107ca578063c46e7a9614610871578063c7e55a79146108a5578063ca94046114610912578063cc4671941461093b578063e79c73bb14610990578063f90eddab14610a51578063fd4f90f214610a78578063ff355dd614610ad6575b600080fd5b341561014e57600080fd5b610194600480803573ffffffffffffffffffffffffffffffffffffffff169060200190919080356000191690602001909190803560001916906020019091905050610aff565b6040518082815260200191505060405180910390f35b34156101b557600080fd5b6101e1600480803573ffffffffffffffffffffffffffffffffffffffff16906020019091905050610b85565b604051808060200180602001838103835285818151815260200191508051906020019060200280838360005b8381101561022857808201518184015260208101905061020d565b50505050905001838103825284818151815260200191508051906020019060200280838360005b8381101561026a57808201518184015260208101905061024f565b5050505090500194505050505060405180910390f35b341561028b57600080fd5b61037260048080356000191690602001909190803560001916906020019091908035906020019082018035906020019080806020026020016040519081016040528093929190818152602001838360200280828437820191505050505050919080359060200190820180359060200190808060200260200160405190810160405280939291908181526020018383602002808284378201915050505050509190803590602001908201803590602001908080602002602001604051908101604052809392919081815260200183836020028082843782019150505050505091905050610cd0565b005b341561037f57600080fd5b610387610d71565b6040518082815260200191505060405180910390f35b34156103a857600080fd5b61040d600480803573ffffffffffffffffffffffffffffffffffffffff1690602001909190803573ffffffffffffffffffffffffffffffffffffffff169060200190919080356000191690602001909190803560001916906020019091905050610d77565b604051808215151515815260200191505060405180910390f35b341561043257600080fd5b610478600480803573ffffffffffffffffffffffffffffffffffffffff169060200190919080356000191690602001909190803560001916906020019091905050610e4d565b6040518082815260200191505060405180910390f35b341561049957600080fd5b6104b3600480803560001916906020019091905050610ed6565b005b34156104c057600080fd5b6104f9600480803573ffffffffffffffffffffffffffffffffffffffff169060200190919080356000191690602001909190505061118a565b6040518080602001828103825283818151815260200191508051906020019060200280838360005b8381101561053c578082015181840152602081019050610521565b505050509050019250505060405180910390f35b341561055b57600080fd5b610587600480803573ffffffffffffffffffffffffffffffffffffffff1690602001909190505061124b565b6040518082815260200191505060405180910390f35b34156105a857600080fd5b61060d600480803573ffffffffffffffffffffffffffffffffffffffff1690602001909190803573ffffffffffffffffffffffffffffffffffffffff16906020019091908035600019169060200190919080356000191690602001909190505061129a565b604051808215151515815260200191505060405180910390f35b341561063257600080fd5b610678600480803573ffffffffffffffffffffffffffffffffffffffff169060200190919080356000191690602001909190803560001916906020019091905050611370565b604051808215151515815260200191505060405180910390f35b341561069d57600080fd5b6106b3600480803590602001909190505061140c565b604051808573ffffffffffffffffffffffffffffffffffffffff1673ffffffffffffffffffffffffffffffffffffffff1681526020018460001916600019168152602001836000191660001916815260200182815260200194505050505060405180910390f35b341561072557600080fd5b61075e600480803573ffffffffffffffffffffffffffffffffffffffff1690602001909190803560001916906020019091905050611523565b604051808215151515815260200191505060405180910390f35b341561078357600080fd5b61078b61158f565b6040518082815260200191505060405180910390f35b34156107ac57600080fd5b6107b46115ce565b6040518082815260200191505060405180910390f35b34156107d557600080fd5b61080a600480803573ffffffffffffffffffffffffffffffffffffffff169060200190919080359060200190919050506115d4565b604051808573ffffffffffffffffffffffffffffffffffffffff1673ffffffffffffffffffffffffffffffffffffffff1681526020018460001916600019168152602001836000191660001916815260200182815260200194505050505060405180910390f35b341561087c57600080fd5b6108a360048080356000191690602001909190803560001916906020019091905050611654565b005b34156108b057600080fd5b610910600480803573ffffffffffffffffffffffffffffffffffffffff1690602001909190803560001916906020019091908035600019169060200190919080356000191690602001909190803560001916906020019091905050611663565b005b341561091d57600080fd5b610925611828565b6040518082815260200191505060405180910390f35b341561094657600080fd5b61094e61182e565b604051808273ffffffffffffffffffffffffffffffffffffffff1673ffffffffffffffffffffffffffffffffffffffff16815260200191505060405180910390f35b341561099b57600080fd5b6109ea600480803573ffffffffffffffffffffffffffffffffffffffff169060200190919080356000191690602001909190803560001916906020019091908035906020019091905050611853565b604051808573ffffffffffffffffffffffffffffffffffffffff1673ffffffffffffffffffffffffffffffffffffffff1681526020018460001916600019168152602001836000191660001916815260200182815260200194505050505060405180910390f35b3415610a5c57600080fd5b610a766004808035600019169060200190919050506119f0565b005b3415610a8357600080fd5b610abc600480803573ffffffffffffffffffffffffffffffffffffffff16906020019091908035600019169060200190919050506119fe565b604051808215151515815260200191505060405180910390f35b3415610ae157600080fd5b610ae9611a79565b6040518082815260200191505060405180910390f35b6000600560008573ffffffffffffffffffffffffffffffffffffffff1673ffffffffffffffffffffffffffffffffffffffff16815260200190815260200160002060040160008460001916600019168152602001908152602001600020600101600083600019166000191681526020019081526020016000206000015490509392505050565b610b8d611eb0565b610b95611ec4565b600560008473ffffffffffffffffffffffffffffffffffffffff1673ffffffffffffffffffffffffffffffffffffffff168152602001908152602001600020600001600201600560008573ffffffffffffffffffffffffffffffffffffffff1673ffffffffffffffffffffffffffffffffffffffff16815260200190815260200160002060000160030181805480602002602001604051908101604052809291908181526020018280548015610c6e57602002820191906000526020600020905b81546000191681526020019060010190808311610c56575b5050505050915080805480602002602001604051908101604052809291908181526020018280548015610cc057602002820191906000526020600020905b815481526020019060010190808311610cac575b5050505050905091509150915091565b6000610cdc8686611654565b82518451141515610cec57600080fd5b81518451141515610cfc57600080fd5b600090505b8351811015610d6957610d5c8482815181101515610d1b57fe5b906020019060200201518483815181101515610d3357fe5b906020019060200201518484815181101515610d4b57fe5b906020019060200201518989611663565b8080600101915050610d01565b505050505050565b60045481565b600080600560008673ffffffffffffffffffffffffffffffffffffffff1673ffffffffffffffffffffffffffffffffffffffff168152602001908152602001600020600401600085600019166000191681526020019081526020016000206001016000846000191660001916815260200190815260200160002090508060050160008773ffffffffffffffffffffffffffffffffffffffff1673ffffffffffffffffffffffffffffffffffffffff16815260200190815260200160002060009054906101000a900460ff16915050949350505050565b6000600560008573ffffffffffffffffffffffffffffffffffffffff1673ffffffffffffffffffffffffffffffffffffffff16815260200190815260200160002060040160008460001916600019168152602001908152602001600020600101600083600019166000191681526020019081526020016000206004018054905090509392505050565b610ede611ed8565b610ee6611eb0565b610eee611eb0565b610ef6611eec565b6000604051805910610f055750595b908082528060200260200182016040525093506000604051805910610f275750595b908082528060200260200182016040525092506000604051805910610f495750595b90808252806020026020018201604052509150600560003373ffffffffffffffffffffffffffffffffffffffff1673ffffffffffffffffffffffffffffffffffffffff1681526020019081526020016000206000016002018054806001018281610fb39190611f31565b916000526020600020900160008790919091509060001916905550600560003373ffffffffffffffffffffffffffffffffffffffff1673ffffffffffffffffffffffffffffffffffffffff16815260200190815260200160002060000160030180548060010182816110259190611f5d565b91600052602060002090016000429091909150555060a0604051908101604052804281526020018660001916815260200185815260200184815260200183815250905080600560003373ffffffffffffffffffffffffffffffffffffffff1673ffffffffffffffffffffffffffffffffffffffff16815260200190815260200160002060000160010160008760001916600019168152602001908152602001600020600082015181600001556020820151816001019060001916905560408201518160020190805190602001906110fd929190611f89565b50606082015181600301908051906020019061111a929190612013565b506080820151816004019080519060200190611137929190612013565b5090505084600019163373ffffffffffffffffffffffffffffffffffffffff167f498f221ad7bee9a0395e38e30e5009487cb4cf56e2c4cc2d2d67240fa3fdb1cc60405160405180910390a35050505050565b611192611eb0565b600560008473ffffffffffffffffffffffffffffffffffffffff1673ffffffffffffffffffffffffffffffffffffffff1681526020019081526020016000206004016000836000191660001916815260200190815260200160002060020180548060200260200160405190810160405280929190818152602001828054801561123e57602002820191906000526020600020905b81546000191681526020019060010190808311611226575b5050505050905092915050565b6000600560008373ffffffffffffffffffffffffffffffffffffffff1673ffffffffffffffffffffffffffffffffffffffff168152602001908152602001600020600501805490509050919050565b600080600560008673ffffffffffffffffffffffffffffffffffffffff1673ffffffffffffffffffffffffffffffffffffffff168152602001908152602001600020600401600085600019166000191681526020019081526020016000206001016000846000191660001916815260200190815260200160002090508060050160008773ffffffffffffffffffffffffffffffffffffffff1673ffffffffffffffffffffffffffffffffffffffff16815260200190815260200160002060009054906101000a900460ff16915050949350505050565b6000806000600560008773ffffffffffffffffffffffffffffffffffffffff1673ffffffffffffffffffffffffffffffffffffffff1681526020019081526020016000209150816004016000866000191660001916815260200190815260200160002090506000600102816001016000866000191660001916815260200190815260200160002060010154600019161415925050509392505050565b60008060008060008060008060068981548110151561142757fe5b906000526020600020900160009054906101000a900473ffffffffffffffffffffffffffffffffffffffff16935060078981548110151561146457fe5b906000526020600020900154925060088981548110151561148157fe5b9060005260206000209001549150600560008573ffffffffffffffffffffffffffffffffffffffff1673ffffffffffffffffffffffffffffffffffffffff1681526020019081526020016000206004016000846000191660001916815260200190815260200160002060010160008360001916600019168152602001908152602001600020600001549050838383839750975097509750505050509193509193565b600080600560008573ffffffffffffffffffffffffffffffffffffffff1673ffffffffffffffffffffffffffffffffffffffff16815260200190815260200160002090506000600102816000016001016000856000191660001916815260200190815250505092915050565b60006007805490506006805490501415806115b4575060088054905060068054905014155b156115c257600090506115cb565b60068054905090505b90565b60035481565b6000806000806000600560008873ffffffffffffffffffffffffffffffffffffffff1673ffffffffffffffffffffffffffffffffffffffff1681526020019081526020016000206005018681548110151561162b57fe5b90600052602060002090015490506116428161140c565b94509450945094505092959194509250565b61165f338383611a7f565b5050565b6000806000611673338686611370565b151561167e57600080fd5b600560008973ffffffffffffffffffffffffffffffffffffffff1673ffffffffffffffffffffffffffffffffffffffff168152602001908152602001600020925082600401600088600019166000191681526020019081526020016000209150816001016000876000191660001916815260200190815260200160002090508060020180548060010182816117139190612066565b9160005260206000209001600033909190916101000a81548173ffffffffffffffffffffffffffffffffffffffff021916908373ffffffffffffffffffffffffffffffffffffffff160217905550508060030180548060010182816117789190611f31565b9160005260206000209001600087909190915090600019169055508060040180548060010182816117a99190611f31565b91600052602060002090016000869091909150906000191690555060018160050160003373ffffffffffffffffffffffffffffffffffffffff1673ffffffffffffffffffffffffffffffffffffffff16815260200190815260200160002060006101000a81548160ff0219169083151502179055505050505050505050565b60025481565b6000809054906101000a900473ffffffffffffffffffffffffffffffffffffffff1681565b6000806000806000806000806000600560008e73ffffffffffffffffffffffffffffffffffffffff1673ffffffffffffffffffffffffffffffffffffffff16815260200190815260200160002060040160008d6000191660001916815260200190815260200160002060010160008c600019166000191681526020019081526020016000209450846002018a8154811015156118eb57fe5b906000526020600020900160009054906101000a900473ffffffffffffffffffffffffffffffffffffffff169350846003018a81548110151561192a57fe5b9060005260206000209001549250846004018a81548110151561194957fe5b9060005260206000209001549150600560008573ffffffffffffffffffffffffffffffffffffffff1673ffffffffffffffffffffffffffffffffffffffff16815260200190815260200160002060040160008460001916600019168152602001908152602001600020600101600083600019166000191681526020019081526020016000209050838383836000015498509850985098505050505050945094509450949050565b6119fb338283611a7f565b50565b6000806000600560008673ffffffffffffffffffffffffffffffffffffffff1673ffffffffffffffffffffffffffffffffffffffff1681526020019081526020016000209150816004016000856000191660001916815260200190815260200160002090506000816002018054905014159250505092915050565b60015481565b6000611a89611ed8565b611a91611eb0565b611a99611eb0565b611aa1611eec565b600560008973ffffffffffffffffffffffffffffffffffffffff1673ffffffffffffffffffffffffffffffffffffffff168152602001908152602001600020945060006001028560040160008960001916600019168152602001908152602001600020600101600088600019166000191681526020019081526020016000206001015460001916141515611b3457600080fd5b6000604051805910611b435750595b908082528060200260200182016040525093506000604051805910611b655750595b908082528060200260200182016040525092506000604051805910611b875750595b9080825280602002602001820160405250915060a060405190810160405280428152602001876000191681526020018581526020018481526020018381525090508085600401600089600019166000191681526020019081526020016000206001016000886000191660001916815260200190815260200160002060008201518160000155602082015181600101906000191690556040820151816002019080519060200190611c38929190611f89565b506060820151816003019080519060200190611c55929190612013565b506080820151816004019080519060200190611c72929190612013565b5090505084600401600088600019166000191681526020019081526020016000206002018054806001018281611ca89190611f31565b91600052602060002090016000889091909150906000191690555086600560008a73ffffffffffffffffffffffffffffffffffffffff1673ffffffffffffffffffffffffffffffffffffffff168152602001908152602001600020600401600089600019166000191681526020019081526020016000206000018160001916905550600560008973ffffffffffffffffffffffffffffffffffffffff1673ffffffffffffffffffffffffffffffffffffffff1681526020019081526020016000206005018054806001018281611d7e9190611f5d565b916000526020600020900160006008805490509091909150555060068054806001018281611dac9190612066565b916000526020600020900160008a909190916101000a81548173ffffffffffffffffffffffffffffffffffffffff021916908373ffffffffffffffffffffffffffffffffffffffff1602179055505060078054806001018281611e0f9190611f31565b91600052602060002090016000899091909150906000191690555060088054806001018281611e3e9190611f31565b916000526020600020900160008890919091509060001916905550856000191687600019168973ffffffffffffffffffffffffffffffffffffffff167fe723394ac50085e9dd38845b2f34687de5cd5b882cca10aab5be4eb9597bcc8460405160405180910390a45050505050505050565b602060405190810160405280600081525090565b602060405190810160405280600081525090565b602060405190810160405280600081525090565b60a0604051908101604052806000815260200160008019168152602001611f11612092565b8152602001611f1e6120a6565b8152602001611f2b6120a6565b81525090565b815481835581811511611f5857818360005260206000209182019101611f5791906120ba565b5b505050565b815481835581811511611f8457818360005260206000209182019101611f8391906120df565b5b505050565b828054828255906000526020600020908101928215612002579160200282015b828111156120015782518260006101000a81548173ffffffffffffffffffffffffffffffffffffffff021916908373ffffffffffffffffffffffffffffffffffffffff16021790555091602001919060010190611fa9565b5b50905061200f9190612104565b5090565b828054828255906000526020600020908101928215612055579160200282015b82811115612054578251829060001916905591602001919060010190612033565b5b50905061206291906120ba565b5090565b81548183558181151161208d5781836000526020600020918201910161208c91906120df565b5b505050565b602060405190810160405280600081525090565b602060405190810160405280600081525090565b6120dc91905b808211156120d85760008160009055506001016120c0565b5090565b90565b61210191905b808211156120fd5760008160009055506001016120e5565b5090565b90565b61214491905b8082111561214057600081816101000a81549073ffffffffffffffffffffffffffffffffffffffff02191690555060010161210a565b5090565b905600a165627a7a723058205e19e71d0a96375135f8793319afeafa34db17a6ba9b74b9f735f76f68215e090029",
  "source": "pragma solidity ^0.4.13;\r\n\r\ncontract Managed {\r\n    address public ink_comptroller;  \r\n    modifier onlyComptroller {\r\n        require(msg.sender == ink_comptroller);\r\n        _;\r\n    }\r\n}\r\n\r\ncontract Ink is Managed {\r\n\r\n    event BioUpdated(address indexed _authorg, bytes32 indexed _revHash);\r\n    event RevisionPosted(address indexed _authorg, bytes32 indexed _subHash, bytes32 indexed _revHash);\r\n\r\n    uint256 public bio_update_in_ink;\r\n    uint256 public reaction_cost_in_ink;\r\n    uint256 public submit_revision_cost_in_ink; \r\n    uint256 public submit_submission_cost_in_ink; \r\n    \r\n    function Ink(uint bioCost, uint256 reactionCost, uint256 revisionCost, uint256 submissionCost) {\r\n        ink_comptroller = msg.sender;\r\n        bio_update_in_ink = bioCost;\r\n        reaction_cost_in_ink = reactionCost;\r\n        submit_revision_cost_in_ink = revisionCost;\r\n        submit_submission_cost_in_ink = submissionCost;\r\n    }\r\n    \r\n    struct Authorg {\r\n        Submission selfBioSubmission;       \r\n\r\n        mapping(bytes32 => Submission) submissions;\r\n\r\n        uint[] postKeyIndexes;\r\n    }\r\n\r\n    struct Submission {\r\n        bytes32 citadelManifestHash;\r\n        mapping(bytes32 => Revision) revisions;\r\n        bytes32[] revisionHashes;\r\n        uint[] revisionTimestamps;\r\n    }\r\n    \r\n    struct Revision {\r\n        uint timestamp;\r\n        bytes32 citadelManifestHash;\r\n\r\n        address[] referenceKeyAuthorgs;\r\n        bytes32[] referenceKeySubmissions;\r\n        bytes32[] referenceKeyRevisions;\r\n\r\n        mapping(address => bool) hasUserReferencedRevision;\r\n    }\r\n\r\n    struct SubRevKey {\r\n        bytes32 submissionHash;\r\n        bytes32 revisionHash;\r\n    }\r\n\r\n    struct AuthSubRevKey {\r\n        address authorgAddress;\r\n        bytes32 submissionHash;\r\n        bytes32 revisionHash;\r\n    }\r\n\r\n    \r\n    mapping(address => Authorg) internalAuthorgs;\r\n    \r\n    // solidity compliation seems to cry when we store these types of keys as a struct, \r\n    // so we're just using multiple parallel arrays everywhere (for now)\r\n    address[] allPostAuthorgs;\r\n    bytes32[] allPostSubmissions;\r\n    bytes32[] allPostRevisions;\r\n\r\n    function getBioRevisions(address authorgAddress) constant returns (bytes32[] hashes, uint[] timestamps) {\r\n        return (internalAuthorgs[authorgAddress].selfBioSubmission.revisionHashes, internalAuthorgs[authorgAddress].selfBioSubmission.revisionTimestamps);\r\n    }\r\n\r\n    function getTotalAuthSubRevKeyCount() constant returns (uint) {\r\n        if (allPostAuthorgs.length != allPostSubmissions.length || allPostAuthorgs.length != allPostRevisions.length) {\r\n            return 0;\r\n        } else {\r\n            return allPostAuthorgs.length;\r\n        }\r\n    }\r\n\r\n    function getAuthSubRevKey(uint index) constant returns (address, bytes32, bytes32, uint) {\r\n        var authorg = allPostAuthorgs[index];\r\n        var submission = allPostSubmissions[index];\r\n        var revision = allPostRevisions[index];\r\n        var timestamp = internalAuthorgs[authorg].submissions[submission].revisions[revision].timestamp;\r\n        return (authorg, submission, revision, timestamp);\r\n    }\r\n    \r\n    function submitBioRevision(bytes32 citadelManifestHash) {\r\n        //spend(bio_update_in_ink);\r\n        var newAuthorgs = new address[](0);\r\n        var newSubmissions = new bytes32[](0);\r\n        var newRevisions = new bytes32[](0);\r\n        internalAuthorgs[msg.sender].selfBioSubmission.revisionHashes.push(citadelManifestHash);\r\n        internalAuthorgs[msg.sender].selfBioSubmission.revisionTimestamps.push(block.timestamp);\r\n        var revision = Revision({\r\n            timestamp : block.timestamp,\r\n            citadelManifestHash : citadelManifestHash,\r\n            referenceKeyAuthorgs : newAuthorgs,\r\n            referenceKeySubmissions : newSubmissions,\r\n            referenceKeyRevisions : newRevisions\r\n        });\r\n        internalAuthorgs[msg.sender].selfBioSubmission.revisions[citadelManifestHash] = revision;\r\n        BioUpdated(msg.sender, citadelManifestHash);\r\n    }\r\n    \r\n    function isAuthorgOfSubmission(address authorgAddress, bytes32 submissionHash) constant returns (bool) {\r\n        var authorg = internalAuthorgs[authorgAddress];\r\n        var submission = authorg.submissions[submissionHash];\r\n        return submission.revisionHashes.length != 0;\r\n    }\r\n    \r\n    function isAuthorgOfBio(address authorgAddress, bytes32 bioRevisionHash) constant returns (bool) {\r\n        var authorg = internalAuthorgs[authorgAddress];\r\n        authorg.selfBioSubmission.revisions[bioRevisionHash].citadelManifestHash != 0;\r\n    }\r\n    \r\n    function isAuthorgOfSubmissionRevision(address authorgAddress, bytes32 submissionHash, bytes32 revisionHash) constant returns (bool) {\r\n        var authorg = internalAuthorgs[authorgAddress];\r\n        var submission = authorg.submissions[submissionHash];\r\n        return submission.revisions[revisionHash].citadelManifestHash != 0;\r\n    }\r\n\r\n    function submitSubmission(bytes32 subCitadelManifestHash) {\r\n        //spend(submit_submission_cost_in_ink);\r\n        submitRevision(msg.sender, subCitadelManifestHash, subCitadelManifestHash);\r\n    }\r\n\r\n    function submitRevisionWithReferences(bytes32 subCitadelManifestHash, bytes32 revCitadelManifestHash, address[] refKeyAuthorgs, bytes32[] refKeySubmissions, bytes32[] refKeyRevisions) {\r\n        submitRevision(subCitadelManifestHash, revCitadelManifestHash);\r\n        require(refKeyAuthorgs.length == refKeySubmissions.length);\r\n        require(refKeyAuthorgs.length == refKeyRevisions.length);\r\n\r\n        for (uint i = 0; i < refKeyAuthorgs.length; i++) {\r\n            respondToAuthorgSubmissionRevision(refKeyAuthorgs[i], refKeySubmissions[i], refKeyRevisions[i], subCitadelManifestHash, revCitadelManifestHash);\r\n        }\r\n    }\r\n    \r\n    function submitRevision(bytes32 subCitadelManifestHash, bytes32 revCitadelManifestHash) {\r\n        //spend(submit_revision_cost_in_ink);\r\n        submitRevision(msg.sender, subCitadelManifestHash, revCitadelManifestHash);\r\n    }\r\n    \r\n    function submitRevision(address sender, bytes32 subCitadelManifestHash, bytes32 revCitadelManifestHash) private {\r\n        Authorg authorg = internalAuthorgs[sender];\r\n\r\n        // must have a bio set.\r\n        //require (authorg.selfBioSubmission.revisionHashes.length > 0);\r\n\r\n        // never submitted revision to this submission before        \r\n        require (authorg.submissions[subCitadelManifestHash].revisions[revCitadelManifestHash].citadelManifestHash == 0);\r\n        \r\n        var newAuthorgs = new address[](0);\r\n        var newSubmissions = new bytes32[](0);\r\n        var newRevisions = new bytes32[](0);\r\n        var revision = Revision({\r\n            timestamp : block.timestamp,\r\n            citadelManifestHash : revCitadelManifestHash,\r\n            referenceKeyAuthorgs : newAuthorgs,\r\n            referenceKeySubmissions : newSubmissions,\r\n            referenceKeyRevisions : newRevisions\r\n        });\r\n        authorg.submissions[subCitadelManifestHash].revisions[revCitadelManifestHash] = revision;\r\n        \r\n\r\n        authorg.submissions[subCitadelManifestHash].revisionHashes.push(revCitadelManifestHash);\r\n        internalAuthorgs[sender].submissions[subCitadelManifestHash].citadelManifestHash = subCitadelManifestHash;\r\n        internalAuthorgs[sender].postKeyIndexes.push(allPostRevisions.length);\r\n        allPostAuthorgs.push(sender);\r\n        allPostSubmissions.push(subCitadelManifestHash);\r\n        allPostRevisions.push(revCitadelManifestHash);\r\n        RevisionPosted(sender, subCitadelManifestHash, revCitadelManifestHash);\r\n    }\r\n    \r\n    function respondToAuthorgSubmissionRevision(address originalAuthorgAddress, bytes32 originalSubmissionHash, bytes32 originalRevisionHash, bytes32 responseSubmissionHash, bytes32 responseRevisionHash) {\r\n        require (isAuthorgOfSubmissionRevision(msg.sender, responseSubmissionHash, responseRevisionHash));\r\n        //spend(1);\r\n        var originalAuthorg = internalAuthorgs[originalAuthorgAddress];\r\n        var originalSubmission = originalAuthorg.submissions[originalSubmissionHash];\r\n        var originalRevision = originalSubmission.revisions[originalRevisionHash];\r\n\r\n        originalRevision.referenceKeyAuthorgs.push(msg.sender);\r\n        originalRevision.referenceKeySubmissions.push(responseSubmissionHash);\r\n        originalRevision.referenceKeyRevisions.push(responseRevisionHash);\r\n\r\n        originalRevision.hasUserReferencedRevision[msg.sender] = true;\r\n    }\r\n\r\n    function getNumberReferencesForAuthorgSubmissionRevision(address authorgAddress, bytes32 submissionHash, bytes32 revisionHash) constant returns (uint) {\r\n        return internalAuthorgs[authorgAddress].submissions[submissionHash].revisions[revisionHash].referenceKeyRevisions.length;\r\n    }\r\n\r\n    function getReferenceForAuthorgSubmissionRevision(address authorgAddress, bytes32 submissionHash, bytes32 revisionHash, uint index) constant returns(address, bytes32, bytes32, uint) {\r\n        Revision rev = internalAuthorgs[authorgAddress].submissions[submissionHash].revisions[revisionHash];\r\n        address refAuthorgAddress = rev.referenceKeyAuthorgs[index];\r\n        bytes32 refSubmissionHash = rev.referenceKeySubmissions[index];\r\n        bytes32 refRevisionHash = rev.referenceKeyRevisions[index];\r\n        Revision refRevision = internalAuthorgs[refAuthorgAddress].submissions[refSubmissionHash].revisions[refRevisionHash];\r\n        return (refAuthorgAddress, refSubmissionHash, refRevisionHash, refRevision.timestamp);\r\n    }\r\n\r\n    function getPostKeyCountForAuthorg(address authorgAddress) constant returns (uint) {\r\n        return internalAuthorgs[authorgAddress].postKeyIndexes.length;\r\n    }\r\n\r\n    function getAuthorgPostKey(address authAdd, uint indexIndex) constant returns (address authorgAddress, bytes32 submissionHash, bytes32 revisionHash, uint timestamp) {\r\n        uint index = internalAuthorgs[authAdd].postKeyIndexes[indexIndex];\r\n        return (getAuthSubRevKey(index));\r\n    }\r\n\r\n    function getTimestampForRevision(address authorgAddress, bytes32 submissionHash, bytes32 revisionHash) constant returns(uint) {\r\n        return internalAuthorgs[authorgAddress].submissions[submissionHash].revisions[revisionHash].timestamp;\r\n    }\r\n\r\n    function getSubmissionRevisions(address authorgAddress, bytes32 submissionHash) constant returns (bytes32[] revisionHashes) {\r\n         return internalAuthorgs[authorgAddress].submissions[submissionHash].revisionHashes;\r\n    }\r\n\r\n    function doesPostReferencePost(address postUserAddress, \r\n                                    address originalPostUserAddress, \r\n                                    bytes32 originalPostSubmissionHash, \r\n                                    bytes32 originalPostRevisionHash) \r\n                                    constant returns (bool) \r\n    {\r\n        Revision rev = internalAuthorgs[originalPostUserAddress].submissions[originalPostSubmissionHash].revisions[originalPostRevisionHash];\r\n        return rev.hasUserReferencedRevision[postUserAddress];\r\n    }\r\n\r\n    function constDoesPostReferencePost(address postUserAddress, \r\n                                    address originalPostUserAddress, \r\n                                    bytes32 originalPostSubmissionHash, \r\n                                    bytes32 originalPostRevisionHash) \r\n                                    constant returns (bool) \r\n    {\r\n        Revision rev = internalAuthorgs[originalPostUserAddress].submissions[originalPostSubmissionHash].revisions[originalPostRevisionHash];\r\n        return rev.hasUserReferencedRevision[postUserAddress];\r\n    }\r\n\r\n}",
  "sourcePath": "E:\\Projects\\CitaDAO\\src\\app-contracts\\contracts\\Ink.sol",
  "compiler": {
    "name": "solc",
    "version": "0.4.18+commit.9cf6e910.Emscripten.clang"
  },
  "schemaVersion": "1.0.1",
  "updatedAt": "2017-11-16T08:03:35.256Z"
}