{
  "contractName": "Managed",
  "abi": [
    {
      "constant": true,
      "inputs": [],
      "name": "ink_comptroller",
      "outputs": [
        {
          "name": "",
          "type": "address"
        }
      ],
      "payable": false,
      "stateMutability": "view",
      "type": "function"
    }
  ],
  "bytecode": "0x6060604052341561000f57600080fd5b60e78061001d6000396000f300606060405260043610603f576000357c0100000000000000000000000000000000000000000000000000000000900463ffffffff168063cc467194146044575b600080fd5b3415604e57600080fd5b60546096565b604051808273ffffffffffffffffffffffffffffffffffffffff1673ffffffffffffffffffffffffffffffffffffffff16815260200191505060405180910390f35b6000809054906101000a900473ffffffffffffffffffffffffffffffffffffffff16815600a165627a7a72305820c5b23536a19a8304f4426c1806e3af1240de0f3942eddc31591b2dbcdeb2c5f80029",
  "source": "pragma solidity ^0.4.13;\r\n\r\ncontract Managed {\r\n    address public ink_comptroller;  \r\n    modifier onlyComptroller {\r\n        require(msg.sender == ink_comptroller);\r\n        _;\r\n    }\r\n}\r\n\r\ncontract Ink is Managed {\r\n\r\n    event BioUpdated(address indexed _authorg, bytes32 indexed _revHash);\r\n    event RevisionPosted(address indexed _authorg, uint indexed _subIndex, bytes32 indexed _revHash);\r\n    event PostReferencedPost(address indexed _authorg, uint indexed _subIndex, bytes32 indexed _revHash, address _refAuthorg, uint _refSubIndex, bytes32 _refRevHash);\r\n    event PostReferencedByPost(address indexed _refAuthorg, uint indexed _refSubIndex, bytes32 indexed _refRevHash, address _authorg, uint _subIndex, bytes32 _revHash);\r\n\r\n    uint256 public bio_update_in_ink;\r\n    uint256 public reaction_cost_in_ink;\r\n    uint256 public submit_revision_cost_in_ink; \r\n    uint256 public submit_submission_cost_in_ink; \r\n    \r\n    function Ink(uint bioCost, uint256 reactionCost, uint256 revisionCost, uint256 submissionCost) public {\r\n        ink_comptroller = msg.sender;\r\n        bio_update_in_ink = bioCost;\r\n        reaction_cost_in_ink = reactionCost;\r\n        submit_revision_cost_in_ink = revisionCost;\r\n        submit_submission_cost_in_ink = submissionCost;\r\n    }\r\n\r\n    function getComptroller() public constant returns (address) {\r\n        return ink_comptroller;\r\n    }\r\n    \r\n    struct Authorg {\r\n        uint submissionIndex;\r\n        Submission selfBioSubmission;       \r\n        mapping(uint => Submission) submissions;\r\n        uint[] postKeyIndexes;\r\n    }\r\n\r\n    struct Submission {\r\n        mapping(bytes32 => Revision) revisions;\r\n        bytes32[] revisionHashes;\r\n        uint[] revisionTimestamps;\r\n    }\r\n    \r\n    struct Revision {\r\n        uint timestamp;\r\n        bytes32 citadelManifestHash;\r\n\r\n        address[] referenceKeyAuthorgs;\r\n        uint[] referenceKeySubmissions;\r\n        bytes32[] referenceKeyRevisions;\r\n\r\n        mapping(address => bool) hasUserReferencedRevision;\r\n    }\r\n\r\n    struct SubRevKey {\r\n        uint submissionIndex;\r\n        bytes32 revisionHash;\r\n    }\r\n\r\n    struct AuthSubRevKey {\r\n        address authorgAddress;\r\n        uint submissionIndex;\r\n        bytes32 revisionHash;\r\n    }\r\n\r\n    \r\n    mapping(address => Authorg) internalAuthorgs;\r\n    \r\n    // solidity compliation seems to cry when we store these types of keys as a struct, \r\n    // so we're just using multiple parallel arrays everywhere (for now)\r\n    address[] allPostAuthorgs;\r\n    uint[] allPostSubmissions;\r\n    bytes32[] allPostRevisions;\r\n\r\n    function getBioRevisions(address authorgAddress) public constant returns (bytes32[] hashes, uint[] timestamps) {\r\n        return (internalAuthorgs[authorgAddress].selfBioSubmission.revisionHashes, \r\n                internalAuthorgs[authorgAddress].selfBioSubmission.revisionTimestamps);\r\n    }\r\n\r\n    function getTotalAuthSubRevKeyCount() public constant returns (uint) {\r\n        if (allPostAuthorgs.length != allPostSubmissions.length || allPostAuthorgs.length != allPostRevisions.length) {\r\n            return 0;\r\n        } else {\r\n            return allPostAuthorgs.length;\r\n        }\r\n    }\r\n\r\n    function getAuthSubRevKey(uint index) public constant returns (address, uint, bytes32, uint) {\r\n        var authorg = allPostAuthorgs[index];\r\n        var submission = allPostSubmissions[index];\r\n        var revision = allPostRevisions[index];\r\n        var timestamp = internalAuthorgs[authorg].submissions[submission].revisions[revision].timestamp;\r\n        return (authorg, submission, revision, timestamp);\r\n    }\r\n    \r\n    function submitBioRevision(bytes32 citadelManifestHash) public {\r\n        //spend(bio_update_in_ink);\r\n        var newAuthorgs = new address[](0);\r\n        var newSubmissions = new uint[](0);\r\n        var newRevisions = new bytes32[](0);\r\n        internalAuthorgs[msg.sender].selfBioSubmission.revisionHashes.push(citadelManifestHash);\r\n        internalAuthorgs[msg.sender].selfBioSubmission.revisionTimestamps.push(block.timestamp);\r\n        var revision = Revision({\r\n            timestamp : block.timestamp,\r\n            citadelManifestHash : citadelManifestHash,\r\n            referenceKeyAuthorgs : newAuthorgs,\r\n            referenceKeySubmissions : newSubmissions,\r\n            referenceKeyRevisions : newRevisions\r\n        });\r\n        internalAuthorgs[msg.sender].selfBioSubmission.revisions[citadelManifestHash] = revision;\r\n        BioUpdated(msg.sender, citadelManifestHash);\r\n    }\r\n    \r\n    function isAuthorgOfSubmission(address authorgAddress, uint submissionIndex) public constant returns (bool) {\r\n        var authorg = internalAuthorgs[authorgAddress];\r\n        var submission = authorg.submissions[submissionIndex];\r\n        return submission.revisionHashes.length != 0;\r\n    }\r\n    \r\n    function isAuthorgOfBio(address authorgAddress, \r\n                            bytes32 bioRevisionHash) \r\n                            public constant returns (bool) {\r\n        var authorg = internalAuthorgs[authorgAddress];\r\n        authorg.selfBioSubmission.revisions[bioRevisionHash].citadelManifestHash != 0;\r\n    }\r\n    \r\n    function isAuthorgOfSubmissionRevision(address authorgAddress, \r\n                                            uint submissionIndex, \r\n                                            bytes32 revisionHash) \r\n                                             public constant returns (bool) {\r\n        var authorg = internalAuthorgs[authorgAddress];\r\n        var submission = authorg.submissions[submissionIndex];\r\n        return submission.revisions[revisionHash].citadelManifestHash != 0;\r\n    }\r\n\r\n    function submitSubmissionWithReferences(bytes32 revCitadelManifestHash, \r\n                                            address[] refKeyAuthorgs, \r\n                                            uint[] refKeySubmissions, \r\n                                            bytes32[] refKeyRevisions) public {\r\n        //spend(submit_submission_cost_in_ink);\r\n        var index = internalAuthorgs[msg.sender].submissionIndex;\r\n        internalAuthorgs[msg.sender].submissionIndex++;\r\n        submitRevisionWithReferences(index, revCitadelManifestHash, refKeyAuthorgs, refKeySubmissions, refKeyRevisions);\r\n    }\r\n\r\n    function submitRevisionWithReferences(uint subCitadelManifestHash, \r\n                                            bytes32 revCitadelManifestHash, \r\n                                            address[] refKeyAuthorgs, \r\n                                            uint[] refKeySubmissions, \r\n                                            bytes32[] refKeyRevisions) public {\r\n\r\n        require(internalAuthorgs[msg.sender].submissionIndex > subCitadelManifestHash); // can't revise a submission that hasn't happened yet\r\n\r\n        submitRevision(subCitadelManifestHash, revCitadelManifestHash);\r\n        require(refKeyAuthorgs.length == refKeySubmissions.length);\r\n        require(refKeyAuthorgs.length == refKeyRevisions.length);\r\n\r\n        for (uint i = 0; i < refKeyAuthorgs.length; i++) {\r\n            respondToAuthorgSubmissionRevision(refKeyAuthorgs[i], refKeySubmissions[i], refKeyRevisions[i], subCitadelManifestHash, revCitadelManifestHash);\r\n        }\r\n    }\r\n    \r\n    function submitRevision(uint subCitadelManifestHash, bytes32 revCitadelManifestHash) private {\r\n        //spend(submit_revision_cost_in_ink);\r\n        submitRevision(msg.sender, subCitadelManifestHash, revCitadelManifestHash);\r\n    }\r\n    \r\n    function submitRevision(address sender, uint subCitadelManifestHash, bytes32 revCitadelManifestHash) private {\r\n        Authorg authorg = internalAuthorgs[sender];\r\n\r\n        // must have a bio set.\r\n        //require (authorg.selfBioSubmission.revisionHashes.length > 0);\r\n\r\n        // never submitted revision to this submission before        \r\n        require (authorg.submissions[subCitadelManifestHash].revisions[revCitadelManifestHash].citadelManifestHash == 0);\r\n        \r\n        var newAuthorgs = new address[](0);\r\n        var newSubmissions = new uint[](0);\r\n        var newRevisions = new bytes32[](0);\r\n        var revision = Revision({\r\n            timestamp : block.timestamp,\r\n            citadelManifestHash : revCitadelManifestHash,\r\n            referenceKeyAuthorgs : newAuthorgs,\r\n            referenceKeySubmissions : newSubmissions,\r\n            referenceKeyRevisions : newRevisions\r\n        });\r\n        authorg.submissions[subCitadelManifestHash].revisions[revCitadelManifestHash] = revision;\r\n        \r\n\r\n        authorg.submissions[subCitadelManifestHash].revisionHashes.push(revCitadelManifestHash);\r\n        internalAuthorgs[sender].postKeyIndexes.push(allPostRevisions.length);\r\n        allPostAuthorgs.push(sender);\r\n        allPostSubmissions.push(subCitadelManifestHash);\r\n        allPostRevisions.push(revCitadelManifestHash);\r\n        RevisionPosted(sender, subCitadelManifestHash, revCitadelManifestHash);\r\n    }\r\n    \r\n    function respondToAuthorgSubmissionRevision(address originalAuthorgAddress, \r\n                                                uint originalsubmissionIndex, \r\n                                                bytes32 originalRevisionHash, \r\n                                                uint responsesubmissionIndex, \r\n                                                bytes32 responseRevisionHash) public {\r\n        require (isAuthorgOfSubmissionRevision(msg.sender, responsesubmissionIndex, responseRevisionHash));\r\n        var originalAuthorg = internalAuthorgs[originalAuthorgAddress];\r\n        var originalSubmission = originalAuthorg.submissions[originalsubmissionIndex];\r\n        var originalRevision = originalSubmission.revisions[originalRevisionHash];\r\n\r\n        originalRevision.referenceKeyAuthorgs.push(msg.sender);\r\n        originalRevision.referenceKeySubmissions.push(responsesubmissionIndex);\r\n        originalRevision.referenceKeyRevisions.push(responseRevisionHash);\r\n\r\n        originalRevision.hasUserReferencedRevision[msg.sender] = true;\r\n\r\n        PostReferencedPost(msg.sender, responsesubmissionIndex, responseRevisionHash, originalAuthorgAddress, originalsubmissionIndex, originalRevisionHash);\r\n        PostReferencedByPost(originalAuthorgAddress, originalsubmissionIndex, originalRevisionHash, msg.sender, responsesubmissionIndex, responseRevisionHash);\r\n    }\r\n\r\n    function getNumberReferencesForAuthorgSubmissionRevision(address authorgAddress, \r\n                                                                uint submissionIndex, \r\n                                                                bytes32 revisionHash) public constant returns (uint) \r\n    {\r\n        return internalAuthorgs[authorgAddress].submissions[submissionIndex].revisions[revisionHash].referenceKeyRevisions.length;\r\n    }\r\n\r\n    function getReferenceForAuthorgSubmissionRevision(address authorgAddress, \r\n                                                        uint submissionIndex, \r\n                                                        bytes32 revisionHash, \r\n                                                        uint index) public constant returns(address, uint, bytes32, uint) {\r\n        Revision rev = internalAuthorgs[authorgAddress].submissions[submissionIndex].revisions[revisionHash];\r\n        address refAuthorgAddress = rev.referenceKeyAuthorgs[index];\r\n        uint refsubmissionIndex = rev.referenceKeySubmissions[index];\r\n        bytes32 refRevisionHash = rev.referenceKeyRevisions[index];\r\n        Revision refRevision = internalAuthorgs[refAuthorgAddress].submissions[refsubmissionIndex].revisions[refRevisionHash];\r\n        return (refAuthorgAddress, refsubmissionIndex, refRevisionHash, refRevision.timestamp);\r\n    }\r\n\r\n    function getPostKeyCountForAuthorg(address authorgAddress) \r\n                                        public constant returns (uint) {\r\n        return internalAuthorgs[authorgAddress].postKeyIndexes.length;\r\n    }\r\n\r\n    function getAuthorgPostKey(address authAdd, uint indexIndex) \r\n                                public constant returns (address authorgAddress, uint submissionIndex, bytes32 revisionHash, uint timestamp) {\r\n        uint index = internalAuthorgs[authAdd].postKeyIndexes[indexIndex];\r\n        return (getAuthSubRevKey(index));\r\n    }\r\n\r\n    function getTimestampForRevision(address authorgAddress, uint submissionIndex, bytes32 revisionHash) public constant returns(uint) {\r\n        return internalAuthorgs[authorgAddress].submissions[submissionIndex].revisions[revisionHash].timestamp;\r\n    }\r\n\r\n    function getSubmissionRevisions(address authorgAddress, uint submissionIndex) public constant returns (bytes32[] revisionHashes) {\r\n         return internalAuthorgs[authorgAddress].submissions[submissionIndex].revisionHashes;\r\n    }\r\n\r\n    function doesPostReferencePost(address postUserAddress, \r\n                                    address originalPostUserAddress, \r\n                                    uint originalPostsubmissionIndex, \r\n                                    bytes32 originalPostRevisionHash) \r\n                                    constant returns (bool) \r\n    {\r\n        Revision rev = internalAuthorgs[originalPostUserAddress].submissions[originalPostsubmissionIndex].revisions[originalPostRevisionHash];\r\n        return rev.hasUserReferencedRevision[postUserAddress];\r\n    }\r\n\r\n    function constDoesPostReferencePost(address postUserAddress, \r\n                                    address originalPostUserAddress, \r\n                                    uint originalPostsubmissionIndex, \r\n                                    bytes32 originalPostRevisionHash) \r\n                                    public constant returns (bool) \r\n    {\r\n        Revision rev = internalAuthorgs[originalPostUserAddress].submissions[originalPostsubmissionIndex].revisions[originalPostRevisionHash];\r\n        return rev.hasUserReferencedRevision[postUserAddress];\r\n    }\r\n\r\n    function getUserCurrentSubmissionIndex(address user) public constant returns (uint) {\r\n        return internalAuthorgs[user].submissionIndex;\r\n    }\r\n}",
  "sourcePath": "E:\\Projects\\CitaDAO\\src\\app-contracts\\contracts\\Ink.sol",
  "compiler": {
    "name": "solc",
    "version": "0.4.18+commit.9cf6e910.Emscripten.clang"
  },
  "schemaVersion": "1.0.1",
  "updatedAt": "2017-11-22T08:19:40.270Z"
}