{
  "contractName": "Managed",
  "abi": [
    {
      "constant": true,
      "inputs": [],
      "name": "ink_comptroller",
      "outputs": [
        {
          "name": "",
          "type": "address"
        }
      ],
      "payable": false,
      "stateMutability": "view",
      "type": "function"
    }
  ],
  "bytecode": "0x6060604052341561000f57600080fd5b60e78061001d6000396000f300606060405260043610603f576000357c0100000000000000000000000000000000000000000000000000000000900463ffffffff168063cc467194146044575b600080fd5b3415604e57600080fd5b60546096565b604051808273ffffffffffffffffffffffffffffffffffffffff1673ffffffffffffffffffffffffffffffffffffffff16815260200191505060405180910390f35b6000809054906101000a900473ffffffffffffffffffffffffffffffffffffffff16815600a165627a7a723058208408c3dc9961787e4588d8259d5a034dbc60d5b0838d04f96aa1644d12d5845f0029",
  "source": "pragma solidity ^0.4.13;\n\ncontract Managed {\n    address public ink_comptroller;  \n    modifier onlyComptroller {\n        require(msg.sender == ink_comptroller);\n        _;\n    }\n}\n\ncontract Ink is Managed {\n\n    event BioUpdated(address indexed _authorg, bytes32 indexed _revHash);\n    event RevisionPosted(address indexed _authorg, uint indexed _subIndex, bytes32 indexed _revHash);\n    event PostReferencedPost(address indexed _authorg, uint indexed _subIndex, bytes32 indexed _revHash, address _refAuthorg, uint _refSubIndex, bytes32 _refRevHash);\n    event PostReferencedByPost(address indexed _refAuthorg, uint indexed _refSubIndex, bytes32 indexed _refRevHash, address _authorg, uint _subIndex, bytes32 _revHash);\n\n    uint256 public bio_update_in_ink;\n    uint256 public reaction_cost_in_ink;\n    uint256 public submit_revision_cost_in_ink; \n    uint256 public submit_submission_cost_in_ink; \n    \n    function Ink(uint bioCost, uint256 reactionCost, uint256 revisionCost, uint256 submissionCost) public {\n        ink_comptroller = msg.sender;\n        bio_update_in_ink = bioCost;\n        reaction_cost_in_ink = reactionCost;\n        submit_revision_cost_in_ink = revisionCost;\n        submit_submission_cost_in_ink = submissionCost;\n    }\n    \n    struct Authorg {\n        uint submissionIndex;\n        Submission selfBioSubmission;       \n        mapping(uint => Submission) submissions;\n        uint[] postKeyIndexes;\n    }\n\n    struct Submission {\n        mapping(bytes32 => Revision) revisions;\n        bytes32[] revisionHashes;\n        uint[] revisionTimestamps;\n    }\n    \n    struct Revision {\n        uint timestamp;\n        bytes32 citadelManifestHash;\n\n        address[] referenceKeyAuthorgs;\n        uint[] referenceKeySubmissions;\n        bytes32[] referenceKeyRevisions;\n\n        mapping(address => bool) hasUserReferencedRevision;\n    }\n\n    struct SubRevKey {\n        uint submissionIndex;\n        bytes32 revisionHash;\n    }\n\n    struct AuthSubRevKey {\n        address authorgAddress;\n        uint submissionIndex;\n        bytes32 revisionHash;\n    }\n\n    \n    mapping(address => Authorg) internalAuthorgs;\n    \n    // solidity compliation seems to cry when we store these types of keys as a struct, \n    // so we're just using multiple parallel arrays everywhere (for now)\n    address[] allPostAuthorgs;\n    uint[] allPostSubmissions;\n    bytes32[] allPostRevisions;\n\n    function getBioRevisions(address authorgAddress) public constant returns (bytes32[] hashes, uint[] timestamps) {\n        return (internalAuthorgs[authorgAddress].selfBioSubmission.revisionHashes, \n                internalAuthorgs[authorgAddress].selfBioSubmission.revisionTimestamps);\n    }\n\n    function getTotalAuthSubRevKeyCount() public constant returns (uint) {\n        if (allPostAuthorgs.length != allPostSubmissions.length || allPostAuthorgs.length != allPostRevisions.length) {\n            return 0;\n        } else {\n            return allPostAuthorgs.length;\n        }\n    }\n\n    function getAuthSubRevKey(uint index) public constant returns (address, uint, bytes32, uint) {\n        var authorg = allPostAuthorgs[index];\n        var submission = allPostSubmissions[index];\n        var revision = allPostRevisions[index];\n        var timestamp = internalAuthorgs[authorg].submissions[submission].revisions[revision].timestamp;\n        return (authorg, submission, revision, timestamp);\n    }\n    \n    function submitBioRevision(bytes32 citadelManifestHash) public {\n        //spend(bio_update_in_ink);\n        var newAuthorgs = new address[](0);\n        var newSubmissions = new uint[](0);\n        var newRevisions = new bytes32[](0);\n        internalAuthorgs[msg.sender].selfBioSubmission.revisionHashes.push(citadelManifestHash);\n        internalAuthorgs[msg.sender].selfBioSubmission.revisionTimestamps.push(block.timestamp);\n        var revision = Revision({\n            timestamp : block.timestamp,\n            citadelManifestHash : citadelManifestHash,\n            referenceKeyAuthorgs : newAuthorgs,\n            referenceKeySubmissions : newSubmissions,\n            referenceKeyRevisions : newRevisions\n        });\n        internalAuthorgs[msg.sender].selfBioSubmission.revisions[citadelManifestHash] = revision;\n        BioUpdated(msg.sender, citadelManifestHash);\n    }\n    \n    function isAuthorgOfSubmission(address authorgAddress, uint submissionIndex) public constant returns (bool) {\n        var authorg = internalAuthorgs[authorgAddress];\n        var submission = authorg.submissions[submissionIndex];\n        return submission.revisionHashes.length != 0;\n    }\n    \n    function isAuthorgOfBio(address authorgAddress, \n                            bytes32 bioRevisionHash) \n                            public constant returns (bool) {\n        var authorg = internalAuthorgs[authorgAddress];\n        authorg.selfBioSubmission.revisions[bioRevisionHash].citadelManifestHash != 0;\n    }\n    \n    function isAuthorgOfSubmissionRevision(address authorgAddress, \n                                            uint submissionIndex, \n                                            bytes32 revisionHash) \n                                             public constant returns (bool) {\n        var authorg = internalAuthorgs[authorgAddress];\n        var submission = authorg.submissions[submissionIndex];\n        return submission.revisions[revisionHash].citadelManifestHash != 0;\n    }\n\n    function submitSubmissionWithReferences(bytes32 revCitadelManifestHash, \n                                            address[] refKeyAuthorgs, \n                                            uint[] refKeySubmissions, \n                                            bytes32[] refKeyRevisions) public {\n        //spend(submit_submission_cost_in_ink);\n        var index = internalAuthorgs[msg.sender].submissionIndex;\n        internalAuthorgs[msg.sender].submissionIndex++;\n        submitRevisionWithReferences(index, revCitadelManifestHash, refKeyAuthorgs, refKeySubmissions, refKeyRevisions);\n    }\n\n    function submitRevisionWithReferences(uint subCitadelManifestHash, \n                                            bytes32 revCitadelManifestHash, \n                                            address[] refKeyAuthorgs, \n                                            uint[] refKeySubmissions, \n                                            bytes32[] refKeyRevisions) public {\n\n        require(internalAuthorgs[msg.sender].submissionIndex > subCitadelManifestHash); // can't revise a submission that hasn't happened yet\n\n        submitRevision(subCitadelManifestHash, revCitadelManifestHash);\n        require(refKeyAuthorgs.length == refKeySubmissions.length);\n        require(refKeyAuthorgs.length == refKeyRevisions.length);\n\n        for (uint i = 0; i < refKeyAuthorgs.length; i++) {\n            respondToAuthorgSubmissionRevision(refKeyAuthorgs[i], refKeySubmissions[i], refKeyRevisions[i], subCitadelManifestHash, revCitadelManifestHash);\n        }\n    }\n    \n    function submitRevision(uint subCitadelManifestHash, bytes32 revCitadelManifestHash) private {\n        //spend(submit_revision_cost_in_ink);\n        submitRevision(msg.sender, subCitadelManifestHash, revCitadelManifestHash);\n    }\n    \n    function submitRevision(address sender, uint subCitadelManifestHash, bytes32 revCitadelManifestHash) private {\n        Authorg authorg = internalAuthorgs[sender];\n\n        // must have a bio set.\n        //require (authorg.selfBioSubmission.revisionHashes.length > 0);\n\n        // never submitted revision to this submission before        \n        require (authorg.submissions[subCitadelManifestHash].revisions[revCitadelManifestHash].citadelManifestHash == 0);\n        \n        var newAuthorgs = new address[](0);\n        var newSubmissions = new uint[](0);\n        var newRevisions = new bytes32[](0);\n        var revision = Revision({\n            timestamp : block.timestamp,\n            citadelManifestHash : revCitadelManifestHash,\n            referenceKeyAuthorgs : newAuthorgs,\n            referenceKeySubmissions : newSubmissions,\n            referenceKeyRevisions : newRevisions\n        });\n        authorg.submissions[subCitadelManifestHash].revisions[revCitadelManifestHash] = revision;\n        \n\n        authorg.submissions[subCitadelManifestHash].revisionHashes.push(revCitadelManifestHash);\n        internalAuthorgs[sender].postKeyIndexes.push(allPostRevisions.length);\n        allPostAuthorgs.push(sender);\n        allPostSubmissions.push(subCitadelManifestHash);\n        allPostRevisions.push(revCitadelManifestHash);\n        RevisionPosted(sender, subCitadelManifestHash, revCitadelManifestHash);\n    }\n    \n    function respondToAuthorgSubmissionRevision(address originalAuthorgAddress, \n                                                uint originalsubmissionIndex, \n                                                bytes32 originalRevisionHash, \n                                                uint responsesubmissionIndex, \n                                                bytes32 responseRevisionHash) public {\n        require (isAuthorgOfSubmissionRevision(msg.sender, responsesubmissionIndex, responseRevisionHash));\n        var originalAuthorg = internalAuthorgs[originalAuthorgAddress];\n        var originalSubmission = originalAuthorg.submissions[originalsubmissionIndex];\n        var originalRevision = originalSubmission.revisions[originalRevisionHash];\n\n        originalRevision.referenceKeyAuthorgs.push(msg.sender);\n        originalRevision.referenceKeySubmissions.push(responsesubmissionIndex);\n        originalRevision.referenceKeyRevisions.push(responseRevisionHash);\n\n        originalRevision.hasUserReferencedRevision[msg.sender] = true;\n\n        PostReferencedPost(msg.sender, responsesubmissionIndex, responseRevisionHash, originalAuthorgAddress, originalsubmissionIndex, originalRevisionHash);\n        PostReferencedByPost(originalAuthorgAddress, originalsubmissionIndex, originalRevisionHash, msg.sender, responsesubmissionIndex, responseRevisionHash);\n    }\n\n    function getNumberReferencesForAuthorgSubmissionRevision(address authorgAddress, \n                                                                uint submissionIndex, \n                                                                bytes32 revisionHash) public constant returns (uint) \n    {\n        return internalAuthorgs[authorgAddress].submissions[submissionIndex].revisions[revisionHash].referenceKeyRevisions.length;\n    }\n\n    function getReferenceForAuthorgSubmissionRevision(address authorgAddress, \n                                                        uint submissionIndex, \n                                                        bytes32 revisionHash, \n                                                        uint index) public constant returns(address, uint, bytes32, uint) {\n        Revision rev = internalAuthorgs[authorgAddress].submissions[submissionIndex].revisions[revisionHash];\n        address refAuthorgAddress = rev.referenceKeyAuthorgs[index];\n        uint refsubmissionIndex = rev.referenceKeySubmissions[index];\n        bytes32 refRevisionHash = rev.referenceKeyRevisions[index];\n        Revision refRevision = internalAuthorgs[refAuthorgAddress].submissions[refsubmissionIndex].revisions[refRevisionHash];\n        return (refAuthorgAddress, refsubmissionIndex, refRevisionHash, refRevision.timestamp);\n    }\n\n    function getPostKeyCountForAuthorg(address authorgAddress) \n                                        public constant returns (uint) {\n        return internalAuthorgs[authorgAddress].postKeyIndexes.length;\n    }\n\n    function getAuthorgPostKey(address authAdd, uint indexIndex) \n                                public constant returns (address authorgAddress, uint submissionIndex, bytes32 revisionHash, uint timestamp) {\n        uint index = internalAuthorgs[authAdd].postKeyIndexes[indexIndex];\n        return (getAuthSubRevKey(index));\n    }\n\n    function getTimestampForRevision(address authorgAddress, uint submissionIndex, bytes32 revisionHash) public constant returns(uint) {\n        return internalAuthorgs[authorgAddress].submissions[submissionIndex].revisions[revisionHash].timestamp;\n    }\n\n    function getSubmissionRevisions(address authorgAddress, uint submissionIndex) public constant returns (bytes32[] revisionHashes) {\n         return internalAuthorgs[authorgAddress].submissions[submissionIndex].revisionHashes;\n    }\n\n    function doesPostReferencePost(address postUserAddress, \n                                    address originalPostUserAddress, \n                                    uint originalPostsubmissionIndex, \n                                    bytes32 originalPostRevisionHash) \n                                    constant returns (bool) \n    {\n        Revision rev = internalAuthorgs[originalPostUserAddress].submissions[originalPostsubmissionIndex].revisions[originalPostRevisionHash];\n        return rev.hasUserReferencedRevision[postUserAddress];\n    }\n\n    function constDoesPostReferencePost(address postUserAddress, \n                                    address originalPostUserAddress, \n                                    uint originalPostsubmissionIndex, \n                                    bytes32 originalPostRevisionHash) \n                                    public constant returns (bool) \n    {\n        Revision rev = internalAuthorgs[originalPostUserAddress].submissions[originalPostsubmissionIndex].revisions[originalPostRevisionHash];\n        return rev.hasUserReferencedRevision[postUserAddress];\n    }\n\n    function getUserCurrentSubmissionIndex(address user) public constant returns (uint) {\n        return internalAuthorgs[user].submissionIndex;\n    }\n}",
  "sourcePath": "/home/nort7/Ethereum/citadao/src/app-contracts/contracts/Ink.sol",
  "compiler": {
    "name": "solc",
    "version": "0.4.18+commit.9cf6e910.Emscripten.clang"
  },
  "schemaVersion": "1.0.1",
  "updatedAt": "2017-11-20T19:28:40.234Z"
}