{
  "contractName": "Owned",
  "abi": [
    {
      "constant": true,
      "inputs": [],
      "name": "owner",
      "outputs": [
        {
          "name": "",
          "type": "address"
        }
      ],
      "payable": false,
      "stateMutability": "view",
      "type": "function"
    },
    {
      "constant": false,
      "inputs": [
        {
          "name": "newOwner",
          "type": "address"
        }
      ],
      "name": "transferOwnership",
      "outputs": [],
      "payable": false,
      "stateMutability": "nonpayable",
      "type": "function"
    },
    {
      "inputs": [],
      "payable": false,
      "stateMutability": "nonpayable",
      "type": "constructor"
    }
  ],
  "bytecode": "0x6060604052341561000f57600080fd5b336000806101000a81548173ffffffffffffffffffffffffffffffffffffffff021916908373ffffffffffffffffffffffffffffffffffffffff1602179055506101ce8061005e6000396000f30060606040526004361061004c576000357c0100000000000000000000000000000000000000000000000000000000900463ffffffff1680638da5cb5b14610051578063f2fde38b146100a6575b600080fd5b341561005c57600080fd5b6100646100df565b604051808273ffffffffffffffffffffffffffffffffffffffff1673ffffffffffffffffffffffffffffffffffffffff16815260200191505060405180910390f35b34156100b157600080fd5b6100dd600480803573ffffffffffffffffffffffffffffffffffffffff16906020019091905050610104565b005b6000809054906101000a900473ffffffffffffffffffffffffffffffffffffffff1681565b6000809054906101000a900473ffffffffffffffffffffffffffffffffffffffff1673ffffffffffffffffffffffffffffffffffffffff163373ffffffffffffffffffffffffffffffffffffffff1614151561015f57600080fd5b806000806101000a81548173ffffffffffffffffffffffffffffffffffffffff021916908373ffffffffffffffffffffffffffffffffffffffff160217905550505600a165627a7a723058200cb481dc951817e8460a213a4096a7023448b1f0d279665e289626add87b77c90029",
  "source": "pragma solidity ^0.4.13;\r\n\r\ncontract Owned {\r\n    address public owner;\r\n\r\n    function Owned() {\r\n        owner = msg.sender;\r\n    }\r\n\r\n    modifier onlyOwner {\r\n        require (msg.sender == owner);\r\n        _;\r\n    }\r\n\r\n    function transferOwnership(address newOwner) onlyOwner {\r\n        owner = newOwner;\r\n    }\r\n}\r\n\r\ncontract tokenRecipient { function receiveApproval(address _from, uint256 _value, address _token, bytes _extraData); }\r\n\r\ncontract Token {\r\n    /* Public variables of the token */\r\n    string public standard = 'Token 0.1';\r\n    string public name;\r\n    string public symbol;\r\n    uint8 public decimals;\r\n    uint256 public totalSupply;\r\n    address public inkComptroller;\r\n\r\n    /* This creates an array with all balances */\r\n    mapping (address => uint256) public balanceOf;\r\n\r\n    /* This generates a public event on the blockchain that will notify clients */\r\n    event Transfer(address indexed from, address indexed to, uint256 value);\r\n\r\n    event Bought(address indexed buyer);\r\n    /* Initializes contract with initial supply tokens to the token itself */\r\n    function Token(\r\n        uint256 initialSupply,\r\n        string tokenName,\r\n        uint8 decimalUnits,\r\n        string tokenSymbol\r\n        ) {\r\n        balanceOf[this] = initialSupply;              // Give the token itself all initial tokens\r\n        totalSupply = initialSupply;                        // Update total supply\r\n        name = tokenName;                                   // Set the name for display purposes\r\n        symbol = tokenSymbol;                               // Set the symbol for display purposes\r\n        decimals = decimalUnits;                            // Amount of decimals for display purposes\r\n    }\r\n\r\n    /* Send coins */\r\n    function transfer(address _to, uint256 _value) {\r\n        require (balanceOf[msg.sender] >= _value);           // Check if the sender has enough\r\n        require (balanceOf[_to] + _value >= balanceOf[_to]); // Check for overflows\r\n        balanceOf[msg.sender] -= _value;                     // Subtract from the sender\r\n        balanceOf[_to] += _value;                            // Add the same to the recipient\r\n        Transfer(msg.sender, _to, _value);                   // Notify anyone listening that this transfer took place\r\n    }\r\n\r\n    /* A contract attempts to get the coins */\r\n    function transferFrom(address _from, address _to, uint256 _value) returns (bool success) {\r\n        require (balanceOf[_from] >= _value);                 // Check if the sender has enough\r\n        require (balanceOf[_to] + _value >= balanceOf[_to]);  // Check for overflows\r\n        require (msg.sender == _from || msg.sender == inkComptroller);   // Check sender\r\n        balanceOf[_from] -= _value;                          // Subtract from the sender\r\n        balanceOf[_to] += _value;                            // Add the same to the recipient\r\n        Transfer(_from, _to, _value);\r\n        return true;\r\n    }\r\n\r\n    /* This unnamed function is called whenever someone tries to send ether to it */\r\n    function () {\r\n        assert(false);     // Prevents accidental sending of ether\r\n    }\r\n}\r\n\r\ncontract MyAdvancedToken is Owned, Token {\r\n\r\n    uint256 public sellPrice;\r\n    uint256 public buyPrice;\r\n\r\n    mapping (address => bool) public frozenAccount;\r\n\r\n    /* This generates a public event on the blockchain that will notify clients */\r\n    event FrozenFunds(address target, bool frozen);\r\n\r\n    /* Initializes contract with initial supply tokens to the creator of the contract */\r\n    function MyAdvancedToken(\r\n        uint256 initialSupply,\r\n        string tokenName,\r\n        uint8 decimalUnits,\r\n        string tokenSymbol,\r\n        uint256 initialBuyPrice\r\n    ) Token (initialSupply, tokenName, decimalUnits, tokenSymbol) {\r\n        buyPrice = initialBuyPrice;\r\n    }\r\n\r\n    function setInkAddress(address comptroller) onlyOwner {\r\n        inkComptroller = comptroller;\r\n    }\r\n\r\n    /* Send coins */\r\n    function transfer(address _to, uint256 _value) {\r\n        require (balanceOf[msg.sender] >= _value);           // Check if the sender has enough\r\n        require (balanceOf[_to] + _value >= balanceOf[_to]); // Check for overflows\r\n        require (!frozenAccount[msg.sender]);                // Check if frozen\r\n        balanceOf[msg.sender] -= _value;                     // Subtract from the sender\r\n        balanceOf[_to] += _value;                            // Add the same to the recipient\r\n        Transfer(msg.sender, _to, _value);                   // Notify anyone listening that this transfer took place\r\n    }\r\n\r\n\r\n    /* A contract attempts to get the coins */\r\n    function transferFrom(address _from, address _to, uint256 _value) returns (bool success) {\r\n        require (!frozenAccount[_from]);                        // Check if frozen            \r\n        require (balanceOf[_from] >= _value);                 // Check if the sender has enough\r\n        require (balanceOf[_to] + _value > balanceOf[_to]);  // Check for overflows\r\n        require (msg.sender == _from || msg.sender == inkComptroller);   // Check sender\r\n        balanceOf[_from] -= _value;                          // Subtract from the sender\r\n        balanceOf[_to] += _value;                            // Add the same to the recipient\r\n        Transfer(_from, _to, _value);\r\n        return true;\r\n    }\r\n\r\n    function mintToken(address target, uint256 mintedAmount) onlyOwner {\r\n        balanceOf[target] += mintedAmount;\r\n        totalSupply += mintedAmount;\r\n        Transfer(0, this, mintedAmount);\r\n        Transfer(this, target, mintedAmount);\r\n    }\r\n\r\n    function freezeAccount(address target, bool freeze) onlyOwner {\r\n        frozenAccount[target] = freeze;\r\n        FrozenFunds(target, freeze);\r\n    }\r\n\r\n    function setPrices(uint256 newSellPrice, uint256 newBuyPrice) onlyOwner {\r\n        sellPrice = newSellPrice;\r\n        buyPrice = newBuyPrice;\r\n    }\r\n\r\n    function buy() payable {\r\n        uint amount = msg.value / buyPrice;                // calculates the amount\r\n        require (balanceOf[this] >= amount);               // checks if it has enough to sell\r\n        balanceOf[msg.sender] += amount;                   // adds the amount to buyer's balance\r\n        balanceOf[this] -= amount;                         // subtracts amount from seller's balance\r\n        Transfer(this, msg.sender, amount);                // execute an event reflecting the change\r\n        Bought(msg.sender);\r\n    }\r\n\r\n    function sell(uint256 amount) {\r\n        require (balanceOf[msg.sender] >= amount );        // checks if the sender has enough to sell\r\n        balanceOf[this] += amount;                         // adds the amount to owner's balance\r\n        balanceOf[msg.sender] -= amount;                   // subtracts the amount from seller's balance\r\n        if (!msg.sender.send(amount * sellPrice)) {        // sends ether to the seller. It's important\r\n            assert(false);                                         // to do this last to avoid recursion attacks\r\n        } else {\r\n            Transfer(msg.sender, this, amount);            // executes an event reflecting on the change\r\n        }               \r\n    }\r\n\r\n    function getInitalSupply() constant returns (uint256) {\r\n        return totalSupply;\r\n    }\r\n}",
  "sourcePath": "E:\\Projects\\CitaDAO\\src\\app-contracts\\contracts\\Token.sol",
  "compiler": {
    "name": "solc",
    "version": "0.4.18+commit.9cf6e910.Emscripten.clang"
  },
  "schemaVersion": "1.0.1",
  "updatedAt": "2017-11-16T08:02:09.884Z"
}